{"abi":[{"type":"constructor","inputs":[],"stateMutability":"nonpayable"},{"type":"function","name":"approve","inputs":[{"name":"to","type":"address","internalType":"address"},{"name":"tokenId","type":"uint256","internalType":"uint256"}],"outputs":[],"stateMutability":"nonpayable"},{"type":"function","name":"balanceOf","inputs":[{"name":"owner","type":"address","internalType":"address"}],"outputs":[{"name":"","type":"uint256","internalType":"uint256"}],"stateMutability":"view"},{"type":"function","name":"getApproved","inputs":[{"name":"tokenId","type":"uint256","internalType":"uint256"}],"outputs":[{"name":"","type":"address","internalType":"address"}],"stateMutability":"view"},{"type":"function","name":"isApprovedForAll","inputs":[{"name":"owner","type":"address","internalType":"address"},{"name":"operator","type":"address","internalType":"address"}],"outputs":[{"name":"","type":"bool","internalType":"bool"}],"stateMutability":"view"},{"type":"function","name":"name","inputs":[],"outputs":[{"name":"","type":"string","internalType":"string"}],"stateMutability":"view"},{"type":"function","name":"owner","inputs":[],"outputs":[{"name":"","type":"address","internalType":"address"}],"stateMutability":"view"},{"type":"function","name":"ownerOf","inputs":[{"name":"tokenId","type":"uint256","internalType":"uint256"}],"outputs":[{"name":"","type":"address","internalType":"address"}],"stateMutability":"view"},{"type":"function","name":"renounceOwnership","inputs":[],"outputs":[],"stateMutability":"nonpayable"},{"type":"function","name":"safeMint","inputs":[{"name":"to","type":"address","internalType":"address"}],"outputs":[],"stateMutability":"nonpayable"},{"type":"function","name":"safeTransferFrom","inputs":[{"name":"from","type":"address","internalType":"address"},{"name":"to","type":"address","internalType":"address"},{"name":"tokenId","type":"uint256","internalType":"uint256"}],"outputs":[],"stateMutability":"nonpayable"},{"type":"function","name":"safeTransferFrom","inputs":[{"name":"from","type":"address","internalType":"address"},{"name":"to","type":"address","internalType":"address"},{"name":"tokenId","type":"uint256","internalType":"uint256"},{"name":"data","type":"bytes","internalType":"bytes"}],"outputs":[],"stateMutability":"nonpayable"},{"type":"function","name":"setApprovalForAll","inputs":[{"name":"operator","type":"address","internalType":"address"},{"name":"approved","type":"bool","internalType":"bool"}],"outputs":[],"stateMutability":"nonpayable"},{"type":"function","name":"supportsInterface","inputs":[{"name":"interfaceId","type":"bytes4","internalType":"bytes4"}],"outputs":[{"name":"","type":"bool","internalType":"bool"}],"stateMutability":"view"},{"type":"function","name":"symbol","inputs":[],"outputs":[{"name":"","type":"string","internalType":"string"}],"stateMutability":"view"},{"type":"function","name":"tokenURI","inputs":[{"name":"tokenId","type":"uint256","internalType":"uint256"}],"outputs":[{"name":"","type":"string","internalType":"string"}],"stateMutability":"view"},{"type":"function","name":"transferFrom","inputs":[{"name":"from","type":"address","internalType":"address"},{"name":"to","type":"address","internalType":"address"},{"name":"tokenId","type":"uint256","internalType":"uint256"}],"outputs":[],"stateMutability":"nonpayable"},{"type":"function","name":"transferOwnership","inputs":[{"name":"newOwner","type":"address","internalType":"address"}],"outputs":[],"stateMutability":"nonpayable"},{"type":"event","name":"Approval","inputs":[{"name":"owner","type":"address","indexed":true,"internalType":"address"},{"name":"approved","type":"address","indexed":true,"internalType":"address"},{"name":"tokenId","type":"uint256","indexed":true,"internalType":"uint256"}],"anonymous":false},{"type":"event","name":"ApprovalForAll","inputs":[{"name":"owner","type":"address","indexed":true,"internalType":"address"},{"name":"operator","type":"address","indexed":true,"internalType":"address"},{"name":"approved","type":"bool","indexed":false,"internalType":"bool"}],"anonymous":false},{"type":"event","name":"OwnershipTransferred","inputs":[{"name":"previousOwner","type":"address","indexed":true,"internalType":"address"},{"name":"newOwner","type":"address","indexed":true,"internalType":"address"}],"anonymous":false},{"type":"event","name":"Transfer","inputs":[{"name":"from","type":"address","indexed":true,"internalType":"address"},{"name":"to","type":"address","indexed":true,"internalType":"address"},{"name":"tokenId","type":"uint256","indexed":true,"internalType":"uint256"}],"anonymous":false}],"bytecode":{"object":"0x60806040523480156200001157600080fd5b5060405180604001604052806005815260200164135e53919560da1b815250604051806040016040528060048152602001631353919560e21b81525081600090816200005e91906200018d565b5060016200006d82826200018d565b5050506200008a620000846200009060201b60201c565b62000094565b62000259565b3390565b600680546001600160a01b038381166001600160a01b0319831681179093556040519116919082907f8be0079c531659141344cd1fd0a4f28419497f9722a3daafe3b4186f6b6457e090600090a35050565b634e487b7160e01b600052604160045260246000fd5b600181811c908216806200011157607f821691505b6020821081036200013257634e487b7160e01b600052602260045260246000fd5b50919050565b601f82111562000188576000816000526020600020601f850160051c81016020861015620001635750805b601f850160051c820191505b8181101562000184578281556001016200016f565b5050505b505050565b81516001600160401b03811115620001a957620001a9620000e6565b620001c181620001ba8454620000fc565b8462000138565b602080601f831160018114620001f95760008415620001e05750858301515b600019600386901b1c1916600185901b17855562000184565b600085815260208120601f198616915b828110156200022a5788860151825594840194600190910190840162000209565b5085821015620002495787850151600019600388901b60f8161c191681555b5050505050600190811b01905550565b6114a980620002696000396000f3fe608060405234801561001057600080fd5b506004361061010b5760003560e01c806370a08231116100a2578063a22cb46511610071578063a22cb4651461021b578063b88d4fde1461022e578063c87b56dd14610241578063e985e9c514610254578063f2fde38b1461029057600080fd5b806370a08231146101d9578063715018a6146101fa5780638da5cb5b1461020257806395d89b411461021357600080fd5b806323b872dd116100de57806323b872dd1461018d57806340d097c3146101a057806342842e0e146101b35780636352211e146101c657600080fd5b806301ffc9a71461011057806306fdde0314610138578063081812fc1461014d578063095ea7b314610178575b600080fd5b61012361011e366004611035565b6102a3565b60405190151581526020015b60405180910390f35b6101406102f5565b60405161012f91906110a2565b61016061015b3660046110b5565b610387565b6040516001600160a01b03909116815260200161012f565b61018b6101863660046110ea565b6103ae565b005b61018b61019b366004611114565b6104c8565b61018b6101ae366004611150565b6104f9565b61018b6101c1366004611114565b61052a565b6101606101d43660046110b5565b610545565b6101ec6101e7366004611150565b6105a5565b60405190815260200161012f565b61018b61062b565b6006546001600160a01b0316610160565b61014061063f565b61018b61022936600461116b565b61064e565b61018b61023c3660046111bd565b610659565b61014061024f3660046110b5565b610691565b610123610262366004611299565b6001600160a01b03918216600090815260056020908152604080832093909416825291909152205460ff1690565b61018b61029e366004611150565b610705565b60006001600160e01b031982166380ac58cd60e01b14806102d457506001600160e01b03198216635b5e139f60e01b145b806102ef57506301ffc9a760e01b6001600160e01b03198316145b92915050565b606060008054610304906112cc565b80601f0160208091040260200160405190810160405280929190818152602001828054610330906112cc565b801561037d5780601f106103525761010080835404028352916020019161037d565b820191906000526020600020905b81548152906001019060200180831161036057829003601f168201915b5050505050905090565b60006103928261077e565b506000908152600460205260409020546001600160a01b031690565b60006103b982610545565b9050806001600160a01b0316836001600160a01b03160361042b5760405162461bcd60e51b815260206004820152602160248201527f4552433732313a20617070726f76616c20746f2063757272656e74206f776e656044820152603960f91b60648201526084015b60405180910390fd5b336001600160a01b038216148061044757506104478133610262565b6104b95760405162461bcd60e51b815260206004820152603d60248201527f4552433732313a20617070726f76652063616c6c6572206973206e6f7420746f60448201527f6b656e206f776e6572206f7220617070726f76656420666f7220616c6c0000006064820152608401610422565b6104c383836107dd565b505050565b6104d2338261084b565b6104ee5760405162461bcd60e51b815260040161042290611306565b6104c38383836108ca565b610501610a2e565b600061050c60075490565b905061051c600780546001019055565b6105268282610a88565b5050565b6104c383838360405180602001604052806000815250610659565b6000818152600260205260408120546001600160a01b0316806102ef5760405162461bcd60e51b8152602060048201526018602482015277115490cdcc8c4e881a5b9d985b1a59081d1bdad95b88125160421b6044820152606401610422565b60006001600160a01b03821661060f5760405162461bcd60e51b815260206004820152602960248201527f4552433732313a2061646472657373207a65726f206973206e6f7420612076616044820152683634b21037bbb732b960b91b6064820152608401610422565b506001600160a01b031660009081526003602052604090205490565b610633610a2e565b61063d6000610aa2565b565b606060018054610304906112cc565b610526338383610af4565b610663338361084b565b61067f5760405162461bcd60e51b815260040161042290611306565b61068b84848484610bc2565b50505050565b606061069c8261077e565b60006106b360408051602081019091526000815290565b905060008151116106d357604051806020016040528060008152506106fe565b806106dd84610bf5565b6040516020016106ee929190611353565b6040516020818303038152906040525b9392505050565b61070d610a2e565b6001600160a01b0381166107725760405162461bcd60e51b815260206004820152602660248201527f4f776e61626c653a206e6577206f776e657220697320746865207a65726f206160448201526564647265737360d01b6064820152608401610422565b61077b81610aa2565b50565b6000818152600260205260409020546001600160a01b031661077b5760405162461bcd60e51b8152602060048201526018602482015277115490cdcc8c4e881a5b9d985b1a59081d1bdad95b88125160421b6044820152606401610422565b600081815260046020526040902080546001600160a01b0319166001600160a01b038416908117909155819061081282610545565b6001600160a01b03167f8c5be1e5ebec7d5bd14f71427d1e84f3dd0314c0f7b2291e5b200ac8c7c3b92560405160405180910390a45050565b60008061085783610545565b9050806001600160a01b0316846001600160a01b0316148061089e57506001600160a01b0380821660009081526005602090815260408083209388168352929052205460ff165b806108c25750836001600160a01b03166108b784610387565b6001600160a01b0316145b949350505050565b826001600160a01b03166108dd82610545565b6001600160a01b0316146109035760405162461bcd60e51b815260040161042290611382565b6001600160a01b0382166109655760405162461bcd60e51b8152602060048201526024808201527f4552433732313a207472616e7366657220746f20746865207a65726f206164646044820152637265737360e01b6064820152608401610422565b826001600160a01b031661097882610545565b6001600160a01b03161461099e5760405162461bcd60e51b815260040161042290611382565b600081815260046020908152604080832080546001600160a01b03199081169091556001600160a01b0387811680865260038552838620805460001901905590871680865283862080546001019055868652600290945282852080549092168417909155905184937fddf252ad1be2c89b69c2b068fc378daa952ba7f163c4a11628f55a4df523b3ef91a4505050565b6006546001600160a01b0316331461063d5760405162461bcd60e51b815260206004820181905260248201527f4f776e61626c653a2063616c6c6572206973206e6f7420746865206f776e65726044820152606401610422565b610526828260405180602001604052806000815250610c88565b600680546001600160a01b038381166001600160a01b0319831681179093556040519116919082907f8be0079c531659141344cd1fd0a4f28419497f9722a3daafe3b4186f6b6457e090600090a35050565b816001600160a01b0316836001600160a01b031603610b555760405162461bcd60e51b815260206004820152601960248201527f4552433732313a20617070726f766520746f2063616c6c6572000000000000006044820152606401610422565b6001600160a01b03838116600081815260056020908152604080832094871680845294825291829020805460ff191686151590811790915591519182527f17307eab39ab6107e8899845ad3d59bd9653f200f220920489ca2b5937696c31910160405180910390a3505050565b610bcd8484846108ca565b610bd984848484610cbb565b61068b5760405162461bcd60e51b8152600401610422906113c7565b60606000610c0283610dbc565b600101905060008167ffffffffffffffff811115610c2257610c226111a7565b6040519080825280601f01601f191660200182016040528015610c4c576020820181803683370190505b5090508181016020015b600019016f181899199a1a9b1b9c1cb0b131b232b360811b600a86061a8153600a8504945084610c5657509392505050565b610c928383610e94565b610c9f6000848484610cbb565b6104c35760405162461bcd60e51b8152600401610422906113c7565b60006001600160a01b0384163b15610db157604051630a85bd0160e11b81526001600160a01b0385169063150b7a0290610cff903390899088908890600401611419565b6020604051808303816000875af1925050508015610d3a575060408051601f3d908101601f19168201909252610d3791810190611456565b60015b610d97573d808015610d68576040519150601f19603f3d011682016040523d82523d6000602084013e610d6d565b606091505b508051600003610d8f5760405162461bcd60e51b8152600401610422906113c7565b805181602001fd5b6001600160e01b031916630a85bd0160e11b1490506108c2565b506001949350505050565b60008072184f03e93ff9f4daa797ed6e38ed64bf6a1f0160401b8310610dfb5772184f03e93ff9f4daa797ed6e38ed64bf6a1f0160401b830492506040015b6d04ee2d6d415b85acef81000000008310610e27576d04ee2d6d415b85acef8100000000830492506020015b662386f26fc100008310610e4557662386f26fc10000830492506010015b6305f5e1008310610e5d576305f5e100830492506008015b6127108310610e7157612710830492506004015b60648310610e83576064830492506002015b600a83106102ef5760010192915050565b6001600160a01b038216610eea5760405162461bcd60e51b815260206004820181905260248201527f4552433732313a206d696e7420746f20746865207a65726f20616464726573736044820152606401610422565b6000818152600260205260409020546001600160a01b031615610f4f5760405162461bcd60e51b815260206004820152601c60248201527f4552433732313a20746f6b656e20616c7265616479206d696e746564000000006044820152606401610422565b6000818152600260205260409020546001600160a01b031615610fb45760405162461bcd60e51b815260206004820152601c60248201527f4552433732313a20746f6b656e20616c7265616479206d696e746564000000006044820152606401610422565b6001600160a01b038216600081815260036020908152604080832080546001019055848352600290915280822080546001600160a01b0319168417905551839291907fddf252ad1be2c89b69c2b068fc378daa952ba7f163c4a11628f55a4df523b3ef908290a45050565b6001600160e01b03198116811461077b57600080fd5b60006020828403121561104757600080fd5b81356106fe8161101f565b60005b8381101561106d578181015183820152602001611055565b50506000910152565b6000815180845261108e816020860160208601611052565b601f01601f19169290920160200192915050565b6020815260006106fe6020830184611076565b6000602082840312156110c757600080fd5b5035919050565b80356001600160a01b03811681146110e557600080fd5b919050565b600080604083850312156110fd57600080fd5b611106836110ce565b946020939093013593505050565b60008060006060848603121561112957600080fd5b611132846110ce565b9250611140602085016110ce565b9150604084013590509250925092565b60006020828403121561116257600080fd5b6106fe826110ce565b6000806040838503121561117e57600080fd5b611187836110ce565b91506020830135801515811461119c57600080fd5b809150509250929050565b634e487b7160e01b600052604160045260246000fd5b600080600080608085870312156111d357600080fd5b6111dc856110ce565b93506111ea602086016110ce565b925060408501359150606085013567ffffffffffffffff8082111561120e57600080fd5b818701915087601f83011261122257600080fd5b813581811115611234576112346111a7565b604051601f8201601f19908116603f0116810190838211818310171561125c5761125c6111a7565b816040528281528a602084870101111561127557600080fd5b82602086016020830137600060208483010152809550505050505092959194509250565b600080604083850312156112ac57600080fd5b6112b5836110ce565b91506112c3602084016110ce565b90509250929050565b600181811c908216806112e057607f821691505b60208210810361130057634e487b7160e01b600052602260045260246000fd5b50919050565b6020808252602d908201527f4552433732313a2063616c6c6572206973206e6f7420746f6b656e206f776e6560408201526c1c881bdc88185c1c1c9bdd9959609a1b606082015260800190565b60008351611365818460208801611052565b835190830190611379818360208801611052565b01949350505050565b60208082526025908201527f4552433732313a207472616e736665722066726f6d20696e636f72726563742060408201526437bbb732b960d91b606082015260800190565b60208082526032908201527f4552433732313a207472616e7366657220746f206e6f6e20455243373231526560408201527131b2b4bb32b91034b6b83632b6b2b73a32b960711b606082015260800190565b6001600160a01b038581168252841660208201526040810183905260806060820181905260009061144c90830184611076565b9695505050505050565b60006020828403121561146857600080fd5b81516106fe8161101f56fea26469706673582212201ec435466fc7ca4df59c904f7a17a5c35b31dba760be184f63a73522dc47b47664736f6c63430008180033","linkReferences":{}},"methodIdentifiers":{"approve(address,uint256)":"095ea7b3","balanceOf(address)":"70a08231","getApproved(uint256)":"081812fc","isApprovedForAll(address,address)":"e985e9c5","name()":"06fdde03","owner()":"8da5cb5b","ownerOf(uint256)":"6352211e","renounceOwnership()":"715018a6","safeMint(address)":"40d097c3","safeTransferFrom(address,address,uint256)":"42842e0e","safeTransferFrom(address,address,uint256,bytes)":"b88d4fde","setApprovalForAll(address,bool)":"a22cb465","supportsInterface(bytes4)":"01ffc9a7","symbol()":"95d89b41","tokenURI(uint256)":"c87b56dd","transferFrom(address,address,uint256)":"23b872dd","transferOwnership(address)":"f2fde38b"},"id":3}