{"abi":[{"type":"constructor","inputs":[],"stateMutability":"nonpayable"},{"type":"function","name":"balanceOf","inputs":[{"name":"account","type":"address","internalType":"address"},{"name":"id","type":"uint256","internalType":"uint256"}],"outputs":[{"name":"","type":"uint256","internalType":"uint256"}],"stateMutability":"view"},{"type":"function","name":"balanceOfBatch","inputs":[{"name":"accounts","type":"address[]","internalType":"address[]"},{"name":"ids","type":"uint256[]","internalType":"uint256[]"}],"outputs":[{"name":"","type":"uint256[]","internalType":"uint256[]"}],"stateMutability":"view"},{"type":"function","name":"isApprovedForAll","inputs":[{"name":"account","type":"address","internalType":"address"},{"name":"operator","type":"address","internalType":"address"}],"outputs":[{"name":"","type":"bool","internalType":"bool"}],"stateMutability":"view"},{"type":"function","name":"mint","inputs":[{"name":"account","type":"address","internalType":"address"},{"name":"id","type":"uint256","internalType":"uint256"},{"name":"amount","type":"uint256","internalType":"uint256"},{"name":"data","type":"bytes","internalType":"bytes"}],"outputs":[],"stateMutability":"nonpayable"},{"type":"function","name":"mintBatch","inputs":[{"name":"to","type":"address","internalType":"address"},{"name":"ids","type":"uint256[]","internalType":"uint256[]"},{"name":"amounts","type":"uint256[]","internalType":"uint256[]"},{"name":"data","type":"bytes","internalType":"bytes"}],"outputs":[],"stateMutability":"nonpayable"},{"type":"function","name":"owner","inputs":[],"outputs":[{"name":"","type":"address","internalType":"address"}],"stateMutability":"view"},{"type":"function","name":"renounceOwnership","inputs":[],"outputs":[],"stateMutability":"nonpayable"},{"type":"function","name":"safeBatchTransferFrom","inputs":[{"name":"from","type":"address","internalType":"address"},{"name":"to","type":"address","internalType":"address"},{"name":"ids","type":"uint256[]","internalType":"uint256[]"},{"name":"amounts","type":"uint256[]","internalType":"uint256[]"},{"name":"data","type":"bytes","internalType":"bytes"}],"outputs":[],"stateMutability":"nonpayable"},{"type":"function","name":"safeTransferFrom","inputs":[{"name":"from","type":"address","internalType":"address"},{"name":"to","type":"address","internalType":"address"},{"name":"id","type":"uint256","internalType":"uint256"},{"name":"amount","type":"uint256","internalType":"uint256"},{"name":"data","type":"bytes","internalType":"bytes"}],"outputs":[],"stateMutability":"nonpayable"},{"type":"function","name":"setApprovalForAll","inputs":[{"name":"operator","type":"address","internalType":"address"},{"name":"approved","type":"bool","internalType":"bool"}],"outputs":[],"stateMutability":"nonpayable"},{"type":"function","name":"setURI","inputs":[{"name":"newuri","type":"string","internalType":"string"}],"outputs":[],"stateMutability":"nonpayable"},{"type":"function","name":"supportsInterface","inputs":[{"name":"interfaceId","type":"bytes4","internalType":"bytes4"}],"outputs":[{"name":"","type":"bool","internalType":"bool"}],"stateMutability":"view"},{"type":"function","name":"transferOwnership","inputs":[{"name":"newOwner","type":"address","internalType":"address"}],"outputs":[],"stateMutability":"nonpayable"},{"type":"function","name":"uri","inputs":[{"name":"","type":"uint256","internalType":"uint256"}],"outputs":[{"name":"","type":"string","internalType":"string"}],"stateMutability":"view"},{"type":"event","name":"ApprovalForAll","inputs":[{"name":"account","type":"address","indexed":true,"internalType":"address"},{"name":"operator","type":"address","indexed":true,"internalType":"address"},{"name":"approved","type":"bool","indexed":false,"internalType":"bool"}],"anonymous":false},{"type":"event","name":"OwnershipTransferred","inputs":[{"name":"previousOwner","type":"address","indexed":true,"internalType":"address"},{"name":"newOwner","type":"address","indexed":true,"internalType":"address"}],"anonymous":false},{"type":"event","name":"TransferBatch","inputs":[{"name":"operator","type":"address","indexed":true,"internalType":"address"},{"name":"from","type":"address","indexed":true,"internalType":"address"},{"name":"to","type":"address","indexed":true,"internalType":"address"},{"name":"ids","type":"uint256[]","indexed":false,"internalType":"uint256[]"},{"name":"values","type":"uint256[]","indexed":false,"internalType":"uint256[]"}],"anonymous":false},{"type":"event","name":"TransferSingle","inputs":[{"name":"operator","type":"address","indexed":true,"internalType":"address"},{"name":"from","type":"address","indexed":true,"internalType":"address"},{"name":"to","type":"address","indexed":true,"internalType":"address"},{"name":"id","type":"uint256","indexed":false,"internalType":"uint256"},{"name":"value","type":"uint256","indexed":false,"internalType":"uint256"}],"anonymous":false},{"type":"event","name":"URI","inputs":[{"name":"value","type":"string","indexed":false,"internalType":"string"},{"name":"id","type":"uint256","indexed":true,"internalType":"uint256"}],"anonymous":false}],"bytecode":{"object":"0x60806040523480156200001157600080fd5b506040805160208101909152600081526200002c816200003e565b50620000383362000050565b62000215565b60026200004c828262000149565b5050565b600380546001600160a01b038381166001600160a01b0319831681179093556040519116919082907f8be0079c531659141344cd1fd0a4f28419497f9722a3daafe3b4186f6b6457e090600090a35050565b634e487b7160e01b600052604160045260246000fd5b600181811c90821680620000cd57607f821691505b602082108103620000ee57634e487b7160e01b600052602260045260246000fd5b50919050565b601f82111562000144576000816000526020600020601f850160051c810160208610156200011f5750805b601f850160051c820191505b8181101562000140578281556001016200012b565b5050505b505050565b81516001600160401b03811115620001655762000165620000a2565b6200017d81620001768454620000b8565b84620000f4565b602080601f831160018114620001b557600084156200019c5750858301515b600019600386901b1c1916600185901b17855562000140565b600085815260208120601f198616915b82811015620001e657888601518255948401946001909101908401620001c5565b5085821015620002055787850151600019600388901b60f8161c191681555b5050505050600190811b01905550565b611a6f80620002256000396000f3fe608060405234801561001057600080fd5b50600436106100e95760003560e01c8063715018a61161008c578063a22cb46511610066578063a22cb465146101e8578063e985e9c5146101fb578063f242432a14610237578063f2fde38b1461024a57600080fd5b8063715018a6146101b2578063731133e9146101ba5780638da5cb5b146101cd57600080fd5b80630e89341c116100c85780630e89341c1461014c5780631f7fdffa1461016c5780632eb2c2d61461017f5780634e1273f41461019257600080fd5b8062fdd58e146100ee57806301ffc9a71461011457806302fe530514610137575b600080fd5b6101016100fc366004610f56565b61025d565b6040519081526020015b60405180910390f35b610127610122366004610f96565b6102f6565b604051901515815260200161010b565b61014a61014536600461105b565b610346565b005b61015f61015a3660046110ac565b61035a565b60405161010b919061110b565b61014a61017a3660046111d8565b6103ee565b61014a61018d366004611271565b610408565b6101a56101a036600461131b565b610454565b60405161010b9190611422565b61014a610576565b61014a6101c8366004611435565b61058a565b6003546040516001600160a01b03909116815260200161010b565b61014a6101f636600461148a565b61059e565b6101276102093660046114c6565b6001600160a01b03918216600090815260016020908152604080832093909416825291909152205460ff1690565b61014a6102453660046114f9565b6105ad565b61014a61025836600461155e565b6105f2565b60006001600160a01b0383166102cd5760405162461bcd60e51b815260206004820152602a60248201527f455243313135353a2061646472657373207a65726f206973206e6f742061207660448201526930b634b21037bbb732b960b11b60648201526084015b60405180910390fd5b506000818152602081815260408083206001600160a01b03861684529091529020545b92915050565b60006001600160e01b03198216636cdb3d1360e11b148061032757506001600160e01b031982166303a24d0760e21b145b806102f057506301ffc9a760e01b6001600160e01b03198316146102f0565b61034e610668565b610357816106c2565b50565b60606002805461036990611579565b80601f016020809104026020016040519081016040528092919081815260200182805461039590611579565b80156103e25780601f106103b7576101008083540402835291602001916103e2565b820191906000526020600020905b8154815290600101906020018083116103c557829003601f168201915b50505050509050919050565b6103f6610668565b610402848484846106ce565b50505050565b6001600160a01b03851633148061042457506104248533610209565b6104405760405162461bcd60e51b81526004016102c4906115b3565b61044d858585858561080e565b5050505050565b606081518351146104b95760405162461bcd60e51b815260206004820152602960248201527f455243313135353a206163636f756e747320616e6420696473206c656e677468604482015268040dad2e6dac2e8c6d60bb1b60648201526084016102c4565b6000835167ffffffffffffffff8111156104d5576104d5610fba565b6040519080825280602002602001820160405280156104fe578160200160208202803683370190505b50905060005b845181101561056e5761054985828151811061052257610522611601565b602002602001015185838151811061053c5761053c611601565b602002602001015161025d565b82828151811061055b5761055b611601565b6020908102919091010152600101610504565b509392505050565b61057e610668565b61058860006109a3565b565b610592610668565b610402848484846109f5565b6105a9338383610acf565b5050565b6001600160a01b0385163314806105c957506105c98533610209565b6105e55760405162461bcd60e51b81526004016102c4906115b3565b61044d8585858585610baf565b6105fa610668565b6001600160a01b03811661065f5760405162461bcd60e51b815260206004820152602660248201527f4f776e61626c653a206e6577206f776e657220697320746865207a65726f206160448201526564647265737360d01b60648201526084016102c4565b610357816109a3565b6003546001600160a01b031633146105885760405162461bcd60e51b815260206004820181905260248201527f4f776e61626c653a2063616c6c6572206973206e6f7420746865206f776e657260448201526064016102c4565b60026105a98282611664565b6001600160a01b0384166106f45760405162461bcd60e51b81526004016102c490611724565b81518351146107155760405162461bcd60e51b81526004016102c490611765565b3360005b84518110156107a65783818151811061073457610734611601565b602002602001015160008087848151811061075157610751611601565b602002602001015181526020019081526020016000206000886001600160a01b03166001600160a01b03168152602001908152602001600020600082825461079991906117ad565b9091555050600101610719565b50846001600160a01b031660006001600160a01b0316826001600160a01b03167f4a39dc06d4c0dbc64b70af90fd698a233a518aa5d07e595d983b8c0526c8f7fb87876040516107f79291906117ce565b60405180910390a461044d81600087878787610cd9565b815183511461082f5760405162461bcd60e51b81526004016102c490611765565b6001600160a01b0384166108555760405162461bcd60e51b81526004016102c4906117fc565b3360005b845181101561093557600085828151811061087657610876611601565b60200260200101519050600085838151811061089457610894611601565b602090810291909101810151600084815280835260408082206001600160a01b038e1683529093529190912054909150818110156108e45760405162461bcd60e51b81526004016102c490611841565b6000838152602081815260408083206001600160a01b038e8116855292528083208585039055908b168252812080548492906109219084906117ad565b909155505060019093019250610859915050565b50846001600160a01b0316866001600160a01b0316826001600160a01b03167f4a39dc06d4c0dbc64b70af90fd698a233a518aa5d07e595d983b8c0526c8f7fb87876040516109859291906117ce565b60405180910390a461099b818787878787610cd9565b505050505050565b600380546001600160a01b038381166001600160a01b0319831681179093556040519116919082907f8be0079c531659141344cd1fd0a4f28419497f9722a3daafe3b4186f6b6457e090600090a35050565b6001600160a01b038416610a1b5760405162461bcd60e51b81526004016102c490611724565b336000610a2785610e34565b90506000610a3485610e34565b90506000868152602081815260408083206001600160a01b038b16845290915281208054879290610a669084906117ad565b909155505060408051878152602081018790526001600160a01b03808a1692600092918716917fc3d58168c5ae7397731d063d5bbf3d657854427343f4c083240f7aacaa2d0f62910160405180910390a4610ac683600089898989610e7f565b50505050505050565b816001600160a01b0316836001600160a01b031603610b425760405162461bcd60e51b815260206004820152602960248201527f455243313135353a2073657474696e6720617070726f76616c20737461747573604482015268103337b91039b2b63360b91b60648201526084016102c4565b6001600160a01b03838116600081815260016020908152604080832094871680845294825291829020805460ff191686151590811790915591519182527f17307eab39ab6107e8899845ad3d59bd9653f200f220920489ca2b5937696c31910160405180910390a3505050565b6001600160a01b038416610bd55760405162461bcd60e51b81526004016102c4906117fc565b336000610be185610e34565b90506000610bee85610e34565b90506000868152602081815260408083206001600160a01b038c16845290915290205485811015610c315760405162461bcd60e51b81526004016102c490611841565b6000878152602081815260408083206001600160a01b038d8116855292528083208985039055908a16825281208054889290610c6e9084906117ad565b909155505060408051888152602081018890526001600160a01b03808b16928c821692918816917fc3d58168c5ae7397731d063d5bbf3d657854427343f4c083240f7aacaa2d0f62910160405180910390a4610cce848a8a8a8a8a610e7f565b505050505050505050565b6001600160a01b0384163b1561099b5760405163bc197c8160e01b81526001600160a01b0385169063bc197c8190610d1d908990899088908890889060040161188b565b6020604051808303816000875af1925050508015610d58575060408051601f3d908101601f19168201909252610d55918101906118e9565b60015b610e0457610d64611906565b806308c379a003610d9d5750610d78611922565b80610d835750610d9f565b8060405162461bcd60e51b81526004016102c4919061110b565b505b60405162461bcd60e51b815260206004820152603460248201527f455243313135353a207472616e7366657220746f206e6f6e2d455243313135356044820152732932b1b2b4bb32b91034b6b83632b6b2b73a32b960611b60648201526084016102c4565b6001600160e01b0319811663bc197c8160e01b14610ac65760405162461bcd60e51b81526004016102c4906119ac565b60408051600180825281830190925260609160009190602080830190803683370190505090508281600081518110610e6e57610e6e611601565b602090810291909101015292915050565b6001600160a01b0384163b1561099b5760405163f23a6e6160e01b81526001600160a01b0385169063f23a6e6190610ec390899089908890889088906004016119f4565b6020604051808303816000875af1925050508015610efe575060408051601f3d908101601f19168201909252610efb918101906118e9565b60015b610f0a57610d64611906565b6001600160e01b0319811663f23a6e6160e01b14610ac65760405162461bcd60e51b81526004016102c4906119ac565b80356001600160a01b0381168114610f5157600080fd5b919050565b60008060408385031215610f6957600080fd5b610f7283610f3a565b946020939093013593505050565b6001600160e01b03198116811461035757600080fd5b600060208284031215610fa857600080fd5b8135610fb381610f80565b9392505050565b634e487b7160e01b600052604160045260246000fd5b601f8201601f1916810167ffffffffffffffff81118282101715610ff657610ff6610fba565b6040525050565b600067ffffffffffffffff83111561101757611017610fba565b60405161102e601f8501601f191660200182610fd0565b80915083815284848401111561104357600080fd5b83836020830137600060208583010152509392505050565b60006020828403121561106d57600080fd5b813567ffffffffffffffff81111561108457600080fd5b8201601f8101841361109557600080fd5b6110a484823560208401610ffd565b949350505050565b6000602082840312156110be57600080fd5b5035919050565b6000815180845260005b818110156110eb576020818501810151868301820152016110cf565b506000602082860101526020601f19601f83011685010191505092915050565b602081526000610fb360208301846110c5565b600067ffffffffffffffff82111561113857611138610fba565b5060051b60200190565b600082601f83011261115357600080fd5b813560206111608261111e565b60405161116d8282610fd0565b80915083815260208101915060208460051b87010193508684111561119157600080fd5b602086015b848110156111ad5780358352918301918301611196565b509695505050505050565b600082601f8301126111c957600080fd5b610fb383833560208501610ffd565b600080600080608085870312156111ee57600080fd5b6111f785610f3a565b9350602085013567ffffffffffffffff8082111561121457600080fd5b61122088838901611142565b9450604087013591508082111561123657600080fd5b61124288838901611142565b9350606087013591508082111561125857600080fd5b50611265878288016111b8565b91505092959194509250565b600080600080600060a0868803121561128957600080fd5b61129286610f3a565b94506112a060208701610f3a565b9350604086013567ffffffffffffffff808211156112bd57600080fd5b6112c989838a01611142565b945060608801359150808211156112df57600080fd5b6112eb89838a01611142565b9350608088013591508082111561130157600080fd5b5061130e888289016111b8565b9150509295509295909350565b6000806040838503121561132e57600080fd5b823567ffffffffffffffff8082111561134657600080fd5b818501915085601f83011261135a57600080fd5b813560206113678261111e565b6040516113748282610fd0565b83815260059390931b850182019282810191508984111561139457600080fd5b948201945b838610156113b9576113aa86610f3a565b82529482019490820190611399565b965050860135925050808211156113cf57600080fd5b506113dc85828601611142565b9150509250929050565b60008151808452602080850194506020840160005b83811015611417578151875295820195908201906001016113fb565b509495945050505050565b602081526000610fb360208301846113e6565b6000806000806080858703121561144b57600080fd5b61145485610f3a565b93506020850135925060408501359150606085013567ffffffffffffffff81111561147e57600080fd5b611265878288016111b8565b6000806040838503121561149d57600080fd5b6114a683610f3a565b9150602083013580151581146114bb57600080fd5b809150509250929050565b600080604083850312156114d957600080fd5b6114e283610f3a565b91506114f060208401610f3a565b90509250929050565b600080600080600060a0868803121561151157600080fd5b61151a86610f3a565b945061152860208701610f3a565b93506040860135925060608601359150608086013567ffffffffffffffff81111561155257600080fd5b61130e888289016111b8565b60006020828403121561157057600080fd5b610fb382610f3a565b600181811c9082168061158d57607f821691505b6020821081036115ad57634e487b7160e01b600052602260045260246000fd5b50919050565b6020808252602e908201527f455243313135353a2063616c6c6572206973206e6f7420746f6b656e206f776e60408201526d195c881bdc88185c1c1c9bdd995960921b606082015260800190565b634e487b7160e01b600052603260045260246000fd5b601f82111561165f576000816000526020600020601f850160051c810160208610156116405750805b601f850160051c820191505b8181101561099b5782815560010161164c565b505050565b815167ffffffffffffffff81111561167e5761167e610fba565b6116928161168c8454611579565b84611617565b602080601f8311600181146116c757600084156116af5750858301515b600019600386901b1c1916600185901b17855561099b565b600085815260208120601f198616915b828110156116f6578886015182559484019460019091019084016116d7565b50858210156117145787850151600019600388901b60f8161c191681555b5050505050600190811b01905550565b60208082526021908201527f455243313135353a206d696e7420746f20746865207a65726f206164647265736040820152607360f81b606082015260800190565b60208082526028908201527f455243313135353a2069647320616e6420616d6f756e7473206c656e677468206040820152670dad2e6dac2e8c6d60c31b606082015260800190565b808201808211156102f057634e487b7160e01b600052601160045260246000fd5b6040815260006117e160408301856113e6565b82810360208401526117f381856113e6565b95945050505050565b60208082526025908201527f455243313135353a207472616e7366657220746f20746865207a65726f206164604082015264647265737360d81b606082015260800190565b6020808252602a908201527f455243313135353a20696e73756666696369656e742062616c616e636520666f60408201526939103a3930b739b332b960b11b606082015260800190565b6001600160a01b0386811682528516602082015260a0604082018190526000906118b7908301866113e6565b82810360608401526118c981866113e6565b905082810360808401526118dd81856110c5565b98975050505050505050565b6000602082840312156118fb57600080fd5b8151610fb381610f80565b600060033d111561191f5760046000803e5060005160e01c5b90565b600060443d10156119305790565b6040516003193d81016004833e81513d67ffffffffffffffff816024840111818411171561196057505050505090565b82850191508151818111156119785750505050505090565b843d87010160208285010111156119925750505050505090565b6119a160208286010187610fd0565b509095945050505050565b60208082526028908201527f455243313135353a204552433131353552656365697665722072656a656374656040820152676420746f6b656e7360c01b606082015260800190565b6001600160a01b03868116825285166020820152604081018490526060810183905260a060808201819052600090611a2e908301846110c5565b97965050505050505056fea2646970667358221220374f5a1d456ad7275ddd05915eac91bfa39a72edc97798fdf884103a6701ad2d64736f6c63430008180033","linkReferences":{}},"methodIdentifiers":{"balanceOf(address,uint256)":"00fdd58e","balanceOfBatch(address[],uint256[])":"4e1273f4","isApprovedForAll(address,address)":"e985e9c5","mint(address,uint256,uint256,bytes)":"731133e9","mintBatch(address,uint256[],uint256[],bytes)":"1f7fdffa","owner()":"8da5cb5b","renounceOwnership()":"715018a6","safeBatchTransferFrom(address,address,uint256[],uint256[],bytes)":"2eb2c2d6","safeTransferFrom(address,address,uint256,uint256,bytes)":"f242432a","setApprovalForAll(address,bool)":"a22cb465","setURI(string)":"02fe5305","supportsInterface(bytes4)":"01ffc9a7","transferOwnership(address)":"f2fde38b","uri(uint256)":"0e89341c"},"id":2}