{"abi":[{"type":"constructor","inputs":[{"name":"_fee","type":"uint256","internalType":"uint256"},{"name":"_router","type":"address","internalType":"address"},{"name":"_link","type":"address","internalType":"address"},{"name":"_chainSelector","type":"uint64","internalType":"uint64"}],"stateMutability":"nonpayable"},{"type":"function","name":"calculateAmount","inputs":[{"name":"balance","type":"uint256","internalType":"uint256"},{"name":"percentage","type":"uint256","internalType":"uint256"}],"outputs":[{"name":"","type":"uint256","internalType":"uint256"}],"stateMutability":"pure"},{"type":"function","name":"ccipReceive","inputs":[{"name":"message","type":"tuple","internalType":"struct Client.Any2EVMMessage","components":[{"name":"messageId","type":"bytes32","internalType":"bytes32"},{"name":"sourceChainSelector","type":"uint64","internalType":"uint64"},{"name":"sender","type":"bytes","internalType":"bytes"},{"name":"data","type":"bytes","internalType":"bytes"},{"name":"destTokenAmounts","type":"tuple[]","internalType":"struct Client.EVMTokenAmount[]","components":[{"name":"token","type":"address","internalType":"address"},{"name":"amount","type":"uint256","internalType":"uint256"}]}]}],"outputs":[],"stateMutability":"nonpayable"},{"type":"function","name":"chainSelector","inputs":[],"outputs":[{"name":"","type":"uint64","internalType":"uint64"}],"stateMutability":"view"},{"type":"function","name":"deleteWill","inputs":[],"outputs":[],"stateMutability":"nonpayable"},{"type":"function","name":"execute","inputs":[{"name":"wills","type":"tuple[]","internalType":"struct MementoMori.Will[]","components":[{"name":"isActive","type":"bool","internalType":"bool"},{"name":"requestTime","type":"uint256","internalType":"uint256"},{"name":"cooldown","type":"uint256","internalType":"uint256"},{"name":"native","type":"tuple[]","internalType":"struct MementoMori.Native[]","components":[{"name":"beneficiaries","type":"address[]","internalType":"address[]"},{"name":"percentages","type":"uint8[]","internalType":"uint8[]"}]},{"name":"tokens","type":"tuple[]","internalType":"struct MementoMori.Token[]","components":[{"name":"contractAddress","type":"address","internalType":"address"},{"name":"beneficiaries","type":"address[]","internalType":"address[]"},{"name":"percentages","type":"uint8[]","internalType":"uint8[]"}]},{"name":"nfts","type":"tuple[]","internalType":"struct MementoMori.NFT[]","components":[{"name":"contractAddress","type":"address","internalType":"address"},{"name":"tokenIds","type":"uint256[]","internalType":"uint256[]"},{"name":"beneficiaries","type":"address[]","internalType":"address[]"}]},{"name":"erc1155s","type":"tuple[]","internalType":"struct MementoMori.ERC1155[]","components":[{"name":"contractAddress","type":"address","internalType":"address"},{"name":"tokenId","type":"uint256","internalType":"uint256"},{"name":"beneficiaries","type":"address[]","internalType":"address[]"},{"name":"percentages","type":"uint8[]","internalType":"uint8[]"}]},{"name":"executors","type":"address[]","internalType":"address[]"},{"name":"chainSelector","type":"uint64","internalType":"uint64"},{"name":"safe","type":"address","internalType":"address"},{"name":"xChainAddress","type":"address","internalType":"address"},{"name":"baseAddress","type":"address","internalType":"address"}]}],"outputs":[],"stateMutability":"nonpayable"},{"type":"function","name":"fee","inputs":[],"outputs":[{"name":"","type":"uint256","internalType":"uint256"}],"stateMutability":"view"},{"type":"function","name":"getBalance","inputs":[],"outputs":[{"name":"","type":"uint256","internalType":"uint256"}],"stateMutability":"view"},{"type":"function","name":"getRouter","inputs":[],"outputs":[{"name":"","type":"address","internalType":"address"}],"stateMutability":"view"},{"type":"function","name":"owner","inputs":[],"outputs":[{"name":"","type":"address","internalType":"address"}],"stateMutability":"view"},{"type":"function","name":"renounceOwnership","inputs":[],"outputs":[],"stateMutability":"nonpayable"},{"type":"function","name":"requestExecution","inputs":[{"name":"wills","type":"tuple[]","internalType":"struct MementoMori.Will[]","components":[{"name":"isActive","type":"bool","internalType":"bool"},{"name":"requestTime","type":"uint256","internalType":"uint256"},{"name":"cooldown","type":"uint256","internalType":"uint256"},{"name":"native","type":"tuple[]","internalType":"struct MementoMori.Native[]","components":[{"name":"beneficiaries","type":"address[]","internalType":"address[]"},{"name":"percentages","type":"uint8[]","internalType":"uint8[]"}]},{"name":"tokens","type":"tuple[]","internalType":"struct MementoMori.Token[]","components":[{"name":"contractAddress","type":"address","internalType":"address"},{"name":"beneficiaries","type":"address[]","internalType":"address[]"},{"name":"percentages","type":"uint8[]","internalType":"uint8[]"}]},{"name":"nfts","type":"tuple[]","internalType":"struct MementoMori.NFT[]","components":[{"name":"contractAddress","type":"address","internalType":"address"},{"name":"tokenIds","type":"uint256[]","internalType":"uint256[]"},{"name":"beneficiaries","type":"address[]","internalType":"address[]"}]},{"name":"erc1155s","type":"tuple[]","internalType":"struct MementoMori.ERC1155[]","components":[{"name":"contractAddress","type":"address","internalType":"address"},{"name":"tokenId","type":"uint256","internalType":"uint256"},{"name":"beneficiaries","type":"address[]","internalType":"address[]"},{"name":"percentages","type":"uint8[]","internalType":"uint8[]"}]},{"name":"executors","type":"address[]","internalType":"address[]"},{"name":"chainSelector","type":"uint64","internalType":"uint64"},{"name":"safe","type":"address","internalType":"address"},{"name":"xChainAddress","type":"address","internalType":"address"},{"name":"baseAddress","type":"address","internalType":"address"}]}],"outputs":[],"stateMutability":"payable"},{"type":"function","name":"saveWillHash","inputs":[{"name":"wills","type":"tuple[]","internalType":"struct MementoMori.Will[]","components":[{"name":"isActive","type":"bool","internalType":"bool"},{"name":"requestTime","type":"uint256","internalType":"uint256"},{"name":"cooldown","type":"uint256","internalType":"uint256"},{"name":"native","type":"tuple[]","internalType":"struct MementoMori.Native[]","components":[{"name":"beneficiaries","type":"address[]","internalType":"address[]"},{"name":"percentages","type":"uint8[]","internalType":"uint8[]"}]},{"name":"tokens","type":"tuple[]","internalType":"struct MementoMori.Token[]","components":[{"name":"contractAddress","type":"address","internalType":"address"},{"name":"beneficiaries","type":"address[]","internalType":"address[]"},{"name":"percentages","type":"uint8[]","internalType":"uint8[]"}]},{"name":"nfts","type":"tuple[]","internalType":"struct MementoMori.NFT[]","components":[{"name":"contractAddress","type":"address","internalType":"address"},{"name":"tokenIds","type":"uint256[]","internalType":"uint256[]"},{"name":"beneficiaries","type":"address[]","internalType":"address[]"}]},{"name":"erc1155s","type":"tuple[]","internalType":"struct MementoMori.ERC1155[]","components":[{"name":"contractAddress","type":"address","internalType":"address"},{"name":"tokenId","type":"uint256","internalType":"uint256"},{"name":"beneficiaries","type":"address[]","internalType":"address[]"},{"name":"percentages","type":"uint8[]","internalType":"uint8[]"}]},{"name":"executors","type":"address[]","internalType":"address[]"},{"name":"chainSelector","type":"uint64","internalType":"uint64"},{"name":"safe","type":"address","internalType":"address"},{"name":"xChainAddress","type":"address","internalType":"address"},{"name":"baseAddress","type":"address","internalType":"address"}]},{"name":"operationType","type":"uint256","internalType":"uint256"}],"outputs":[],"stateMutability":"payable"},{"type":"function","name":"supportsInterface","inputs":[{"name":"interfaceId","type":"bytes4","internalType":"bytes4"}],"outputs":[{"name":"","type":"bool","internalType":"bool"}],"stateMutability":"pure"},{"type":"function","name":"transferOwnership","inputs":[{"name":"newOwner","type":"address","internalType":"address"}],"outputs":[],"stateMutability":"nonpayable"},{"type":"function","name":"willHashes","inputs":[{"name":"","type":"address","internalType":"address"}],"outputs":[{"name":"","type":"bytes32","internalType":"bytes32"}],"stateMutability":"view"},{"type":"function","name":"withdraw","inputs":[{"name":"recipient","type":"address","internalType":"address payable"},{"name":"amount","type":"uint256","internalType":"uint256"}],"outputs":[],"stateMutability":"payable"},{"type":"event","name":"ExecutionCancelled","inputs":[{"name":"owner","type":"address","indexed":true,"internalType":"address"}],"anonymous":false},{"type":"event","name":"ExecutionRequested","inputs":[{"name":"owner","type":"address","indexed":true,"internalType":"address"}],"anonymous":false},{"type":"event","name":"MessageReceived","inputs":[{"name":"messageId","type":"bytes32","indexed":true,"internalType":"bytes32"},{"name":"sourceChainSelector","type":"uint64","indexed":true,"internalType":"uint64"},{"name":"sender","type":"address","indexed":false,"internalType":"address"},{"name":"message","type":"tuple","indexed":false,"internalType":"struct MementoMori.Will","components":[{"name":"isActive","type":"bool","internalType":"bool"},{"name":"requestTime","type":"uint256","internalType":"uint256"},{"name":"cooldown","type":"uint256","internalType":"uint256"},{"name":"native","type":"tuple[]","internalType":"struct MementoMori.Native[]","components":[{"name":"beneficiaries","type":"address[]","internalType":"address[]"},{"name":"percentages","type":"uint8[]","internalType":"uint8[]"}]},{"name":"tokens","type":"tuple[]","internalType":"struct MementoMori.Token[]","components":[{"name":"contractAddress","type":"address","internalType":"address"},{"name":"beneficiaries","type":"address[]","internalType":"address[]"},{"name":"percentages","type":"uint8[]","internalType":"uint8[]"}]},{"name":"nfts","type":"tuple[]","internalType":"struct MementoMori.NFT[]","components":[{"name":"contractAddress","type":"address","internalType":"address"},{"name":"tokenIds","type":"uint256[]","internalType":"uint256[]"},{"name":"beneficiaries","type":"address[]","internalType":"address[]"}]},{"name":"erc1155s","type":"tuple[]","internalType":"struct MementoMori.ERC1155[]","components":[{"name":"contractAddress","type":"address","internalType":"address"},{"name":"tokenId","type":"uint256","internalType":"uint256"},{"name":"beneficiaries","type":"address[]","internalType":"address[]"},{"name":"percentages","type":"uint8[]","internalType":"uint8[]"}]},{"name":"executors","type":"address[]","internalType":"address[]"},{"name":"chainSelector","type":"uint64","internalType":"uint64"},{"name":"safe","type":"address","internalType":"address"},{"name":"xChainAddress","type":"address","internalType":"address"},{"name":"baseAddress","type":"address","internalType":"address"}]}],"anonymous":false},{"type":"event","name":"MessageSent","inputs":[{"name":"messageId","type":"bytes32","indexed":true,"internalType":"bytes32"},{"name":"destinationChainSelector","type":"uint64","indexed":true,"internalType":"uint64"},{"name":"receiver","type":"address","indexed":false,"internalType":"address"},{"name":"will","type":"tuple","indexed":false,"internalType":"struct MementoMori.Will","components":[{"name":"isActive","type":"bool","internalType":"bool"},{"name":"requestTime","type":"uint256","internalType":"uint256"},{"name":"cooldown","type":"uint256","internalType":"uint256"},{"name":"native","type":"tuple[]","internalType":"struct MementoMori.Native[]","components":[{"name":"beneficiaries","type":"address[]","internalType":"address[]"},{"name":"percentages","type":"uint8[]","internalType":"uint8[]"}]},{"name":"tokens","type":"tuple[]","internalType":"struct MementoMori.Token[]","components":[{"name":"contractAddress","type":"address","internalType":"address"},{"name":"beneficiaries","type":"address[]","internalType":"address[]"},{"name":"percentages","type":"uint8[]","internalType":"uint8[]"}]},{"name":"nfts","type":"tuple[]","internalType":"struct MementoMori.NFT[]","components":[{"name":"contractAddress","type":"address","internalType":"address"},{"name":"tokenIds","type":"uint256[]","internalType":"uint256[]"},{"name":"beneficiaries","type":"address[]","internalType":"address[]"}]},{"name":"erc1155s","type":"tuple[]","internalType":"struct MementoMori.ERC1155[]","components":[{"name":"contractAddress","type":"address","internalType":"address"},{"name":"tokenId","type":"uint256","internalType":"uint256"},{"name":"beneficiaries","type":"address[]","internalType":"address[]"},{"name":"percentages","type":"uint8[]","internalType":"uint8[]"}]},{"name":"executors","type":"address[]","internalType":"address[]"},{"name":"chainSelector","type":"uint64","internalType":"uint64"},{"name":"safe","type":"address","internalType":"address"},{"name":"xChainAddress","type":"address","internalType":"address"},{"name":"baseAddress","type":"address","internalType":"address"}]},{"name":"feeToken","type":"address","indexed":false,"internalType":"address"},{"name":"fees","type":"uint256","indexed":false,"internalType":"uint256"}],"anonymous":false},{"type":"event","name":"OwnershipTransferred","inputs":[{"name":"previousOwner","type":"address","indexed":true,"internalType":"address"},{"name":"newOwner","type":"address","indexed":true,"internalType":"address"}],"anonymous":false},{"type":"event","name":"WillCreated","inputs":[{"name":"owner","type":"address","indexed":true,"internalType":"address"}],"anonymous":false},{"type":"event","name":"WillDeleted","inputs":[{"name":"owner","type":"address","indexed":true,"internalType":"address"}],"anonymous":false},{"type":"event","name":"WillExecuted","inputs":[{"name":"owner","type":"address","indexed":true,"internalType":"address"}],"anonymous":false},{"type":"event","name":"WillUpdated","inputs":[{"name":"owner","type":"address","indexed":true,"internalType":"address"}],"anonymous":false},{"type":"error","name":"InvalidRouter","inputs":[{"name":"router","type":"address","internalType":"address"}]},{"type":"error","name":"NotEnoughBalance","inputs":[{"name":"currentBalance","type":"uint256","internalType":"uint256"},{"name":"calculatedFees","type":"uint256","internalType":"uint256"}]}],"bytecode":{"object":"0x60a06040523480156200001157600080fd5b506040516200462238038062004622833981016040819052620000349162000142565b82848184846200004433620000d5565b600193909355600280546001600160a01b039384166001600160a01b0319909116179055600380546001600160401b03909416600160a01b026001600160e01b031990941691831691909117929092179091558116620000be576040516335fdcccd60e21b81526000600482015260240160405180910390fd5b6001600160a01b031660805250620001a492505050565b600080546001600160a01b038381166001600160a01b0319831681178455604051919092169283917f8be0079c531659141344cd1fd0a4f28419497f9722a3daafe3b4186f6b6457e09190a35050565b80516001600160a01b03811681146200013d57600080fd5b919050565b600080600080608085870312156200015957600080fd5b845193506200016b6020860162000125565b92506200017b6040860162000125565b60608601519092506001600160401b03811681146200019957600080fd5b939692955090935050565b60805161445b620001c7600039600081816102890152610531015261445b6000f3fe6080604052600436106100f35760003560e01c8063876fabaf1161008a578063ddca3f4311610059578063ddca3f43146102cd578063e2e4cc00146102e3578063f2fde38b146102f6578063f3fef3a31461031657600080fd5b8063876fabaf146102285780638da5cb5b14610248578063b0f479a11461027a578063cbcd5582146102ad57600080fd5b80636df5a5ab116100c65780636df5a5ab146101b3578063715018a6146101e05780637a87da8e146101f557806385572ffb1461020857600080fd5b806301ffc9a7146100f857806312065fe01461012d578063210879f4146101505780634e4bc84714610174575b600080fd5b34801561010457600080fd5b50610118610113366004612597565b610329565b60405190151581526020015b60405180910390f35b34801561013957600080fd5b50610142610360565b604051908152602001610124565b34801561015c57600080fd5b5061017233600090815260046020526040812055565b005b34801561018057600080fd5b5060035461019b90600160a01b90046001600160401b031681565b6040516001600160401b039091168152602001610124565b3480156101bf57600080fd5b506101426101ce3660046125ed565b60046020526000908152604090205481565b3480156101ec57600080fd5b506101726103d2565b610172610203366004612655565b6103e6565b34801561021457600080fd5b506101726102233660046126a0565b610526565b34801561023457600080fd5b506101726102433660046126da565b610585565b34801561025457600080fd5b506000546001600160a01b03165b6040516001600160a01b039091168152602001610124565b34801561028657600080fd5b507f0000000000000000000000000000000000000000000000000000000000000000610262565b3480156102b957600080fd5b506101426102c836600461271b565b611385565b3480156102d957600080fd5b5061014260015481565b6101726102f13660046126da565b6113b4565b34801561030257600080fd5b506101726103113660046125ed565b61154a565b61017261032436600461273d565b6115c0565b60006001600160e01b031982166385572ffb60e01b148061035a57506001600160e01b031982166301ffc9a760e01b145b92915050565b6003546040516370a0823160e01b81523060048201526000916001600160a01b0316906370a0823190602401602060405180830381865afa1580156103a9573d6000803e3d6000fd5b505050506040513d601f19601f820116820180604052508101906103cd9190612769565b905090565b6103da611603565b6103e4600061165d565b565b60015434101561043d5760405162461bcd60e51b815260206004820152601e60248201527f76616c7565206d7573742062652067726561746572207468616e20666565000060448201526064015b60405180910390fd5b60008383604051602001610452929190612cee565b60408051601f198184030181529181528151602092830120336000908152600490935290822081905591508290036104b45760405133907feeb70606d0471753bc0f18914e842c40fad1d77501bfb2c7c90df37f7cc1374f90600090a2610520565b816001036104ec5760405133907f9cb1134a02271a4012c75713868b85813f0d6462d1ed11b6db672c2ab192784e90600090a2610520565b816002036105205760405133907f6f4cacb1de3e514e704e0223fb68607d87ce4f0e2c56ea71063e0cbe656d0e1790600090a25b50505050565b336001600160a01b037f00000000000000000000000000000000000000000000000000000000000000001614610571576040516335fdcccd60e21b8152336004820152602401610434565b61058261057d82612f82565b6116ad565b50565b818160008181106105985761059861302e565b90506020028101906105aa9190613044565b6000805b6105bb60e0840184613065565b9050811015610616576105d160e0840184613065565b828181106105e1576105e161302e565b90506020020160208101906105f691906125ed565b6001600160a01b0316330361060e5760019150610616565b6001016105ae565b506001811515146106695760405162461bcd60e51b815260206004820152601e60248201527f596f7520617265206e6f7420612077696c6c2062656e656669636961727900006044820152606401610434565b60008484600081811061067e5761067e61302e565b90506020028101906106909190613044565b61069990613591565b9050600460008261012001516001600160a01b03166001600160a01b031681526020019081526020016000205485856040516020016106d9929190612cee565b60405160208183030381529060405280519060200120146107315760405162461bcd60e51b81526020600482015260126024820152710d0c2e6d0cae640c8dedc4ee840dac2e8c6d60731b6044820152606401610434565b6003546101008201516001600160401b03908116600160a01b909204161461079b5760405162461bcd60e51b815260206004820152601b60248201527f636861696e2073656c6563746f727320646f6e2774206d6174636800000000006044820152606401610434565b604081015160208201516107af90426136f0565b10156107fd5760405162461bcd60e51b815260206004820152601b60248201527f457865637574696f6e207374696c6c20696e20636f6f6c646f776e00000000006044820152606401610434565b60808101515115610ae05760005b816080015151811015610ade576000826080015182815181106108305761083061302e565b6020908102919091010151516101208401516040516370a0823160e01b81526001600160a01b0391821660048201529116906370a0823190602401602060405180830381865afa158015610888573d6000803e3d6000fd5b505050506040513d601f19601f820116820180604052508101906108ac9190612769565b90506000836080015183815181106108c6576108c661302e565b60200260200101516020015151826108de9190613703565b1115610ad55760005b836080015183815181106108fd576108fd61302e565b60200260200101516020015151811015610ad357600061095a838660800151868151811061092d5761092d61302e565b602002602001015160400151848151811061094a5761094a61302e565b602002602001015160ff16611385565b90508461012001516001600160a01b031663468721a7866080015186815181106109865761098661302e565b6020026020010151600001516000886080015188815181106109aa576109aa61302e565b60200260200101516020015186815181106109c7576109c761302e565b6020026020010151856040516024016109f59291906001600160a01b03929092168252602082015260400190565b60408051601f198184030181529181526020820180516001600160e01b031663a9059cbb60e01b1790525160e085901b6001600160e01b0319168152610a439392919060009060040161378d565b6020604051808303816000875af1158015610a62573d6000803e3d6000fd5b505050506040513d601f19601f82011682018060405250810190610a8691906137d7565b610aca5760405162461bcd60e51b8152602060048201526015602482015274151bdad95b881d1c985b9cd9995c8819985a5b1959605a1b6044820152606401610434565b506001016108e7565b505b5060010161080b565b505b60a08101515115610dd05760005b8160a0015151811015610dce5760005b8260a001518281518110610b1457610b1461302e565b60200260200101516020015151811015610dc5578261012001516001600160a01b03168360a001518381518110610b4d57610b4d61302e565b6020026020010151600001516001600160a01b0316636352211e8560a001518581518110610b7d57610b7d61302e565b6020026020010151602001518481518110610b9a57610b9a61302e565b60200260200101516040518263ffffffff1660e01b8152600401610bc091815260200190565b602060405180830381865afa158015610bdd573d6000803e3d6000fd5b505050506040513d601f19601f82011682018060405250810190610c0191906137ff565b6001600160a01b031603610dbd578261012001516001600160a01b031663468721a78460a001518481518110610c3957610c3961302e565b60200260200101516000015160008661012001518760a001518781518110610c6357610c6361302e565b6020026020010151604001518681518110610c8057610c8061302e565b60200260200101518860a001518781518110610c9e57610c9e61302e565b6020026020010151602001518781518110610cbb57610cbb61302e565b60209081029190910101516040516001600160a01b039384166024820152929091166044830152606482015260840160408051601f198184030181529181526020820180516001600160e01b0316632142170760e11b1790525160e085901b6001600160e01b0319168152610d389392919060009060040161378d565b6020604051808303816000875af1158015610d57573d6000803e3d6000fd5b505050506040513d601f19601f82011682018060405250810190610d7b91906137d7565b610dbd5760405162461bcd60e51b8152602060048201526013602482015272139195081d1c985b9cd9995c8819985a5b1959606a1b6044820152606401610434565b600101610afe565b50600101610aee565b505b60c0810151511561110c5760005b8160c001515181101561110a5760008260c001518281518110610e0357610e0361302e565b6020026020010151600001516001600160a01b031662fdd58e8461012001518560c001518581518110610e3857610e3861302e565b6020026020010151602001516040518363ffffffff1660e01b8152600401610e759291906001600160a01b03929092168252602082015260400190565b602060405180830381865afa158015610e92573d6000803e3d6000fd5b505050506040513d601f19601f82011682018060405250810190610eb69190612769565b905060008360c001518381518110610ed057610ed061302e565b6020026020010151604001515182610ee89190613703565b11156111015760005b8360c001518381518110610f0757610f0761302e565b602002602001015160400151518110156110ff5760006001831115610f6457610f5d838660c001518681518110610f4057610f4061302e565b602002602001015160600151848151811061094a5761094a61302e565b9050610f70565b82600103610f70575060015b8461012001516001600160a01b031663468721a78660c001518681518110610f9a57610f9a61302e565b60200260200101516000015160008861012001518960c001518981518110610fc457610fc461302e565b6020026020010151604001518781518110610fe157610fe161302e565b60200260200101518a60c001518a81518110610fff57610fff61302e565b6020026020010151602001518760405160240161101f949392919061381c565b60408051601f198184030181529181526020820180516001600160e01b0316637921219560e11b1790525160e085901b6001600160e01b031916815261106d9392919060009060040161378d565b6020604051808303816000875af115801561108c573d6000803e3d6000fd5b505050506040513d601f19601f820116820180604052508101906110b091906137d7565b6110f65760405162461bcd60e51b8152602060048201526017602482015276195c98cc4c4d4d481d1c985b9cd9995c8819985a5b1959604a1b6044820152606401610434565b50600101610ef1565b505b50600101610dde565b505b6101208101516001600160a01b03163160005b82606001516000815181106111365761113661302e565b602002602001015160000151518110156112885760006111848385606001516000815181106111675761116761302e565b602002602001015160200151848151811061094a5761094a61302e565b90508361012001516001600160a01b031663468721a785606001516000815181106111b1576111b161302e565b60200260200101516000015184815181106111ce576111ce61302e565b60200260200101518360006040518463ffffffff1660e01b81526004016111f79392919061385f565b6020604051808303816000875af1158015611216573d6000803e3d6000fd5b505050506040513d601f19601f8201168201806040525081019061123a91906137d7565b61127f5760405162461bcd60e51b815260206004820152601660248201527513985d1a5d99481d1c985b9cd9995c8819985a5b195960521b6044820152606401610434565b5060010161111f565b5060018511156113425760015b85811015611340576113378787838181106112b2576112b261302e565b90506020028101906112c49190613044565b6112d79061012081019061010001613892565b8888848181106112e9576112e961302e565b90506020028101906112fb9190613044565b61130e90610160810190610140016125ed565b8989858181106113205761132061302e565b90506020028101906113329190613044565b611745565b50600101611295565b505b8161012001516001600160a01b03167f16346f65adf8d84422b57ad74cb5607bf6c9e55c3c1fea66344057e5bba8a7ee60405160405180910390a2505050505050565b6000806113938360646138af565b90506127106113a282866138af565b6113ac9190613703565b949350505050565b818160008181106113c7576113c761302e565b90506020028101906113d99190613044565b6000805b6113ea60e0840184613065565b90508110156114455761140060e0840184613065565b828181106114105761141061302e565b905060200201602081019061142591906125ed565b6001600160a01b0316330361143d5760019150611445565b6001016113dd565b506001811515146114985760405162461bcd60e51b815260206004820152601e60248201527f596f7520617265206e6f7420612077696c6c2062656e656669636961727900006044820152606401610434565b600084846040516020016114ad929190612cee565b60408051601f1981840301815291815281516020928301203360009081526004909352908220819055915085908590816114e9576114e961302e565b90506020028101906114fb9190613044565b61150e90610180810190610160016125ed565b6001600160a01b03167f74d50b0289278fa7db21584bc3d033fec675e475368963bda7a976558e6307d960405160405180910390a25050505050565b611552611603565b6001600160a01b0381166115b75760405162461bcd60e51b815260206004820152602660248201527f4f776e61626c653a206e6577206f776e657220697320746865207a65726f206160448201526564647265737360d01b6064820152608401610434565b6105828161165d565b6115c8611603565b6040516001600160a01b0383169082156108fc029083906000818181858888f193505050501580156115fe573d6000803e3d6000fd5b505050565b6000546001600160a01b031633146103e45760405162461bcd60e51b815260206004820181905260248201527f4f776e61626c653a2063616c6c6572206973206e6f7420746865206f776e65726044820152606401610434565b600080546001600160a01b038381166001600160a01b0319831681178455604051919092169283917f8be0079c531659141344cd1fd0a4f28419497f9722a3daafe3b4186f6b6457e09190a35050565b600081606001518060200190518101906116c79190613db4565b825160208085015160408601518051949550929390926000926116ef928201810191016137ff565b90506116fa84611b2d565b816001600160401b0316837f1fe6b06416e8cb4498cad30c844ac42ebc36c5d99eefb674ecd0adb69018faf483876040516117369291906141cf565b60405180910390a35050505050565b6040805160a081019091526001600160a01b03831660c082015260009081908060e0810160405160208183030381529060405281526020018460405160200161178e9190614302565b60408051601f19818403018152919052815260200160006040519080825280602002602001820160405280156117ea57816020015b60408051808201909152600080825260208201528152602001906001900390816117c35790505b5081526003546001600160a01b031660208083019190915260408051808201825262030d4080825260009184019182528251602481019190915290511515604480830191909152825180830390910181526064909101825291820180516001600160e01b03166397a657c960e01b179052909101526002546040516320487ded60e01b81529192506000916001600160a01b03909116906320487ded906118979089908690600401614315565b602060405180830381865afa1580156118b4573d6000803e3d6000fd5b505050506040513d601f19601f820116820180604052508101906118d89190612769565b6003546040516370a0823160e01b81523060048201529192506001600160a01b0316906370a0823190602401602060405180830381865afa158015611921573d6000803e3d6000fd5b505050506040513d601f19601f820116820180604052508101906119459190612769565b8111156119dc576003546040516370a0823160e01b81523060048201526001600160a01b03909116906370a0823190602401602060405180830381865afa158015611994573d6000803e3d6000fd5b505050506040513d601f19601f820116820180604052508101906119b89190612769565b604051634787a10360e11b8152600481019190915260248101829052604401610434565b60035460025460405163095ea7b360e01b81526001600160a01b0391821660048201526024810184905291169063095ea7b3906044016020604051808303816000875af1158015611a31573d6000803e3d6000fd5b505050506040513d601f19601f82011682018060405250810190611a5591906137d7565b506002546040516396f4e9f960e01b81526001600160a01b03909116906396f4e9f990611a889089908690600401614315565b6020604051808303816000875af1158015611aa7573d6000803e3d6000fd5b505050506040513d601f19601f82011682018060405250810190611acb9190612769565b6003546040519194506001600160401b0388169185917f69125e43b7abfc1fa9365749da93c3fdb8210eee6453979d728f5988b4a5bfed91611b1c918a918a916001600160a01b03169088906143f1565b60405180910390a350509392505050565b60808101515115611de35760005b816080015151811015611de157600082608001518281518110611b6057611b6061302e565b6020908102919091010151516101208401516040516370a0823160e01b81526001600160a01b0391821660048201529116906370a0823190602401602060405180830381865afa158015611bb8573d6000803e3d6000fd5b505050506040513d601f19601f82011682018060405250810190611bdc9190612769565b9050600083608001518381518110611bf657611bf661302e565b6020026020010151602001515182611c0e9190613703565b1115611dd85760005b83608001518381518110611c2d57611c2d61302e565b60200260200101516020015151811015611dd6576000611c5d838660800151868151811061092d5761092d61302e565b90508461012001516001600160a01b031663468721a786608001518681518110611c8957611c8961302e565b602002602001015160000151600088608001518881518110611cad57611cad61302e565b6020026020010151602001518681518110611cca57611cca61302e565b602002602001015185604051602401611cf89291906001600160a01b03929092168252602082015260400190565b60408051601f198184030181529181526020820180516001600160e01b031663a9059cbb60e01b1790525160e085901b6001600160e01b0319168152611d469392919060009060040161378d565b6020604051808303816000875af1158015611d65573d6000803e3d6000fd5b505050506040513d601f19601f82011682018060405250810190611d8991906137d7565b611dcd5760405162461bcd60e51b8152602060048201526015602482015274151bdad95b881d1c985b9cd9995c8819985a5b1959605a1b6044820152606401610434565b50600101611c17565b505b50600101611b3b565b505b60a081015151156120d95760005b8160a00151518110156120d75760008260a001518281518110611e1657611e1661302e565b602002602001015160000151905060005b8360a001518381518110611e3d57611e3d61302e565b602002602001015160200151518110156120cd578361012001516001600160a01b0316826001600160a01b0316636352211e8660a001518681518110611e8557611e8561302e565b6020026020010151602001518481518110611ea257611ea261302e565b60200260200101516040518263ffffffff1660e01b8152600401611ec891815260200190565b602060405180830381865afa158015611ee5573d6000803e3d6000fd5b505050506040513d601f19601f82011682018060405250810190611f0991906137ff565b6001600160a01b0316036120c5578361012001516001600160a01b031663468721a78560a001518581518110611f4157611f4161302e565b60200260200101516000015160008761012001518860a001518881518110611f6b57611f6b61302e565b6020026020010151604001518681518110611f8857611f8861302e565b60200260200101518960a001518781518110611fa657611fa661302e565b6020026020010151602001518781518110611fc357611fc361302e565b60209081029190910101516040516001600160a01b039384166024820152929091166044830152606482015260840160408051601f198184030181529181526020820180516001600160e01b0316632142170760e11b1790525160e085901b6001600160e01b03191681526120409392919060009060040161378d565b6020604051808303816000875af115801561205f573d6000803e3d6000fd5b505050506040513d601f19601f8201168201806040525081019061208391906137d7565b6120c55760405162461bcd60e51b8152602060048201526013602482015272139195081d1c985b9cd9995c8819985a5b1959606a1b6044820152606401610434565b600101611e27565b5050600101611df1565b505b60c081015151156123f85760005b8160c00151518110156123f65760008260c00151828151811061210c5761210c61302e565b6020026020010151600001516001600160a01b031662fdd58e8461012001518560c0015185815181106121415761214161302e565b6020026020010151602001516040518363ffffffff1660e01b815260040161217e9291906001600160a01b03929092168252602082015260400190565b602060405180830381865afa15801561219b573d6000803e3d6000fd5b505050506040513d601f19601f820116820180604052508101906121bf9190612769565b905060008360c0015183815181106121d9576121d961302e565b60200260200101516040015151826121f19190613703565b11156123ed5760005b8360c0015183815181106122105761221061302e565b602002602001015160400151518110156123eb576000600183111561225057612249838660c001518681518110610f4057610f4061302e565b905061225c565b8260010361225c575060015b8461012001516001600160a01b031663468721a78660c0015186815181106122865761228661302e565b60200260200101516000015160008861012001518960c0015189815181106122b0576122b061302e565b60200260200101516040015187815181106122cd576122cd61302e565b60200260200101518a60c001518a815181106122eb576122eb61302e565b6020026020010151602001518760405160240161230b949392919061381c565b60408051601f198184030181529181526020820180516001600160e01b0316637921219560e11b1790525160e085901b6001600160e01b03191681526123599392919060009060040161378d565b6020604051808303816000875af1158015612378573d6000803e3d6000fd5b505050506040513d601f19601f8201168201806040525081019061239c91906137d7565b6123e25760405162461bcd60e51b8152602060048201526017602482015276195c98cc4c4d4d481d1c985b9cd9995c8819985a5b1959604a1b6044820152606401610434565b506001016121fa565b505b506001016120e7565b505b6101208101516001600160a01b03163160005b82606001516000815181106124225761242261302e565b602002602001015160000151518110156125575760006124538385606001516000815181106111675761116761302e565b90508361012001516001600160a01b031663468721a785606001516000815181106124805761248061302e565b602002602001015160000151848151811061249d5761249d61302e565b60200260200101518360006040518463ffffffff1660e01b81526004016124c69392919061385f565b6020604051808303816000875af11580156124e5573d6000803e3d6000fd5b505050506040513d601f19601f8201168201806040525081019061250991906137d7565b61254e5760405162461bcd60e51b815260206004820152601660248201527513985d1a5d99481d1c985b9cd9995c8819985a5b195960521b6044820152606401610434565b5060010161240b565b508161012001516001600160a01b03167f16346f65adf8d84422b57ad74cb5607bf6c9e55c3c1fea66344057e5bba8a7ee60405160405180910390a25050565b6000602082840312156125a957600080fd5b81356001600160e01b0319811681146125c157600080fd5b9392505050565b6001600160a01b038116811461058257600080fd5b80356125e8816125c8565b919050565b6000602082840312156125ff57600080fd5b81356125c1816125c8565b60008083601f84011261261c57600080fd5b5081356001600160401b0381111561263357600080fd5b6020830191508360208260051b850101111561264e57600080fd5b9250929050565b60008060006040848603121561266a57600080fd5b83356001600160401b0381111561268057600080fd5b61268c8682870161260a565b909790965060209590950135949350505050565b6000602082840312156126b257600080fd5b81356001600160401b038111156126c857600080fd5b820160a081850312156125c157600080fd5b600080602083850312156126ed57600080fd5b82356001600160401b0381111561270357600080fd5b61270f8582860161260a565b90969095509350505050565b6000806040838503121561272e57600080fd5b50508035926020909101359150565b6000806040838503121561275057600080fd5b823561275b816125c8565b946020939093013593505050565b60006020828403121561277b57600080fd5b5051919050565b801515811461058257600080fd5b80356125e881612782565b6000808335601e198436030181126127b257600080fd5b83016020810192503590506001600160401b038111156127d157600080fd5b8060051b360382131561264e57600080fd5b8183526000602080850194508260005b85811015612821578135612806816125c8565b6001600160a01b0316875295820195908201906001016127f3565b509495945050505050565b60ff8116811461058257600080fd5b8183526000602080850194508260005b8581101561282157813561285e8161282c565b60ff168752958201959082019060010161284b565b60008383855260208086019550808560051b830101846000805b8881101561290957858403601f19018a52823536899003603e190181126128b2578283fd5b880160406128c0828061279b565b8288526128d083890182846127e3565b925050506128e08783018361279b565b9250868203888801526128f482848361283b565b9c88019c96505050928501925060010161288d565b509198975050505050505050565b60008235605e1983360301811261292d57600080fd5b90910192915050565b60008383855260208086019550808560051b8301018460005b878110156129dc57848303601f1901895261296a8288612917565b60608135612977816125c8565b6001600160a01b0316855261298e8287018361279b565b82888801526129a083880182846127e3565b9250505060406129b28184018461279b565b9350868303828801526129c683858361283b565b9c88019c9650505092850192505060010161294f565b5090979650505050505050565b818352602080840193600091600585811b830182018585805b89811015612aac57868403601f19018b52612a1d838a612917565b60608135612a2a816125c8565b6001600160a01b03168652612a418289018361279b565b878a018390529187018290526080916001600160fb1b03811115612a63578586fd5b881b808289850137870190506040612a7d8482018561279b565b94508389840301828a0152612a9584840186836127e3565b9f8b019f9850505094880194505050600101612a02565b50919998505050505050505050565b60008383855260208086019550808560051b830101846000805b8881101561290957858403601f19018a52823536899003607e19018112612afa578283fd5b880160808135612b09816125c8565b6001600160a01b0316865281870135878701526040612b2a8184018461279b565b83838a0152612b3c848a0182846127e3565b93505050506060612b4f8184018461279b565b935087830382890152612b6383858361283b565b9d89019d97505050938601935050600101612ad5565b6001600160401b038116811461058257600080fd5b80356125e881612b79565b6000610180612bb184612bab85612790565b15159052565b6020830135602085015260408301356040850152612bd2606084018461279b565b826060870152612be58387018284612873565b92505050612bf6608084018461279b565b8583036080870152612c09838284612936565b92505050612c1a60a084018461279b565b85830360a0870152612c2d8382846129e9565b92505050612c3e60c084018461279b565b85830360c0870152612c51838284612abb565b92505050612c6260e084018461279b565b85830360e0870152612c758382846127e3565b92505050610100612c87818501612b8e565b6001600160401b031690850152610120612ca28482016125dd565b6001600160a01b031690850152610140612cbd8482016125dd565b6001600160a01b031690850152610160612cd88482016125dd565b6001600160a01b03169401939093525090919050565b60208082528181018390526000906040600585901b840181019084018684805b88811015612d5357878503603f190184528235368b900361017e19018112612d34578283fd5b612d40868c8301612b99565b9550509285019291850191600101612d0e565b509298975050505050505050565b634e487b7160e01b600052604160045260246000fd5b604080519081016001600160401b0381118282101715612d9957612d99612d61565b60405290565b60405160a081016001600160401b0381118282101715612d9957612d99612d61565b604051606081016001600160401b0381118282101715612d9957612d99612d61565b604051608081016001600160401b0381118282101715612d9957612d99612d61565b60405161018081016001600160401b0381118282101715612d9957612d99612d61565b604051601f8201601f191681016001600160401b0381118282101715612e5057612e50612d61565b604052919050565b600082601f830112612e6957600080fd5b81356001600160401b03811115612e8257612e82612d61565b612e95601f8201601f1916602001612e28565b818152846020838601011115612eaa57600080fd5b816020850160208301376000918101602001919091529392505050565b60006001600160401b03821115612ee057612ee0612d61565b5060051b60200190565b600082601f830112612efb57600080fd5b81356020612f10612f0b83612ec7565b612e28565b82815260069290921b84018101918181019086841115612f2f57600080fd5b8286015b84811015612f775760408189031215612f4c5760008081fd5b612f54612d77565b8135612f5f816125c8565b81528185013585820152835291830191604001612f33565b509695505050505050565b600060a08236031215612f9457600080fd5b612f9c612d9f565b82358152612fac60208401612b8e565b602082015260408301356001600160401b0380821115612fcb57600080fd5b612fd736838701612e58565b60408401526060850135915080821115612ff057600080fd5b612ffc36838701612e58565b6060840152608085013591508082111561301557600080fd5b5061302236828601612eea565b60808301525092915050565b634e487b7160e01b600052603260045260246000fd5b6000823561017e1983360301811261305b57600080fd5b9190910192915050565b6000808335601e1984360301811261307c57600080fd5b8301803591506001600160401b0382111561309657600080fd5b6020019150600581901b360382131561264e57600080fd5b600082601f8301126130bf57600080fd5b813560206130cf612f0b83612ec7565b8083825260208201915060208460051b8701019350868411156130f157600080fd5b602086015b84811015612f77578035613109816125c8565b83529183019183016130f6565b600082601f83011261312757600080fd5b81356020613137612f0b83612ec7565b8083825260208201915060208460051b87010193508684111561315957600080fd5b602086015b84811015612f775780356131718161282c565b835291830191830161315e565b600082601f83011261318f57600080fd5b8135602061319f612f0b83612ec7565b82815260059290921b840181019181810190868411156131be57600080fd5b8286015b84811015612f775780356001600160401b03808211156131e25760008081fd5b908801906040828b03601f19018113156131fc5760008081fd5b613204612d77565b87840135838111156132165760008081fd5b6132248d8a838801016130ae565b82525090830135908282111561323a5760008081fd5b6132488c8984870101613116565b8189015286525050509183019183016131c2565b600082601f83011261326d57600080fd5b8135602061327d612f0b83612ec7565b82815260059290921b8401810191818101908684111561329c57600080fd5b8286015b84811015612f775780356001600160401b03808211156132c05760008081fd5b908801906060828b03601f19018113156132da5760008081fd5b6132e2612dc1565b878401356132ef816125c8565b8152604084810135848111156133055760008081fd5b6133138e8b838901016130ae565b838b01525091840135918383111561332b5760008081fd5b6133398d8a85880101613116565b9082015286525050509183019183016132a0565b600082601f83011261335e57600080fd5b8135602061336e612f0b83612ec7565b82815260059290921b8401810191818101908684111561338d57600080fd5b8286015b84811015612f775780356001600160401b03808211156133b057600080fd5b908801906060828b03601f190112156133c95760008081fd5b6133d1612dc1565b868301356133de816125c8565b8152604083810135838111156133f45760008081fd5b8401603f81018d136134065760008081fd5b88810135613416612f0b82612ec7565b81815260059190911b82018301908a8101908f8311156134365760008081fd5b928401925b828410156134545783358252928b0192908b019061343b565b858c015250505060608401358381111561346e5760008081fd5b61347c8d8a838801016130ae565b918301919091525085525050918301918301613391565b600082601f8301126134a457600080fd5b813560206134b4612f0b83612ec7565b82815260059290921b840181019181810190868411156134d357600080fd5b8286015b84811015612f775780356001600160401b03808211156134f75760008081fd5b908801906080828b03601f19018113156135115760008081fd5b613519612de3565b87840135613526816125c8565b815260408481013589830152606080860135858111156135465760008081fd5b6135548f8c838a01016130ae565b848401525092850135928484111561356e57600091508182fd5b61357c8e8b86890101613116565b908301525086525050509183019183016134d7565b600061018082360312156135a457600080fd5b6135ac612e05565b6135b583612790565b8152602083013560208201526040830135604082015260608301356001600160401b03808211156135e557600080fd5b6135f13683870161317e565b6060840152608085013591508082111561360a57600080fd5b6136163683870161325c565b608084015260a085013591508082111561362f57600080fd5b61363b3683870161334d565b60a084015260c085013591508082111561365457600080fd5b61366036838701613493565b60c084015260e085013591508082111561367957600080fd5b50613686368286016130ae565b60e08301525061010061369a818501612b8e565b908201526101206136ac8482016125dd565b908201526101406136be8482016125dd565b908201526101606136d08482016125dd565b9082015292915050565b634e487b7160e01b600052601160045260246000fd5b8181038181111561035a5761035a6136da565b60008261372057634e487b7160e01b600052601260045260246000fd5b500490565b6000815180845260005b8181101561374b5760208185018101518683018201520161372f565b506000602082860101526020601f19601f83011685010191505092915050565b6002811061378957634e487b7160e01b600052602160045260246000fd5b9052565b60018060a01b03851681528360208201526080604082015260006137b46080830185613725565b90506137c3606083018461376b565b95945050505050565b80516125e881612782565b6000602082840312156137e957600080fd5b81516125c181612782565b80516125e8816125c8565b60006020828403121561381157600080fd5b81516125c1816125c8565b6001600160a01b0394851681529290931660208301526040820152606081019190915260a06080820181905260029082015261060f60f31b60c082015260e00190565b6001600160a01b03841681526020810183905260806040820181905260009082015260a081016113ac606083018461376b565b6000602082840312156138a457600080fd5b81356125c181612b79565b808202811582820484141761035a5761035a6136da565b600082601f8301126138d757600080fd5b815160206138e7612f0b83612ec7565b8083825260208201915060208460051b87010193508684111561390957600080fd5b602086015b84811015612f77578051613921816125c8565b835291830191830161390e565b600082601f83011261393f57600080fd5b8151602061394f612f0b83612ec7565b8083825260208201915060208460051b87010193508684111561397157600080fd5b602086015b84811015612f775780516139898161282c565b8352918301918301613976565b600082601f8301126139a757600080fd5b815160206139b7612f0b83612ec7565b82815260059290921b840181019181810190868411156139d657600080fd5b8286015b84811015612f775780516001600160401b03808211156139fa5760008081fd5b908801906040828b03601f1901811315613a145760008081fd5b613a1c612d77565b8784015183811115613a2e5760008081fd5b613a3c8d8a838801016138c6565b825250908301519082821115613a525760008081fd5b613a608c898487010161392e565b8189015286525050509183019183016139da565b600082601f830112613a8557600080fd5b81516020613a95612f0b83612ec7565b82815260059290921b84018101918181019086841115613ab457600080fd5b8286015b84811015612f775780516001600160401b0380821115613ad85760008081fd5b908801906060828b03601f1901811315613af25760008081fd5b613afa612dc1565b87840151613b07816125c8565b815260408481015184811115613b1d5760008081fd5b613b2b8e8b838901016138c6565b838b015250918401519183831115613b435760008081fd5b613b518d8a8588010161392e565b908201528652505050918301918301613ab8565b600082601f830112613b7657600080fd5b81516020613b86612f0b83612ec7565b82815260059290921b84018101918181019086841115613ba557600080fd5b8286015b84811015612f775780516001600160401b0380821115613bc857600080fd5b908801906060828b03601f19011215613be15760008081fd5b613be9612dc1565b86830151613bf6816125c8565b815260408381015183811115613c0c5760008081fd5b8401603f81018d13613c1e5760008081fd5b88810151613c2e612f0b82612ec7565b81815260059190911b82018301908a8101908f831115613c4e5760008081fd5b928401925b82841015613c6c5783518252928b0192908b0190613c53565b858c0152505050606084015183811115613c865760008081fd5b613c948d8a838801016138c6565b918301919091525085525050918301918301613ba9565b600082601f830112613cbc57600080fd5b81516020613ccc612f0b83612ec7565b82815260059290921b84018101918181019086841115613ceb57600080fd5b8286015b84811015612f775780516001600160401b0380821115613d0f5760008081fd5b908801906080828b03601f1901811315613d295760008081fd5b613d31612de3565b87840151613d3e816125c8565b81526040848101518983015260608086015185811115613d5e5760008081fd5b613d6c8f8c838a01016138c6565b8484015250928501519284841115613d8657600091508182fd5b613d948e8b8689010161392e565b90830152508652505050918301918301613cef565b80516125e881612b79565b600060208284031215613dc657600080fd5b81516001600160401b0380821115613ddd57600080fd5b908301906101808286031215613df257600080fd5b613dfa612e05565b613e03836137cc565b81526020830151602082015260408301516040820152606083015182811115613e2b57600080fd5b613e3787828601613996565b606083015250608083015182811115613e4f57600080fd5b613e5b87828601613a74565b60808301525060a083015182811115613e7357600080fd5b613e7f87828601613b65565b60a08301525060c083015182811115613e9757600080fd5b613ea387828601613cab565b60c08301525060e083015182811115613ebb57600080fd5b613ec7878286016138c6565b60e0830152506101009150613edd828401613da9565b828201526101209150613ef18284016137f4565b828201526101409150613f058284016137f4565b828201526101609150613f198284016137f4565b91810191909152949350505050565b60008151808452602080850194506020840160005b838110156128215781516001600160a01b031687529582019590820190600101613f3d565b60008151808452602080850194506020840160005b8381101561282157815160ff1687529582019590820190600101613f77565b600082825180855260208086019550808260051b84010181860160005b848110156129dc57601f19868403018952815160408151818652613fd982870182613f28565b91505085820151915084810386860152613ff38183613f62565b9a86019a9450505090830190600101613fb3565b600082825180855260208086019550808260051b84010181860160005b848110156129dc57858303601f19018952815180516001600160a01b031684528481015160608686018190529061405d82870182613f28565b9150506040808301519250858203818701525061407a8183613f62565b9a86019a9450505090830190600101614024565b600082825180855260208086019550808260051b8401018186016000805b8581101561290957868403601f19018a52825180516001600160a01b031685528581015160608787018190528151908701819052608087019188019085905b8082101561410b57825184529289019291890191600191909101906140eb565b505050604080830151925086820381880152506141288183613f28565b9b87019b95505050918401916001016140ac565b600082825180855260208086019550808260051b84010181860160005b848110156129dc57858303601f19018952815180516001600160a01b0316845284810151858501526040808201516080828701819052919061419d83880182613f28565b92505050606080830151925085820381870152506141bb8183613f62565b9a86019a9450505090830190600101614159565b6001600160a01b038316815260406020820181905282511515908201526020820151606082015260408201516080820152600060608301516101808060a085015261421e6101c0850183613f96565b91506080850151603f19808685030160c087015261423c8483614007565b935060a08701519150808685030160e0870152614259848361408e565b935060c08701519150610100818786030181880152614278858461413c565b945060e088015192506101208288870301818901526142978685613f28565b955081890151935061014092506142b8838901856001600160401b03169052565b880151925061016090506142d6878201846001600160a01b03169052565b908701516001600160a01b03908116938701939093528601519182166101a08601525050949350505050565b6020815260006125c16020830184612b99565b600060406001600160401b03851683526020604081850152845160a0604086015261434360e0860182613725565b905081860151603f19808784030160608801526143608383613725565b6040890151888203830160808a01528051808352908601945060009350908501905b808410156143b457845180516001600160a01b0316835286015186830152938501936001939093019290860190614382565b5060608901516001600160a01b031660a08901526080890151888203830160c08a015295506143e38187613725565b9a9950505050505050505050565b600060018060a01b038087168352608060208401526144136080840187612b99565b9416604083015250606001529291505056fea2646970667358221220c72b56a206045bc90f05036cba34092781b53df6a26da3937cf05d3b08e7f77d64736f6c63430008180033","linkReferences":{}},"methodIdentifiers":{"calculateAmount(uint256,uint256)":"cbcd5582","ccipReceive((bytes32,uint64,bytes,bytes,(address,uint256)[]))":"85572ffb","chainSelector()":"4e4bc847","deleteWill()":"210879f4","execute((bool,uint256,uint256,(address[],uint8[])[],(address,address[],uint8[])[],(address,uint256[],address[])[],(address,uint256,address[],uint8[])[],address[],uint64,address,address,address)[])":"876fabaf","fee()":"ddca3f43","getBalance()":"12065fe0","getRouter()":"b0f479a1","owner()":"8da5cb5b","renounceOwnership()":"715018a6","requestExecution((bool,uint256,uint256,(address[],uint8[])[],(address,address[],uint8[])[],(address,uint256[],address[])[],(address,uint256,address[],uint8[])[],address[],uint64,address,address,address)[])":"e2e4cc00","saveWillHash((bool,uint256,uint256,(address[],uint8[])[],(address,address[],uint8[])[],(address,uint256[],address[])[],(address,uint256,address[],uint8[])[],address[],uint64,address,address,address)[],uint256)":"7a87da8e","supportsInterface(bytes4)":"01ffc9a7","transferOwnership(address)":"f2fde38b","willHashes(address)":"6df5a5ab","withdraw(address,uint256)":"f3fef3a3"},"id":1}