{"abi":[{"type":"constructor","inputs":[{"name":"_fee","type":"uint256","internalType":"uint256"},{"name":"_router","type":"address","internalType":"address"},{"name":"_link","type":"address","internalType":"address"},{"name":"_chainSelector","type":"uint64","internalType":"uint64"}],"stateMutability":"nonpayable"},{"type":"function","name":"ccipReceive","inputs":[{"name":"message","type":"tuple","internalType":"struct Client.Any2EVMMessage","components":[{"name":"messageId","type":"bytes32","internalType":"bytes32"},{"name":"sourceChainSelector","type":"uint64","internalType":"uint64"},{"name":"sender","type":"bytes","internalType":"bytes"},{"name":"data","type":"bytes","internalType":"bytes"},{"name":"destTokenAmounts","type":"tuple[]","internalType":"struct Client.EVMTokenAmount[]","components":[{"name":"token","type":"address","internalType":"address"},{"name":"amount","type":"uint256","internalType":"uint256"}]}]}],"outputs":[],"stateMutability":"nonpayable"},{"type":"function","name":"chainSelector","inputs":[],"outputs":[{"name":"","type":"uint64","internalType":"uint64"}],"stateMutability":"view"},{"type":"function","name":"deleteWill","inputs":[],"outputs":[],"stateMutability":"nonpayable"},{"type":"function","name":"execute","inputs":[{"name":"wills","type":"tuple[]","internalType":"struct MementoMori.Will[]","components":[{"name":"isActive","type":"bool","internalType":"bool"},{"name":"requestTime","type":"uint256","internalType":"uint256"},{"name":"cooldown","type":"uint256","internalType":"uint256"},{"name":"native","type":"tuple[]","internalType":"struct MementoMori.Native[]","components":[{"name":"beneficiaries","type":"address[]","internalType":"address[]"},{"name":"percentages","type":"uint8[]","internalType":"uint8[]"}]},{"name":"tokens","type":"tuple[]","internalType":"struct MementoMori.Token[]","components":[{"name":"contractAddress","type":"address","internalType":"address"},{"name":"beneficiaries","type":"address[]","internalType":"address[]"},{"name":"percentages","type":"uint8[]","internalType":"uint8[]"}]},{"name":"nfts","type":"tuple[]","internalType":"struct MementoMori.NFT[]","components":[{"name":"contractAddress","type":"address","internalType":"address"},{"name":"tokenIds","type":"uint256[]","internalType":"uint256[]"},{"name":"beneficiaries","type":"address[]","internalType":"address[]"}]},{"name":"erc1155s","type":"tuple[]","internalType":"struct MementoMori.ERC1155[]","components":[{"name":"contractAddress","type":"address","internalType":"address"},{"name":"tokenId","type":"uint256","internalType":"uint256"},{"name":"beneficiaries","type":"address[]","internalType":"address[]"},{"name":"percentages","type":"uint8[]","internalType":"uint8[]"}]},{"name":"executors","type":"address[]","internalType":"address[]"},{"name":"chainSelector","type":"uint64","internalType":"uint64"},{"name":"safe","type":"address","internalType":"address"},{"name":"xChainAddress","type":"address","internalType":"address"},{"name":"baseAddress","type":"address","internalType":"address"}]}],"outputs":[],"stateMutability":"nonpayable"},{"type":"function","name":"fee","inputs":[],"outputs":[{"name":"","type":"uint256","internalType":"uint256"}],"stateMutability":"view"},{"type":"function","name":"getBalance","inputs":[],"outputs":[{"name":"","type":"uint256","internalType":"uint256"}],"stateMutability":"view"},{"type":"function","name":"getRouter","inputs":[],"outputs":[{"name":"","type":"address","internalType":"address"}],"stateMutability":"view"},{"type":"function","name":"owner","inputs":[],"outputs":[{"name":"","type":"address","internalType":"address"}],"stateMutability":"view"},{"type":"function","name":"renounceOwnership","inputs":[],"outputs":[],"stateMutability":"nonpayable"},{"type":"function","name":"requestExecution","inputs":[{"name":"wills","type":"tuple[]","internalType":"struct MementoMori.Will[]","components":[{"name":"isActive","type":"bool","internalType":"bool"},{"name":"requestTime","type":"uint256","internalType":"uint256"},{"name":"cooldown","type":"uint256","internalType":"uint256"},{"name":"native","type":"tuple[]","internalType":"struct MementoMori.Native[]","components":[{"name":"beneficiaries","type":"address[]","internalType":"address[]"},{"name":"percentages","type":"uint8[]","internalType":"uint8[]"}]},{"name":"tokens","type":"tuple[]","internalType":"struct MementoMori.Token[]","components":[{"name":"contractAddress","type":"address","internalType":"address"},{"name":"beneficiaries","type":"address[]","internalType":"address[]"},{"name":"percentages","type":"uint8[]","internalType":"uint8[]"}]},{"name":"nfts","type":"tuple[]","internalType":"struct MementoMori.NFT[]","components":[{"name":"contractAddress","type":"address","internalType":"address"},{"name":"tokenIds","type":"uint256[]","internalType":"uint256[]"},{"name":"beneficiaries","type":"address[]","internalType":"address[]"}]},{"name":"erc1155s","type":"tuple[]","internalType":"struct MementoMori.ERC1155[]","components":[{"name":"contractAddress","type":"address","internalType":"address"},{"name":"tokenId","type":"uint256","internalType":"uint256"},{"name":"beneficiaries","type":"address[]","internalType":"address[]"},{"name":"percentages","type":"uint8[]","internalType":"uint8[]"}]},{"name":"executors","type":"address[]","internalType":"address[]"},{"name":"chainSelector","type":"uint64","internalType":"uint64"},{"name":"safe","type":"address","internalType":"address"},{"name":"xChainAddress","type":"address","internalType":"address"},{"name":"baseAddress","type":"address","internalType":"address"}]}],"outputs":[],"stateMutability":"payable"},{"type":"function","name":"saveWillHash","inputs":[{"name":"wills","type":"tuple[]","internalType":"struct MementoMori.Will[]","components":[{"name":"isActive","type":"bool","internalType":"bool"},{"name":"requestTime","type":"uint256","internalType":"uint256"},{"name":"cooldown","type":"uint256","internalType":"uint256"},{"name":"native","type":"tuple[]","internalType":"struct MementoMori.Native[]","components":[{"name":"beneficiaries","type":"address[]","internalType":"address[]"},{"name":"percentages","type":"uint8[]","internalType":"uint8[]"}]},{"name":"tokens","type":"tuple[]","internalType":"struct MementoMori.Token[]","components":[{"name":"contractAddress","type":"address","internalType":"address"},{"name":"beneficiaries","type":"address[]","internalType":"address[]"},{"name":"percentages","type":"uint8[]","internalType":"uint8[]"}]},{"name":"nfts","type":"tuple[]","internalType":"struct MementoMori.NFT[]","components":[{"name":"contractAddress","type":"address","internalType":"address"},{"name":"tokenIds","type":"uint256[]","internalType":"uint256[]"},{"name":"beneficiaries","type":"address[]","internalType":"address[]"}]},{"name":"erc1155s","type":"tuple[]","internalType":"struct MementoMori.ERC1155[]","components":[{"name":"contractAddress","type":"address","internalType":"address"},{"name":"tokenId","type":"uint256","internalType":"uint256"},{"name":"beneficiaries","type":"address[]","internalType":"address[]"},{"name":"percentages","type":"uint8[]","internalType":"uint8[]"}]},{"name":"executors","type":"address[]","internalType":"address[]"},{"name":"chainSelector","type":"uint64","internalType":"uint64"},{"name":"safe","type":"address","internalType":"address"},{"name":"xChainAddress","type":"address","internalType":"address"},{"name":"baseAddress","type":"address","internalType":"address"}]},{"name":"operationType","type":"uint256","internalType":"uint256"}],"outputs":[],"stateMutability":"payable"},{"type":"function","name":"supportsInterface","inputs":[{"name":"interfaceId","type":"bytes4","internalType":"bytes4"}],"outputs":[{"name":"","type":"bool","internalType":"bool"}],"stateMutability":"pure"},{"type":"function","name":"transferOwnership","inputs":[{"name":"newOwner","type":"address","internalType":"address"}],"outputs":[],"stateMutability":"nonpayable"},{"type":"function","name":"willHashes","inputs":[{"name":"","type":"address","internalType":"address"}],"outputs":[{"name":"","type":"bytes32","internalType":"bytes32"}],"stateMutability":"view"},{"type":"function","name":"withdraw","inputs":[{"name":"recipient","type":"address","internalType":"address payable"},{"name":"amount","type":"uint256","internalType":"uint256"}],"outputs":[],"stateMutability":"payable"},{"type":"event","name":"ExecutionCancelled","inputs":[{"name":"owner","type":"address","indexed":true,"internalType":"address"}],"anonymous":false},{"type":"event","name":"ExecutionRequested","inputs":[{"name":"owner","type":"address","indexed":true,"internalType":"address"}],"anonymous":false},{"type":"event","name":"MessageReceived","inputs":[{"name":"messageId","type":"bytes32","indexed":true,"internalType":"bytes32"},{"name":"sourceChainSelector","type":"uint64","indexed":true,"internalType":"uint64"},{"name":"sender","type":"address","indexed":false,"internalType":"address"},{"name":"message","type":"tuple","indexed":false,"internalType":"struct MementoMori.Will","components":[{"name":"isActive","type":"bool","internalType":"bool"},{"name":"requestTime","type":"uint256","internalType":"uint256"},{"name":"cooldown","type":"uint256","internalType":"uint256"},{"name":"native","type":"tuple[]","internalType":"struct MementoMori.Native[]","components":[{"name":"beneficiaries","type":"address[]","internalType":"address[]"},{"name":"percentages","type":"uint8[]","internalType":"uint8[]"}]},{"name":"tokens","type":"tuple[]","internalType":"struct MementoMori.Token[]","components":[{"name":"contractAddress","type":"address","internalType":"address"},{"name":"beneficiaries","type":"address[]","internalType":"address[]"},{"name":"percentages","type":"uint8[]","internalType":"uint8[]"}]},{"name":"nfts","type":"tuple[]","internalType":"struct MementoMori.NFT[]","components":[{"name":"contractAddress","type":"address","internalType":"address"},{"name":"tokenIds","type":"uint256[]","internalType":"uint256[]"},{"name":"beneficiaries","type":"address[]","internalType":"address[]"}]},{"name":"erc1155s","type":"tuple[]","internalType":"struct MementoMori.ERC1155[]","components":[{"name":"contractAddress","type":"address","internalType":"address"},{"name":"tokenId","type":"uint256","internalType":"uint256"},{"name":"beneficiaries","type":"address[]","internalType":"address[]"},{"name":"percentages","type":"uint8[]","internalType":"uint8[]"}]},{"name":"executors","type":"address[]","internalType":"address[]"},{"name":"chainSelector","type":"uint64","internalType":"uint64"},{"name":"safe","type":"address","internalType":"address"},{"name":"xChainAddress","type":"address","internalType":"address"},{"name":"baseAddress","type":"address","internalType":"address"}]}],"anonymous":false},{"type":"event","name":"MessageSent","inputs":[{"name":"messageId","type":"bytes32","indexed":true,"internalType":"bytes32"},{"name":"destinationChainSelector","type":"uint64","indexed":true,"internalType":"uint64"},{"name":"receiver","type":"address","indexed":false,"internalType":"address"},{"name":"will","type":"tuple","indexed":false,"internalType":"struct MementoMori.Will","components":[{"name":"isActive","type":"bool","internalType":"bool"},{"name":"requestTime","type":"uint256","internalType":"uint256"},{"name":"cooldown","type":"uint256","internalType":"uint256"},{"name":"native","type":"tuple[]","internalType":"struct MementoMori.Native[]","components":[{"name":"beneficiaries","type":"address[]","internalType":"address[]"},{"name":"percentages","type":"uint8[]","internalType":"uint8[]"}]},{"name":"tokens","type":"tuple[]","internalType":"struct MementoMori.Token[]","components":[{"name":"contractAddress","type":"address","internalType":"address"},{"name":"beneficiaries","type":"address[]","internalType":"address[]"},{"name":"percentages","type":"uint8[]","internalType":"uint8[]"}]},{"name":"nfts","type":"tuple[]","internalType":"struct MementoMori.NFT[]","components":[{"name":"contractAddress","type":"address","internalType":"address"},{"name":"tokenIds","type":"uint256[]","internalType":"uint256[]"},{"name":"beneficiaries","type":"address[]","internalType":"address[]"}]},{"name":"erc1155s","type":"tuple[]","internalType":"struct MementoMori.ERC1155[]","components":[{"name":"contractAddress","type":"address","internalType":"address"},{"name":"tokenId","type":"uint256","internalType":"uint256"},{"name":"beneficiaries","type":"address[]","internalType":"address[]"},{"name":"percentages","type":"uint8[]","internalType":"uint8[]"}]},{"name":"executors","type":"address[]","internalType":"address[]"},{"name":"chainSelector","type":"uint64","internalType":"uint64"},{"name":"safe","type":"address","internalType":"address"},{"name":"xChainAddress","type":"address","internalType":"address"},{"name":"baseAddress","type":"address","internalType":"address"}]},{"name":"feeToken","type":"address","indexed":false,"internalType":"address"},{"name":"fees","type":"uint256","indexed":false,"internalType":"uint256"}],"anonymous":false},{"type":"event","name":"OwnershipTransferred","inputs":[{"name":"previousOwner","type":"address","indexed":true,"internalType":"address"},{"name":"newOwner","type":"address","indexed":true,"internalType":"address"}],"anonymous":false},{"type":"event","name":"WillCreated","inputs":[{"name":"owner","type":"address","indexed":true,"internalType":"address"}],"anonymous":false},{"type":"event","name":"WillDeleted","inputs":[{"name":"owner","type":"address","indexed":true,"internalType":"address"}],"anonymous":false},{"type":"event","name":"WillExecuted","inputs":[{"name":"owner","type":"address","indexed":true,"internalType":"address"}],"anonymous":false},{"type":"event","name":"WillUpdated","inputs":[{"name":"owner","type":"address","indexed":true,"internalType":"address"}],"anonymous":false},{"type":"error","name":"ChainSelectorsDontMatch","inputs":[]},{"type":"error","name":"HashesDontMatch","inputs":[]},{"type":"error","name":"InvalidRouter","inputs":[{"name":"router","type":"address","internalType":"address"}]},{"type":"error","name":"NotEnoughBalance","inputs":[{"name":"currentBalance","type":"uint256","internalType":"uint256"},{"name":"calculatedFees","type":"uint256","internalType":"uint256"}]},{"type":"error","name":"NotExecutor","inputs":[]},{"type":"error","name":"StillInCooldown","inputs":[{"name":"current","type":"uint256","internalType":"uint256"},{"name":"cooldown","type":"uint256","internalType":"uint256"}]},{"type":"error","name":"TransferFailed","inputs":[]},{"type":"error","name":"ValueLessThanFee","inputs":[{"name":"fee","type":"uint256","internalType":"uint256"},{"name":"value","type":"uint256","internalType":"uint256"}]}],"bytecode":{"object":"0x60a06040523480156200001157600080fd5b506040516200449738038062004497833981016040819052620000349162000142565b82848184846200004433620000d5565b600193909355600280546001600160a01b039384166001600160a01b0319909116179055600380546001600160401b03909416600160a01b026001600160e01b031990941691831691909117929092179091558116620000be576040516335fdcccd60e21b81526000600482015260240160405180910390fd5b6001600160a01b031660805250620001a492505050565b600080546001600160a01b038381166001600160a01b0319831681178455604051919092169283917f8be0079c531659141344cd1fd0a4f28419497f9722a3daafe3b4186f6b6457e09190a35050565b80516001600160a01b03811681146200013d57600080fd5b919050565b600080600080608085870312156200015957600080fd5b845193506200016b6020860162000125565b92506200017b6040860162000125565b60608601519092506001600160401b03811681146200019957600080fd5b939692955090935050565b6080516142d0620001c760003960008181610271015261051001526142d06000f3fe6080604052600436106100e85760003560e01c806385572ffb1161008a578063ddca3f4311610059578063ddca3f4314610295578063e2e4cc00146102ab578063f2fde38b146102be578063f3fef3a3146102de57600080fd5b806385572ffb146101f0578063876fabaf146102105780638da5cb5b14610230578063b0f479a11461026257600080fd5b80634e4bc847116100c65780634e4bc8471461015c5780636df5a5ab1461019b578063715018a6146101c85780637a87da8e146101dd57600080fd5b806301ffc9a7146100ed57806312065fe014610122578063210879f414610145575b600080fd5b3480156100f957600080fd5b5061010d61010836600461241b565b6102f1565b60405190151581526020015b60405180910390f35b34801561012e57600080fd5b50610137610328565b604051908152602001610119565b34801561015157600080fd5b5061015a61039a565b005b34801561016857600080fd5b5060035461018390600160a01b90046001600160401b031681565b6040516001600160401b039091168152602001610119565b3480156101a757600080fd5b506101376101b6366004612471565b60046020526000908152604090205481565b3480156101d457600080fd5b5061015a6103d4565b61015a6101eb3660046124d9565b6103e8565b3480156101fc57600080fd5b5061015a61020b366004612524565b610505565b34801561021c57600080fd5b5061015a61022b36600461255e565b610564565b34801561023c57600080fd5b506000546001600160a01b03165b6040516001600160a01b039091168152602001610119565b34801561026e57600080fd5b507f000000000000000000000000000000000000000000000000000000000000000061024a565b3480156102a157600080fd5b5061013760015481565b61015a6102b936600461255e565b611232565b3480156102ca57600080fd5b5061015a6102d9366004612471565b611399565b61015a6102ec36600461259f565b61140f565b60006001600160e01b031982166385572ffb60e01b148061032257506001600160e01b031982166301ffc9a760e01b145b92915050565b6003546040516370a0823160e01b81523060048201526000916001600160a01b0316906370a0823190602401602060405180830381865afa158015610371573d6000803e3d6000fd5b505050506040513d601f19601f8201168201806040525081019061039591906125cb565b905090565b33600081815260046020526040808220829055517ff9dd7d7eefe3dd64bbde615933315d92f38aac599b94f1ed0c0d28900e2c36b29190a2565b6103dc611452565b6103e660006114ac565b565b600154341061041c57600154604051632973338960e01b815260048101919091523460248201526044015b60405180910390fd5b60008383604051602001610431929190612b50565b60408051601f198184030181529181528151602092830120336000908152600490935290822081905591508290036104935760405133907feeb70606d0471753bc0f18914e842c40fad1d77501bfb2c7c90df37f7cc1374f90600090a26104ff565b816001036104cb5760405133907f9cb1134a02271a4012c75713868b85813f0d6462d1ed11b6db672c2ab192784e90600090a26104ff565b816002036104ff5760405133907f6f4cacb1de3e514e704e0223fb68607d87ce4f0e2c56ea71063e0cbe656d0e1790600090a25b50505050565b336001600160a01b037f00000000000000000000000000000000000000000000000000000000000000001614610550576040516335fdcccd60e21b8152336004820152602401610413565b61056161055c82612de4565b6114fc565b50565b8181600081811061057757610577612e90565b90506020028101906105899190612ea6565b6000805b61059a60e0840184612ec7565b90508110156105f5576105b060e0840184612ec7565b828181106105c0576105c0612e90565b90506020020160208101906105d59190612471565b6001600160a01b031633036105ed57600191506105f5565b60010161058d565b50600181151514610619576040516361968ebb60e11b815260040160405180910390fd5b60008484600081811061062e5761062e612e90565b90506020028101906106409190612ea6565b610649906133f3565b9050600460008261012001516001600160a01b03166001600160a01b03168152602001908152602001600020548585604051602001610689929190612b50565b60405160208183030381529060405280519060200120036106bd57604051633af9e48760e11b815260040160405180910390fd5b6003546101008201516001600160401b03600160a01b90920482169116036106f857604051632ae8538160e11b815260040160405180910390fd5b6040810151602082015161070c9042613552565b106107475742816040015182602001516107269190613565565b604051622ffd1f60ea1b815260048101929092526024820152604401610413565b60808101515115610a035760005b816080015151811015610a015760008260800151828151811061077a5761077a612e90565b6020908102919091010151516101208401516040516370a0823160e01b81526001600160a01b0391821660048201529116906370a0823190602401602060405180830381865afa1580156107d2573d6000803e3d6000fd5b505050506040513d601f19601f820116820180604052508101906107f691906125cb565b905060008360800151838151811061081057610810612e90565b60200260200101516020015151826108289190613578565b11156109f85760005b8360800151838151811061084757610847612e90565b602002602001015160200151518110156109f65760006108a4838660800151868151811061087757610877612e90565b602002602001015160400151848151811061089457610894612e90565b602002602001015160ff16611594565b90508461012001516001600160a01b031663468721a7866080015186815181106108d0576108d0612e90565b6020026020010151600001516000886080015188815181106108f4576108f4612e90565b602002602001015160200151868151811061091157610911612e90565b60200260200101518560405160240161093f9291906001600160a01b03929092168252602082015260400190565b60408051601f198184030181529181526020820180516001600160e01b031663a9059cbb60e01b1790525160e085901b6001600160e01b031916815261098d93929190600090600401613602565b6020604051808303816000875af11580156109ac573d6000803e3d6000fd5b505050506040513d601f19601f820116820180604052508101906109d0919061364c565b6109ed576040516312171d8360e31b815260040160405180910390fd5b50600101610831565b505b50600101610755565b505b60a08101515115610cce5760005b8160a0015151811015610ccc5760005b8260a001518281518110610a3757610a37612e90565b60200260200101516020015151811015610cc3578261012001516001600160a01b03168360a001518381518110610a7057610a70612e90565b6020026020010151600001516001600160a01b0316636352211e8560a001518581518110610aa057610aa0612e90565b6020026020010151602001518481518110610abd57610abd612e90565b60200260200101516040518263ffffffff1660e01b8152600401610ae391815260200190565b602060405180830381865afa158015610b00573d6000803e3d6000fd5b505050506040513d601f19601f82011682018060405250810190610b249190613674565b6001600160a01b031603610cbb578261012001516001600160a01b031663468721a78460a001518481518110610b5c57610b5c612e90565b60200260200101516000015160008661012001518760a001518781518110610b8657610b86612e90565b6020026020010151604001518681518110610ba357610ba3612e90565b60200260200101518860a001518781518110610bc157610bc1612e90565b6020026020010151602001518781518110610bde57610bde612e90565b60209081029190910101516040516001600160a01b039384166024820152929091166044830152606482015260840160408051601f198184030181529181526020820180516001600160e01b0316632142170760e11b1790525160e085901b6001600160e01b0319168152610c5b93929190600090600401613602565b6020604051808303816000875af1158015610c7a573d6000803e3d6000fd5b505050506040513d601f19601f82011682018060405250810190610c9e919061364c565b610cbb576040516312171d8360e31b815260040160405180910390fd5b600101610a21565b50600101610a11565b505b60c08101515115610fe15760005b8160c0015151811015610fdf5760008260c001518281518110610d0157610d01612e90565b6020026020010151600001516001600160a01b031662fdd58e8461012001518560c001518581518110610d3657610d36612e90565b6020026020010151602001516040518363ffffffff1660e01b8152600401610d739291906001600160a01b03929092168252602082015260400190565b602060405180830381865afa158015610d90573d6000803e3d6000fd5b505050506040513d601f19601f82011682018060405250810190610db491906125cb565b905060008360c001518381518110610dce57610dce612e90565b6020026020010151604001515182610de69190613578565b1115610fd65760005b8360c001518381518110610e0557610e05612e90565b60200260200101516040015151811015610fd45760006001831115610e6257610e5b838660c001518681518110610e3e57610e3e612e90565b602002602001015160600151848151811061089457610894612e90565b9050610e6e565b82600103610e6e575060015b8461012001516001600160a01b031663468721a78660c001518681518110610e9857610e98612e90565b60200260200101516000015160008861012001518960c001518981518110610ec257610ec2612e90565b6020026020010151604001518781518110610edf57610edf612e90565b60200260200101518a60c001518a81518110610efd57610efd612e90565b60200260200101516020015187604051602401610f1d9493929190613691565b60408051601f198184030181529181526020820180516001600160e01b0316637921219560e11b1790525160e085901b6001600160e01b0319168152610f6b93929190600090600401613602565b6020604051808303816000875af1158015610f8a573d6000803e3d6000fd5b505050506040513d601f19601f82011682018060405250810190610fae919061364c565b610fcb576040516312171d8360e31b815260040160405180910390fd5b50600101610def565b505b50600101610cdc565b505b6101208101516001600160a01b03163160005b826060015160008151811061100b5761100b612e90565b6020026020010151600001515181101561113557600061105983856060015160008151811061103c5761103c612e90565b602002602001015160200151848151811061089457610894612e90565b90508361012001516001600160a01b031663468721a7856060015160008151811061108657611086612e90565b60200260200101516000015184815181106110a3576110a3612e90565b60200260200101518360006040518463ffffffff1660e01b81526004016110cc939291906136d4565b6020604051808303816000875af11580156110eb573d6000803e3d6000fd5b505050506040513d601f19601f8201168201806040525081019061110f919061364c565b61112c576040516312171d8360e31b815260040160405180910390fd5b50600101610ff4565b5060018511156111ef5760015b858110156111ed576111e487878381811061115f5761115f612e90565b90506020028101906111719190612ea6565b6111849061012081019061010001613707565b88888481811061119657611196612e90565b90506020028101906111a89190612ea6565b6111bb9061016081019061014001612471565b8989858181106111cd576111cd612e90565b90506020028101906111df9190612ea6565b6115c3565b50600101611142565b505b8161012001516001600160a01b03167f16346f65adf8d84422b57ad74cb5607bf6c9e55c3c1fea66344057e5bba8a7ee60405160405180910390a2505050505050565b8181600081811061124557611245612e90565b90506020028101906112579190612ea6565b6000805b61126860e0840184612ec7565b90508110156112c35761127e60e0840184612ec7565b8281811061128e5761128e612e90565b90506020020160208101906112a39190612471565b6001600160a01b031633036112bb57600191506112c3565b60010161125b565b506001811515146112e7576040516361968ebb60e11b815260040160405180910390fd5b600084846040516020016112fc929190612b50565b60408051601f19818403018152918152815160209283012033600090815260049093529082208190559150859085908161133857611338612e90565b905060200281019061134a9190612ea6565b61135d9061018081019061016001612471565b6001600160a01b03167f74d50b0289278fa7db21584bc3d033fec675e475368963bda7a976558e6307d960405160405180910390a25050505050565b6113a1611452565b6001600160a01b0381166114065760405162461bcd60e51b815260206004820152602660248201527f4f776e61626c653a206e6577206f776e657220697320746865207a65726f206160448201526564647265737360d01b6064820152608401610413565b610561816114ac565b611417611452565b6040516001600160a01b0383169082156108fc029083906000818181858888f1935050505015801561144d573d6000803e3d6000fd5b505050565b6000546001600160a01b031633146103e65760405162461bcd60e51b815260206004820181905260248201527f4f776e61626c653a2063616c6c6572206973206e6f7420746865206f776e65726044820152606401610413565b600080546001600160a01b038381166001600160a01b0319831681178455604051919092169283917f8be0079c531659141344cd1fd0a4f28419497f9722a3daafe3b4186f6b6457e09190a35050565b600081606001518060200190518101906115169190613c12565b8251602080850151604086015180519495509293909260009261153e92820181019101613674565b9050611549846119ab565b816001600160401b0316837f1fe6b06416e8cb4498cad30c844ac42ebc36c5d99eefb674ecd0adb69018faf4838760405161158592919061402d565b60405180910390a35050505050565b6000806115a2836064614160565b90506127106115b18286614160565b6115bb9190613578565b949350505050565b6040805160a081019091526001600160a01b03831660c082015260009081908060e0810160405160208183030381529060405281526020018460405160200161160c9190614177565b60408051601f198184030181529190528152602001600060405190808252806020026020018201604052801561166857816020015b60408051808201909152600080825260208201528152602001906001900390816116415790505b5081526003546001600160a01b031660208083019190915260408051808201825262030d4080825260009184019182528251602481019190915290511515604480830191909152825180830390910181526064909101825291820180516001600160e01b03166397a657c960e01b179052909101526002546040516320487ded60e01b81529192506000916001600160a01b03909116906320487ded90611715908990869060040161418a565b602060405180830381865afa158015611732573d6000803e3d6000fd5b505050506040513d601f19601f8201168201806040525081019061175691906125cb565b6003546040516370a0823160e01b81523060048201529192506001600160a01b0316906370a0823190602401602060405180830381865afa15801561179f573d6000803e3d6000fd5b505050506040513d601f19601f820116820180604052508101906117c391906125cb565b81111561185a576003546040516370a0823160e01b81523060048201526001600160a01b03909116906370a0823190602401602060405180830381865afa158015611812573d6000803e3d6000fd5b505050506040513d601f19601f8201168201806040525081019061183691906125cb565b604051634787a10360e11b8152600481019190915260248101829052604401610413565b60035460025460405163095ea7b360e01b81526001600160a01b0391821660048201526024810184905291169063095ea7b3906044016020604051808303816000875af11580156118af573d6000803e3d6000fd5b505050506040513d601f19601f820116820180604052508101906118d3919061364c565b506002546040516396f4e9f960e01b81526001600160a01b03909116906396f4e9f990611906908990869060040161418a565b6020604051808303816000875af1158015611925573d6000803e3d6000fd5b505050506040513d601f19601f8201168201806040525081019061194991906125cb565b6003546040519194506001600160401b0388169185917f69125e43b7abfc1fa9365749da93c3fdb8210eee6453979d728f5988b4a5bfed9161199a918a918a916001600160a01b0316908890614266565b60405180910390a350509392505050565b60808101515115611c615760005b816080015151811015611c5f576000826080015182815181106119de576119de612e90565b6020908102919091010151516101208401516040516370a0823160e01b81526001600160a01b0391821660048201529116906370a0823190602401602060405180830381865afa158015611a36573d6000803e3d6000fd5b505050506040513d601f19601f82011682018060405250810190611a5a91906125cb565b9050600083608001518381518110611a7457611a74612e90565b6020026020010151602001515182611a8c9190613578565b1115611c565760005b83608001518381518110611aab57611aab612e90565b60200260200101516020015151811015611c54576000611adb838660800151868151811061087757610877612e90565b90508461012001516001600160a01b031663468721a786608001518681518110611b0757611b07612e90565b602002602001015160000151600088608001518881518110611b2b57611b2b612e90565b6020026020010151602001518681518110611b4857611b48612e90565b602002602001015185604051602401611b769291906001600160a01b03929092168252602082015260400190565b60408051601f198184030181529181526020820180516001600160e01b031663a9059cbb60e01b1790525160e085901b6001600160e01b0319168152611bc493929190600090600401613602565b6020604051808303816000875af1158015611be3573d6000803e3d6000fd5b505050506040513d601f19601f82011682018060405250810190611c07919061364c565b611c4b5760405162461bcd60e51b8152602060048201526015602482015274151bdad95b881d1c985b9cd9995c8819985a5b1959605a1b6044820152606401610413565b50600101611a95565b505b506001016119b9565b505b60a08101515115611f575760005b8160a0015151811015611f555760008260a001518281518110611c9457611c94612e90565b602002602001015160000151905060005b8360a001518381518110611cbb57611cbb612e90565b60200260200101516020015151811015611f4b578361012001516001600160a01b0316826001600160a01b0316636352211e8660a001518681518110611d0357611d03612e90565b6020026020010151602001518481518110611d2057611d20612e90565b60200260200101516040518263ffffffff1660e01b8152600401611d4691815260200190565b602060405180830381865afa158015611d63573d6000803e3d6000fd5b505050506040513d601f19601f82011682018060405250810190611d879190613674565b6001600160a01b031603611f43578361012001516001600160a01b031663468721a78560a001518581518110611dbf57611dbf612e90565b60200260200101516000015160008761012001518860a001518881518110611de957611de9612e90565b6020026020010151604001518681518110611e0657611e06612e90565b60200260200101518960a001518781518110611e2457611e24612e90565b6020026020010151602001518781518110611e4157611e41612e90565b60209081029190910101516040516001600160a01b039384166024820152929091166044830152606482015260840160408051601f198184030181529181526020820180516001600160e01b0316632142170760e11b1790525160e085901b6001600160e01b0319168152611ebe93929190600090600401613602565b6020604051808303816000875af1158015611edd573d6000803e3d6000fd5b505050506040513d601f19601f82011682018060405250810190611f01919061364c565b611f435760405162461bcd60e51b8152602060048201526013602482015272139195081d1c985b9cd9995c8819985a5b1959606a1b6044820152606401610413565b600101611ca5565b5050600101611c6f565b505b60c0810151511561227c5760005b8160c001515181101561227a5760008260c001518281518110611f8a57611f8a612e90565b6020026020010151600001516001600160a01b031662fdd58e8461012001518560c001518581518110611fbf57611fbf612e90565b6020026020010151602001516040518363ffffffff1660e01b8152600401611ffc9291906001600160a01b03929092168252602082015260400190565b602060405180830381865afa158015612019573d6000803e3d6000fd5b505050506040513d601f19601f8201168201806040525081019061203d91906125cb565b905060008360c00151838151811061205757612057612e90565b602002602001015160400151518261206f9190613578565b11156122715760005b8360c00151838151811061208e5761208e612e90565b6020026020010151604001515181101561226f57600060018311156120ce576120c7838660c001518681518110610e3e57610e3e612e90565b90506120da565b826001036120da575060015b8461012001516001600160a01b031663468721a78660c00151868151811061210457612104612e90565b60200260200101516000015160008861012001518960c00151898151811061212e5761212e612e90565b602002602001015160400151878151811061214b5761214b612e90565b60200260200101518a60c001518a8151811061216957612169612e90565b602002602001015160200151876040516024016121899493929190613691565b60408051601f198184030181529181526020820180516001600160e01b0316637921219560e11b1790525160e085901b6001600160e01b03191681526121d793929190600090600401613602565b6020604051808303816000875af11580156121f6573d6000803e3d6000fd5b505050506040513d601f19601f8201168201806040525081019061221a919061364c565b6122665760405162461bcd60e51b815260206004820152601760248201527f65726331313535207472616e73666572206661696c65640000000000000000006044820152606401610413565b50600101612078565b505b50600101611f65565b505b6101208101516001600160a01b03163160005b82606001516000815181106122a6576122a6612e90565b602002602001015160000151518110156123db5760006122d783856060015160008151811061103c5761103c612e90565b90508361012001516001600160a01b031663468721a7856060015160008151811061230457612304612e90565b602002602001015160000151848151811061232157612321612e90565b60200260200101518360006040518463ffffffff1660e01b815260040161234a939291906136d4565b6020604051808303816000875af1158015612369573d6000803e3d6000fd5b505050506040513d601f19601f8201168201806040525081019061238d919061364c565b6123d25760405162461bcd60e51b815260206004820152601660248201527513985d1a5d99481d1c985b9cd9995c8819985a5b195960521b6044820152606401610413565b5060010161228f565b508161012001516001600160a01b03167f16346f65adf8d84422b57ad74cb5607bf6c9e55c3c1fea66344057e5bba8a7ee60405160405180910390a25050565b60006020828403121561242d57600080fd5b81356001600160e01b03198116811461244557600080fd5b9392505050565b6001600160a01b038116811461056157600080fd5b803561246c8161244c565b919050565b60006020828403121561248357600080fd5b81356124458161244c565b60008083601f8401126124a057600080fd5b5081356001600160401b038111156124b757600080fd5b6020830191508360208260051b85010111156124d257600080fd5b9250929050565b6000806000604084860312156124ee57600080fd5b83356001600160401b0381111561250457600080fd5b6125108682870161248e565b909790965060209590950135949350505050565b60006020828403121561253657600080fd5b81356001600160401b0381111561254c57600080fd5b820160a0818503121561244557600080fd5b6000806020838503121561257157600080fd5b82356001600160401b0381111561258757600080fd5b6125938582860161248e565b90969095509350505050565b600080604083850312156125b257600080fd5b82356125bd8161244c565b946020939093013593505050565b6000602082840312156125dd57600080fd5b5051919050565b801515811461056157600080fd5b803561246c816125e4565b6000808335601e1984360301811261261457600080fd5b83016020810192503590506001600160401b0381111561263357600080fd5b8060051b36038213156124d257600080fd5b8183526000602080850194508260005b858110156126835781356126688161244c565b6001600160a01b031687529582019590820190600101612655565b509495945050505050565b60ff8116811461056157600080fd5b8183526000602080850194508260005b858110156126835781356126c08161268e565b60ff16875295820195908201906001016126ad565b60008383855260208086019550808560051b830101846000805b8881101561276b57858403601f19018a52823536899003603e19018112612714578283fd5b8801604061272282806125fd565b8288526127328389018284612645565b92505050612742878301836125fd565b92508682038888015261275682848361269d565b9c88019c9650505092850192506001016126ef565b509198975050505050505050565b60008235605e1983360301811261278f57600080fd5b90910192915050565b60008383855260208086019550808560051b8301018460005b8781101561283e57848303601f190189526127cc8288612779565b606081356127d98161244c565b6001600160a01b031685526127f0828701836125fd565b82888801526128028388018284612645565b925050506040612814818401846125fd565b93508683038288015261282883858361269d565b9c88019c965050509285019250506001016127b1565b5090979650505050505050565b818352602080840193600091600585811b830182018585805b8981101561290e57868403601f19018b5261287f838a612779565b6060813561288c8161244c565b6001600160a01b031686526128a3828901836125fd565b878a018390529187018290526080916001600160fb1b038111156128c5578586fd5b881b8082898501378701905060406128df848201856125fd565b94508389840301828a01526128f78484018683612645565b9f8b019f9850505094880194505050600101612864565b50919998505050505050505050565b60008383855260208086019550808560051b830101846000805b8881101561276b57858403601f19018a52823536899003607e1901811261295c578283fd5b88016080813561296b8161244c565b6001600160a01b031686528187013587870152604061298c818401846125fd565b83838a015261299e848a018284612645565b935050505060606129b1818401846125fd565b9350878303828901526129c583858361269d565b9d89019d97505050938601935050600101612937565b6001600160401b038116811461056157600080fd5b803561246c816129db565b6000610180612a1384612a0d856125f2565b15159052565b6020830135602085015260408301356040850152612a3460608401846125fd565b826060870152612a4783870182846126d5565b92505050612a5860808401846125fd565b8583036080870152612a6b838284612798565b92505050612a7c60a08401846125fd565b85830360a0870152612a8f83828461284b565b92505050612aa060c08401846125fd565b85830360c0870152612ab383828461291d565b92505050612ac460e08401846125fd565b85830360e0870152612ad7838284612645565b92505050610100612ae98185016129f0565b6001600160401b031690850152610120612b04848201612461565b6001600160a01b031690850152610140612b1f848201612461565b6001600160a01b031690850152610160612b3a848201612461565b6001600160a01b03169401939093525090919050565b60208082528181018390526000906040600585901b840181019084018684805b88811015612bb557878503603f190184528235368b900361017e19018112612b96578283fd5b612ba2868c83016129fb565b9550509285019291850191600101612b70565b509298975050505050505050565b634e487b7160e01b600052604160045260246000fd5b604080519081016001600160401b0381118282101715612bfb57612bfb612bc3565b60405290565b60405160a081016001600160401b0381118282101715612bfb57612bfb612bc3565b604051606081016001600160401b0381118282101715612bfb57612bfb612bc3565b604051608081016001600160401b0381118282101715612bfb57612bfb612bc3565b60405161018081016001600160401b0381118282101715612bfb57612bfb612bc3565b604051601f8201601f191681016001600160401b0381118282101715612cb257612cb2612bc3565b604052919050565b600082601f830112612ccb57600080fd5b81356001600160401b03811115612ce457612ce4612bc3565b612cf7601f8201601f1916602001612c8a565b818152846020838601011115612d0c57600080fd5b816020850160208301376000918101602001919091529392505050565b60006001600160401b03821115612d4257612d42612bc3565b5060051b60200190565b600082601f830112612d5d57600080fd5b81356020612d72612d6d83612d29565b612c8a565b82815260069290921b84018101918181019086841115612d9157600080fd5b8286015b84811015612dd95760408189031215612dae5760008081fd5b612db6612bd9565b8135612dc18161244c565b81528185013585820152835291830191604001612d95565b509695505050505050565b600060a08236031215612df657600080fd5b612dfe612c01565b82358152612e0e602084016129f0565b602082015260408301356001600160401b0380821115612e2d57600080fd5b612e3936838701612cba565b60408401526060850135915080821115612e5257600080fd5b612e5e36838701612cba565b60608401526080850135915080821115612e7757600080fd5b50612e8436828601612d4c565b60808301525092915050565b634e487b7160e01b600052603260045260246000fd5b6000823561017e19833603018112612ebd57600080fd5b9190910192915050565b6000808335601e19843603018112612ede57600080fd5b8301803591506001600160401b03821115612ef857600080fd5b6020019150600581901b36038213156124d257600080fd5b600082601f830112612f2157600080fd5b81356020612f31612d6d83612d29565b8083825260208201915060208460051b870101935086841115612f5357600080fd5b602086015b84811015612dd9578035612f6b8161244c565b8352918301918301612f58565b600082601f830112612f8957600080fd5b81356020612f99612d6d83612d29565b8083825260208201915060208460051b870101935086841115612fbb57600080fd5b602086015b84811015612dd9578035612fd38161268e565b8352918301918301612fc0565b600082601f830112612ff157600080fd5b81356020613001612d6d83612d29565b82815260059290921b8401810191818101908684111561302057600080fd5b8286015b84811015612dd95780356001600160401b03808211156130445760008081fd5b908801906040828b03601f190181131561305e5760008081fd5b613066612bd9565b87840135838111156130785760008081fd5b6130868d8a83880101612f10565b82525090830135908282111561309c5760008081fd5b6130aa8c8984870101612f78565b818901528652505050918301918301613024565b600082601f8301126130cf57600080fd5b813560206130df612d6d83612d29565b82815260059290921b840181019181810190868411156130fe57600080fd5b8286015b84811015612dd95780356001600160401b03808211156131225760008081fd5b908801906060828b03601f190181131561313c5760008081fd5b613144612c23565b878401356131518161244c565b8152604084810135848111156131675760008081fd5b6131758e8b83890101612f10565b838b01525091840135918383111561318d5760008081fd5b61319b8d8a85880101612f78565b908201528652505050918301918301613102565b600082601f8301126131c057600080fd5b813560206131d0612d6d83612d29565b82815260059290921b840181019181810190868411156131ef57600080fd5b8286015b84811015612dd95780356001600160401b038082111561321257600080fd5b908801906060828b03601f1901121561322b5760008081fd5b613233612c23565b868301356132408161244c565b8152604083810135838111156132565760008081fd5b8401603f81018d136132685760008081fd5b88810135613278612d6d82612d29565b81815260059190911b82018301908a8101908f8311156132985760008081fd5b928401925b828410156132b65783358252928b0192908b019061329d565b858c01525050506060840135838111156132d05760008081fd5b6132de8d8a83880101612f10565b9183019190915250855250509183019183016131f3565b600082601f83011261330657600080fd5b81356020613316612d6d83612d29565b82815260059290921b8401810191818101908684111561333557600080fd5b8286015b84811015612dd95780356001600160401b03808211156133595760008081fd5b908801906080828b03601f19018113156133735760008081fd5b61337b612c45565b878401356133888161244c565b815260408481013589830152606080860135858111156133a85760008081fd5b6133b68f8c838a0101612f10565b84840152509285013592848411156133d057600091508182fd5b6133de8e8b86890101612f78565b90830152508652505050918301918301613339565b6000610180823603121561340657600080fd5b61340e612c67565b613417836125f2565b8152602083013560208201526040830135604082015260608301356001600160401b038082111561344757600080fd5b61345336838701612fe0565b6060840152608085013591508082111561346c57600080fd5b613478368387016130be565b608084015260a085013591508082111561349157600080fd5b61349d368387016131af565b60a084015260c08501359150808211156134b657600080fd5b6134c2368387016132f5565b60c084015260e08501359150808211156134db57600080fd5b506134e836828601612f10565b60e0830152506101006134fc8185016129f0565b9082015261012061350e848201612461565b90820152610140613520848201612461565b90820152610160613532848201612461565b9082015292915050565b634e487b7160e01b600052601160045260246000fd5b818103818111156103225761032261353c565b808201808211156103225761032261353c565b60008261359557634e487b7160e01b600052601260045260246000fd5b500490565b6000815180845260005b818110156135c0576020818501810151868301820152016135a4565b506000602082860101526020601f19601f83011685010191505092915050565b600281106135fe57634e487b7160e01b600052602160045260246000fd5b9052565b60018060a01b0385168152836020820152608060408201526000613629608083018561359a565b905061363860608301846135e0565b95945050505050565b805161246c816125e4565b60006020828403121561365e57600080fd5b8151612445816125e4565b805161246c8161244c565b60006020828403121561368657600080fd5b81516124458161244c565b6001600160a01b0394851681529290931660208301526040820152606081019190915260a06080820181905260029082015261060f60f31b60c082015260e00190565b6001600160a01b03841681526020810183905260806040820181905260009082015260a081016115bb60608301846135e0565b60006020828403121561371957600080fd5b8135612445816129db565b600082601f83011261373557600080fd5b81516020613745612d6d83612d29565b8083825260208201915060208460051b87010193508684111561376757600080fd5b602086015b84811015612dd957805161377f8161244c565b835291830191830161376c565b600082601f83011261379d57600080fd5b815160206137ad612d6d83612d29565b8083825260208201915060208460051b8701019350868411156137cf57600080fd5b602086015b84811015612dd95780516137e78161268e565b83529183019183016137d4565b600082601f83011261380557600080fd5b81516020613815612d6d83612d29565b82815260059290921b8401810191818101908684111561383457600080fd5b8286015b84811015612dd95780516001600160401b03808211156138585760008081fd5b908801906040828b03601f19018113156138725760008081fd5b61387a612bd9565b878401518381111561388c5760008081fd5b61389a8d8a83880101613724565b8252509083015190828211156138b05760008081fd5b6138be8c898487010161378c565b818901528652505050918301918301613838565b600082601f8301126138e357600080fd5b815160206138f3612d6d83612d29565b82815260059290921b8401810191818101908684111561391257600080fd5b8286015b84811015612dd95780516001600160401b03808211156139365760008081fd5b908801906060828b03601f19018113156139505760008081fd5b613958612c23565b878401516139658161244c565b81526040848101518481111561397b5760008081fd5b6139898e8b83890101613724565b838b0152509184015191838311156139a15760008081fd5b6139af8d8a8588010161378c565b908201528652505050918301918301613916565b600082601f8301126139d457600080fd5b815160206139e4612d6d83612d29565b82815260059290921b84018101918181019086841115613a0357600080fd5b8286015b84811015612dd95780516001600160401b0380821115613a2657600080fd5b908801906060828b03601f19011215613a3f5760008081fd5b613a47612c23565b86830151613a548161244c565b815260408381015183811115613a6a5760008081fd5b8401603f81018d13613a7c5760008081fd5b88810151613a8c612d6d82612d29565b81815260059190911b82018301908a8101908f831115613aac5760008081fd5b928401925b82841015613aca5783518252928b0192908b0190613ab1565b858c0152505050606084015183811115613ae45760008081fd5b613af28d8a83880101613724565b918301919091525085525050918301918301613a07565b600082601f830112613b1a57600080fd5b81516020613b2a612d6d83612d29565b82815260059290921b84018101918181019086841115613b4957600080fd5b8286015b84811015612dd95780516001600160401b0380821115613b6d5760008081fd5b908801906080828b03601f1901811315613b875760008081fd5b613b8f612c45565b87840151613b9c8161244c565b81526040848101518983015260608086015185811115613bbc5760008081fd5b613bca8f8c838a0101613724565b8484015250928501519284841115613be457600091508182fd5b613bf28e8b8689010161378c565b90830152508652505050918301918301613b4d565b805161246c816129db565b600060208284031215613c2457600080fd5b81516001600160401b0380821115613c3b57600080fd5b908301906101808286031215613c5057600080fd5b613c58612c67565b613c6183613641565b81526020830151602082015260408301516040820152606083015182811115613c8957600080fd5b613c95878286016137f4565b606083015250608083015182811115613cad57600080fd5b613cb9878286016138d2565b60808301525060a083015182811115613cd157600080fd5b613cdd878286016139c3565b60a08301525060c083015182811115613cf557600080fd5b613d0187828601613b09565b60c08301525060e083015182811115613d1957600080fd5b613d2587828601613724565b60e0830152506101009150613d3b828401613c07565b828201526101209150613d4f828401613669565b828201526101409150613d63828401613669565b828201526101609150613d77828401613669565b91810191909152949350505050565b60008151808452602080850194506020840160005b838110156126835781516001600160a01b031687529582019590820190600101613d9b565b60008151808452602080850194506020840160005b8381101561268357815160ff1687529582019590820190600101613dd5565b600082825180855260208086019550808260051b84010181860160005b8481101561283e57601f19868403018952815160408151818652613e3782870182613d86565b91505085820151915084810386860152613e518183613dc0565b9a86019a9450505090830190600101613e11565b600082825180855260208086019550808260051b84010181860160005b8481101561283e57858303601f19018952815180516001600160a01b0316845284810151606086860181905290613ebb82870182613d86565b91505060408083015192508582038187015250613ed88183613dc0565b9a86019a9450505090830190600101613e82565b600082825180855260208086019550808260051b8401018186016000805b8581101561276b57868403601f19018a52825180516001600160a01b031685528581015160608787018190528151908701819052608087019188019085905b80821015613f695782518452928901929189019160019190910190613f49565b50505060408083015192508682038188015250613f868183613d86565b9b87019b9550505091840191600101613f0a565b600082825180855260208086019550808260051b84010181860160005b8481101561283e57858303601f19018952815180516001600160a01b03168452848101518585015260408082015160808287018190529190613ffb83880182613d86565b92505050606080830151925085820381870152506140198183613dc0565b9a86019a9450505090830190600101613fb7565b6001600160a01b038316815260406020820181905282511515908201526020820151606082015260408201516080820152600060608301516101808060a085015261407c6101c0850183613df4565b91506080850151603f19808685030160c087015261409a8483613e65565b935060a08701519150808685030160e08701526140b78483613eec565b935060c087015191506101008187860301818801526140d68584613f9a565b945060e088015192506101208288870301818901526140f58685613d86565b95508189015193506101409250614116838901856001600160401b03169052565b88015192506101609050614134878201846001600160a01b03169052565b908701516001600160a01b03908116938701939093528601519182166101a08601525050949350505050565b80820281158282048414176103225761032261353c565b60208152600061244560208301846129fb565b600060406001600160401b03851683526020604081850152845160a060408601526141b860e086018261359a565b905081860151603f19808784030160608801526141d5838361359a565b6040890151888203830160808a01528051808352908601945060009350908501905b8084101561422957845180516001600160a01b03168352860151868301529385019360019390930192908601906141f7565b5060608901516001600160a01b031660a08901526080890151888203830160c08a01529550614258818761359a565b9a9950505050505050505050565b600060018060a01b0380871683526080602084015261428860808401876129fb565b9416604083015250606001529291505056fea264697066735822122034876a8922c29d890832caec9216cd72802d639e21206253cd0da11ff008f23e64736f6c63430008180033","linkReferences":{}},"methodIdentifiers":{"ccipReceive((bytes32,uint64,bytes,bytes,(address,uint256)[]))":"85572ffb","chainSelector()":"4e4bc847","deleteWill()":"210879f4","execute((bool,uint256,uint256,(address[],uint8[])[],(address,address[],uint8[])[],(address,uint256[],address[])[],(address,uint256,address[],uint8[])[],address[],uint64,address,address,address)[])":"876fabaf","fee()":"ddca3f43","getBalance()":"12065fe0","getRouter()":"b0f479a1","owner()":"8da5cb5b","renounceOwnership()":"715018a6","requestExecution((bool,uint256,uint256,(address[],uint8[])[],(address,address[],uint8[])[],(address,uint256[],address[])[],(address,uint256,address[],uint8[])[],address[],uint64,address,address,address)[])":"e2e4cc00","saveWillHash((bool,uint256,uint256,(address[],uint8[])[],(address,address[],uint8[])[],(address,uint256[],address[])[],(address,uint256,address[],uint8[])[],address[],uint64,address,address,address)[],uint256)":"7a87da8e","supportsInterface(bytes4)":"01ffc9a7","transferOwnership(address)":"f2fde38b","willHashes(address)":"6df5a5ab","withdraw(address,uint256)":"f3fef3a3"},"id":1}