{"abi":[{"type":"constructor","inputs":[{"name":"_fee","type":"uint256","internalType":"uint256"},{"name":"_router","type":"address","internalType":"address"},{"name":"_link","type":"address","internalType":"address"},{"name":"_chainSelector","type":"uint64","internalType":"uint64"}],"stateMutability":"nonpayable"},{"type":"function","name":"ccipReceive","inputs":[{"name":"message","type":"tuple","internalType":"struct Client.Any2EVMMessage","components":[{"name":"messageId","type":"bytes32","internalType":"bytes32"},{"name":"sourceChainSelector","type":"uint64","internalType":"uint64"},{"name":"sender","type":"bytes","internalType":"bytes"},{"name":"data","type":"bytes","internalType":"bytes"},{"name":"destTokenAmounts","type":"tuple[]","internalType":"struct Client.EVMTokenAmount[]","components":[{"name":"token","type":"address","internalType":"address"},{"name":"amount","type":"uint256","internalType":"uint256"}]}]}],"outputs":[],"stateMutability":"nonpayable"},{"type":"function","name":"chainSelector","inputs":[],"outputs":[{"name":"","type":"uint64","internalType":"uint64"}],"stateMutability":"view"},{"type":"function","name":"deleteWill","inputs":[],"outputs":[],"stateMutability":"nonpayable"},{"type":"function","name":"execute","inputs":[{"name":"wills","type":"tuple[]","internalType":"struct MementoMori.Will[]","components":[{"name":"isActive","type":"bool","internalType":"bool"},{"name":"requestTime","type":"uint256","internalType":"uint256"},{"name":"cooldown","type":"uint256","internalType":"uint256"},{"name":"native","type":"tuple[]","internalType":"struct MementoMori.Native[]","components":[{"name":"beneficiaries","type":"address[]","internalType":"address[]"},{"name":"percentages","type":"uint8[]","internalType":"uint8[]"}]},{"name":"tokens","type":"tuple[]","internalType":"struct MementoMori.Token[]","components":[{"name":"contractAddress","type":"address","internalType":"address"},{"name":"beneficiaries","type":"address[]","internalType":"address[]"},{"name":"percentages","type":"uint8[]","internalType":"uint8[]"}]},{"name":"nfts","type":"tuple[]","internalType":"struct MementoMori.NFT[]","components":[{"name":"contractAddress","type":"address","internalType":"address"},{"name":"tokenIds","type":"uint256[]","internalType":"uint256[]"},{"name":"beneficiaries","type":"address[]","internalType":"address[]"}]},{"name":"erc1155s","type":"tuple[]","internalType":"struct MementoMori.ERC1155[]","components":[{"name":"contractAddress","type":"address","internalType":"address"},{"name":"tokenId","type":"uint256","internalType":"uint256"},{"name":"beneficiaries","type":"address[]","internalType":"address[]"},{"name":"percentages","type":"uint8[]","internalType":"uint8[]"}]},{"name":"executors","type":"address[]","internalType":"address[]"},{"name":"chainSelector","type":"uint64","internalType":"uint64"},{"name":"safe","type":"address","internalType":"address"},{"name":"xChainAddress","type":"address","internalType":"address"},{"name":"baseAddress","type":"address","internalType":"address"}]}],"outputs":[],"stateMutability":"nonpayable"},{"type":"function","name":"fee","inputs":[],"outputs":[{"name":"","type":"uint256","internalType":"uint256"}],"stateMutability":"view"},{"type":"function","name":"getBalance","inputs":[],"outputs":[{"name":"","type":"uint256","internalType":"uint256"}],"stateMutability":"view"},{"type":"function","name":"getRouter","inputs":[],"outputs":[{"name":"","type":"address","internalType":"address"}],"stateMutability":"view"},{"type":"function","name":"owner","inputs":[],"outputs":[{"name":"","type":"address","internalType":"address"}],"stateMutability":"view"},{"type":"function","name":"renounceOwnership","inputs":[],"outputs":[],"stateMutability":"nonpayable"},{"type":"function","name":"requestExecution","inputs":[{"name":"wills","type":"tuple[]","internalType":"struct MementoMori.Will[]","components":[{"name":"isActive","type":"bool","internalType":"bool"},{"name":"requestTime","type":"uint256","internalType":"uint256"},{"name":"cooldown","type":"uint256","internalType":"uint256"},{"name":"native","type":"tuple[]","internalType":"struct MementoMori.Native[]","components":[{"name":"beneficiaries","type":"address[]","internalType":"address[]"},{"name":"percentages","type":"uint8[]","internalType":"uint8[]"}]},{"name":"tokens","type":"tuple[]","internalType":"struct MementoMori.Token[]","components":[{"name":"contractAddress","type":"address","internalType":"address"},{"name":"beneficiaries","type":"address[]","internalType":"address[]"},{"name":"percentages","type":"uint8[]","internalType":"uint8[]"}]},{"name":"nfts","type":"tuple[]","internalType":"struct MementoMori.NFT[]","components":[{"name":"contractAddress","type":"address","internalType":"address"},{"name":"tokenIds","type":"uint256[]","internalType":"uint256[]"},{"name":"beneficiaries","type":"address[]","internalType":"address[]"}]},{"name":"erc1155s","type":"tuple[]","internalType":"struct MementoMori.ERC1155[]","components":[{"name":"contractAddress","type":"address","internalType":"address"},{"name":"tokenId","type":"uint256","internalType":"uint256"},{"name":"beneficiaries","type":"address[]","internalType":"address[]"},{"name":"percentages","type":"uint8[]","internalType":"uint8[]"}]},{"name":"executors","type":"address[]","internalType":"address[]"},{"name":"chainSelector","type":"uint64","internalType":"uint64"},{"name":"safe","type":"address","internalType":"address"},{"name":"xChainAddress","type":"address","internalType":"address"},{"name":"baseAddress","type":"address","internalType":"address"}]}],"outputs":[],"stateMutability":"payable"},{"type":"function","name":"saveWillHash","inputs":[{"name":"wills","type":"tuple[]","internalType":"struct MementoMori.Will[]","components":[{"name":"isActive","type":"bool","internalType":"bool"},{"name":"requestTime","type":"uint256","internalType":"uint256"},{"name":"cooldown","type":"uint256","internalType":"uint256"},{"name":"native","type":"tuple[]","internalType":"struct MementoMori.Native[]","components":[{"name":"beneficiaries","type":"address[]","internalType":"address[]"},{"name":"percentages","type":"uint8[]","internalType":"uint8[]"}]},{"name":"tokens","type":"tuple[]","internalType":"struct MementoMori.Token[]","components":[{"name":"contractAddress","type":"address","internalType":"address"},{"name":"beneficiaries","type":"address[]","internalType":"address[]"},{"name":"percentages","type":"uint8[]","internalType":"uint8[]"}]},{"name":"nfts","type":"tuple[]","internalType":"struct MementoMori.NFT[]","components":[{"name":"contractAddress","type":"address","internalType":"address"},{"name":"tokenIds","type":"uint256[]","internalType":"uint256[]"},{"name":"beneficiaries","type":"address[]","internalType":"address[]"}]},{"name":"erc1155s","type":"tuple[]","internalType":"struct MementoMori.ERC1155[]","components":[{"name":"contractAddress","type":"address","internalType":"address"},{"name":"tokenId","type":"uint256","internalType":"uint256"},{"name":"beneficiaries","type":"address[]","internalType":"address[]"},{"name":"percentages","type":"uint8[]","internalType":"uint8[]"}]},{"name":"executors","type":"address[]","internalType":"address[]"},{"name":"chainSelector","type":"uint64","internalType":"uint64"},{"name":"safe","type":"address","internalType":"address"},{"name":"xChainAddress","type":"address","internalType":"address"},{"name":"baseAddress","type":"address","internalType":"address"}]},{"name":"operationType","type":"uint256","internalType":"uint256"}],"outputs":[],"stateMutability":"payable"},{"type":"function","name":"supportsInterface","inputs":[{"name":"interfaceId","type":"bytes4","internalType":"bytes4"}],"outputs":[{"name":"","type":"bool","internalType":"bool"}],"stateMutability":"pure"},{"type":"function","name":"transferOwnership","inputs":[{"name":"newOwner","type":"address","internalType":"address"}],"outputs":[],"stateMutability":"nonpayable"},{"type":"function","name":"willHashes","inputs":[{"name":"","type":"address","internalType":"address"}],"outputs":[{"name":"","type":"bytes32","internalType":"bytes32"}],"stateMutability":"view"},{"type":"function","name":"withdraw","inputs":[{"name":"recipient","type":"address","internalType":"address payable"},{"name":"amount","type":"uint256","internalType":"uint256"}],"outputs":[],"stateMutability":"payable"},{"type":"event","name":"ExecutionCancelled","inputs":[{"name":"owner","type":"address","indexed":true,"internalType":"address"}],"anonymous":false},{"type":"event","name":"ExecutionRequested","inputs":[{"name":"owner","type":"address","indexed":true,"internalType":"address"}],"anonymous":false},{"type":"event","name":"MessageReceived","inputs":[{"name":"messageId","type":"bytes32","indexed":true,"internalType":"bytes32"},{"name":"sourceChainSelector","type":"uint64","indexed":true,"internalType":"uint64"},{"name":"sender","type":"address","indexed":false,"internalType":"address"},{"name":"message","type":"tuple","indexed":false,"internalType":"struct MementoMori.Will","components":[{"name":"isActive","type":"bool","internalType":"bool"},{"name":"requestTime","type":"uint256","internalType":"uint256"},{"name":"cooldown","type":"uint256","internalType":"uint256"},{"name":"native","type":"tuple[]","internalType":"struct MementoMori.Native[]","components":[{"name":"beneficiaries","type":"address[]","internalType":"address[]"},{"name":"percentages","type":"uint8[]","internalType":"uint8[]"}]},{"name":"tokens","type":"tuple[]","internalType":"struct MementoMori.Token[]","components":[{"name":"contractAddress","type":"address","internalType":"address"},{"name":"beneficiaries","type":"address[]","internalType":"address[]"},{"name":"percentages","type":"uint8[]","internalType":"uint8[]"}]},{"name":"nfts","type":"tuple[]","internalType":"struct MementoMori.NFT[]","components":[{"name":"contractAddress","type":"address","internalType":"address"},{"name":"tokenIds","type":"uint256[]","internalType":"uint256[]"},{"name":"beneficiaries","type":"address[]","internalType":"address[]"}]},{"name":"erc1155s","type":"tuple[]","internalType":"struct MementoMori.ERC1155[]","components":[{"name":"contractAddress","type":"address","internalType":"address"},{"name":"tokenId","type":"uint256","internalType":"uint256"},{"name":"beneficiaries","type":"address[]","internalType":"address[]"},{"name":"percentages","type":"uint8[]","internalType":"uint8[]"}]},{"name":"executors","type":"address[]","internalType":"address[]"},{"name":"chainSelector","type":"uint64","internalType":"uint64"},{"name":"safe","type":"address","internalType":"address"},{"name":"xChainAddress","type":"address","internalType":"address"},{"name":"baseAddress","type":"address","internalType":"address"}]}],"anonymous":false},{"type":"event","name":"MessageSent","inputs":[{"name":"messageId","type":"bytes32","indexed":true,"internalType":"bytes32"},{"name":"destinationChainSelector","type":"uint64","indexed":true,"internalType":"uint64"},{"name":"receiver","type":"address","indexed":false,"internalType":"address"},{"name":"will","type":"tuple","indexed":false,"internalType":"struct MementoMori.Will","components":[{"name":"isActive","type":"bool","internalType":"bool"},{"name":"requestTime","type":"uint256","internalType":"uint256"},{"name":"cooldown","type":"uint256","internalType":"uint256"},{"name":"native","type":"tuple[]","internalType":"struct MementoMori.Native[]","components":[{"name":"beneficiaries","type":"address[]","internalType":"address[]"},{"name":"percentages","type":"uint8[]","internalType":"uint8[]"}]},{"name":"tokens","type":"tuple[]","internalType":"struct MementoMori.Token[]","components":[{"name":"contractAddress","type":"address","internalType":"address"},{"name":"beneficiaries","type":"address[]","internalType":"address[]"},{"name":"percentages","type":"uint8[]","internalType":"uint8[]"}]},{"name":"nfts","type":"tuple[]","internalType":"struct MementoMori.NFT[]","components":[{"name":"contractAddress","type":"address","internalType":"address"},{"name":"tokenIds","type":"uint256[]","internalType":"uint256[]"},{"name":"beneficiaries","type":"address[]","internalType":"address[]"}]},{"name":"erc1155s","type":"tuple[]","internalType":"struct MementoMori.ERC1155[]","components":[{"name":"contractAddress","type":"address","internalType":"address"},{"name":"tokenId","type":"uint256","internalType":"uint256"},{"name":"beneficiaries","type":"address[]","internalType":"address[]"},{"name":"percentages","type":"uint8[]","internalType":"uint8[]"}]},{"name":"executors","type":"address[]","internalType":"address[]"},{"name":"chainSelector","type":"uint64","internalType":"uint64"},{"name":"safe","type":"address","internalType":"address"},{"name":"xChainAddress","type":"address","internalType":"address"},{"name":"baseAddress","type":"address","internalType":"address"}]},{"name":"feeToken","type":"address","indexed":false,"internalType":"address"},{"name":"fees","type":"uint256","indexed":false,"internalType":"uint256"}],"anonymous":false},{"type":"event","name":"OwnershipTransferred","inputs":[{"name":"previousOwner","type":"address","indexed":true,"internalType":"address"},{"name":"newOwner","type":"address","indexed":true,"internalType":"address"}],"anonymous":false},{"type":"event","name":"WillCreated","inputs":[{"name":"owner","type":"address","indexed":true,"internalType":"address"}],"anonymous":false},{"type":"event","name":"WillDeleted","inputs":[{"name":"owner","type":"address","indexed":true,"internalType":"address"}],"anonymous":false},{"type":"event","name":"WillExecuted","inputs":[{"name":"owner","type":"address","indexed":true,"internalType":"address"}],"anonymous":false},{"type":"event","name":"WillUpdated","inputs":[{"name":"owner","type":"address","indexed":true,"internalType":"address"}],"anonymous":false},{"type":"error","name":"ChainSelectorsDontMatch","inputs":[]},{"type":"error","name":"HashesDontMatch","inputs":[]},{"type":"error","name":"InvalidRouter","inputs":[{"name":"router","type":"address","internalType":"address"}]},{"type":"error","name":"NotEnoughBalance","inputs":[{"name":"currentBalance","type":"uint256","internalType":"uint256"},{"name":"calculatedFees","type":"uint256","internalType":"uint256"}]},{"type":"error","name":"NotExecutor","inputs":[]},{"type":"error","name":"StillInCooldown","inputs":[{"name":"current","type":"uint256","internalType":"uint256"},{"name":"cooldown","type":"uint256","internalType":"uint256"}]},{"type":"error","name":"TransferFailed","inputs":[]},{"type":"error","name":"ValueLessThanFee","inputs":[{"name":"fee","type":"uint256","internalType":"uint256"},{"name":"value","type":"uint256","internalType":"uint256"}]}],"bytecode":{"object":"0x60a06040523480156200001157600080fd5b506040516200449838038062004498833981016040819052620000349162000142565b82848184846200004433620000d5565b600193909355600280546001600160a01b039384166001600160a01b0319909116179055600380546001600160401b03909416600160a01b026001600160e01b031990941691831691909117929092179091558116620000be576040516335fdcccd60e21b81526000600482015260240160405180910390fd5b6001600160a01b031660805250620001a492505050565b600080546001600160a01b038381166001600160a01b0319831681178455604051919092169283917f8be0079c531659141344cd1fd0a4f28419497f9722a3daafe3b4186f6b6457e09190a35050565b80516001600160a01b03811681146200013d57600080fd5b919050565b600080600080608085870312156200015957600080fd5b845193506200016b6020860162000125565b92506200017b6040860162000125565b60608601519092506001600160401b03811681146200019957600080fd5b939692955090935050565b6080516142d1620001c760003960008181610271015261051101526142d16000f3fe6080604052600436106100e85760003560e01c806385572ffb1161008a578063ddca3f4311610059578063ddca3f4314610295578063e2e4cc00146102ab578063f2fde38b146102be578063f3fef3a3146102de57600080fd5b806385572ffb146101f0578063876fabaf146102105780638da5cb5b14610230578063b0f479a11461026257600080fd5b80634e4bc847116100c65780634e4bc8471461015c5780636df5a5ab1461019b578063715018a6146101c85780637a87da8e146101dd57600080fd5b806301ffc9a7146100ed57806312065fe014610122578063210879f414610145575b600080fd5b3480156100f957600080fd5b5061010d61010836600461241c565b6102f1565b60405190151581526020015b60405180910390f35b34801561012e57600080fd5b50610137610328565b604051908152602001610119565b34801561015157600080fd5b5061015a61039a565b005b34801561016857600080fd5b5060035461018390600160a01b90046001600160401b031681565b6040516001600160401b039091168152602001610119565b3480156101a757600080fd5b506101376101b6366004612472565b60046020526000908152604090205481565b3480156101d457600080fd5b5061015a6103d4565b61015a6101eb3660046124da565b6103e8565b3480156101fc57600080fd5b5061015a61020b366004612525565b610506565b34801561021c57600080fd5b5061015a61022b36600461255f565b610565565b34801561023c57600080fd5b506000546001600160a01b03165b6040516001600160a01b039091168152602001610119565b34801561026e57600080fd5b507f000000000000000000000000000000000000000000000000000000000000000061024a565b3480156102a157600080fd5b5061013760015481565b61015a6102b936600461255f565b611233565b3480156102ca57600080fd5b5061015a6102d9366004612472565b61139a565b61015a6102ec3660046125a0565b611410565b60006001600160e01b031982166385572ffb60e01b148061032257506001600160e01b031982166301ffc9a760e01b145b92915050565b6003546040516370a0823160e01b81523060048201526000916001600160a01b0316906370a0823190602401602060405180830381865afa158015610371573d6000803e3d6000fd5b505050506040513d601f19601f8201168201806040525081019061039591906125cc565b905090565b33600081815260046020526040808220829055517ff9dd7d7eefe3dd64bbde615933315d92f38aac599b94f1ed0c0d28900e2c36b29190a2565b6103dc611453565b6103e660006114ad565b565b60015434101561041d57600154604051632973338960e01b815260048101919091523460248201526044015b60405180910390fd5b60008383604051602001610432929190612b51565b60408051601f198184030181529181528151602092830120336000908152600490935290822081905591508290036104945760405133907feeb70606d0471753bc0f18914e842c40fad1d77501bfb2c7c90df37f7cc1374f90600090a2610500565b816001036104cc5760405133907f9cb1134a02271a4012c75713868b85813f0d6462d1ed11b6db672c2ab192784e90600090a2610500565b816002036105005760405133907f6f4cacb1de3e514e704e0223fb68607d87ce4f0e2c56ea71063e0cbe656d0e1790600090a25b50505050565b336001600160a01b037f00000000000000000000000000000000000000000000000000000000000000001614610551576040516335fdcccd60e21b8152336004820152602401610414565b61056261055d82612de5565b6114fd565b50565b8181600081811061057857610578612e91565b905060200281019061058a9190612ea7565b6000805b61059b60e0840184612ec8565b90508110156105f6576105b160e0840184612ec8565b828181106105c1576105c1612e91565b90506020020160208101906105d69190612472565b6001600160a01b031633036105ee57600191506105f6565b60010161058e565b5060018115151461061a576040516361968ebb60e11b815260040160405180910390fd5b60008484600081811061062f5761062f612e91565b90506020028101906106419190612ea7565b61064a906133f4565b9050600460008261012001516001600160a01b03166001600160a01b0316815260200190815260200160002054858560405160200161068a929190612b51565b60405160208183030381529060405280519060200120036106be57604051633af9e48760e11b815260040160405180910390fd5b6003546101008201516001600160401b03600160a01b90920482169116036106f957604051632ae8538160e11b815260040160405180910390fd5b6040810151602082015161070d9042613553565b106107485742816040015182602001516107279190613566565b604051622ffd1f60ea1b815260048101929092526024820152604401610414565b60808101515115610a045760005b816080015151811015610a025760008260800151828151811061077b5761077b612e91565b6020908102919091010151516101208401516040516370a0823160e01b81526001600160a01b0391821660048201529116906370a0823190602401602060405180830381865afa1580156107d3573d6000803e3d6000fd5b505050506040513d601f19601f820116820180604052508101906107f791906125cc565b905060008360800151838151811061081157610811612e91565b60200260200101516020015151826108299190613579565b11156109f95760005b8360800151838151811061084857610848612e91565b602002602001015160200151518110156109f75760006108a5838660800151868151811061087857610878612e91565b602002602001015160400151848151811061089557610895612e91565b602002602001015160ff16611595565b90508461012001516001600160a01b031663468721a7866080015186815181106108d1576108d1612e91565b6020026020010151600001516000886080015188815181106108f5576108f5612e91565b602002602001015160200151868151811061091257610912612e91565b6020026020010151856040516024016109409291906001600160a01b03929092168252602082015260400190565b60408051601f198184030181529181526020820180516001600160e01b031663a9059cbb60e01b1790525160e085901b6001600160e01b031916815261098e93929190600090600401613603565b6020604051808303816000875af11580156109ad573d6000803e3d6000fd5b505050506040513d601f19601f820116820180604052508101906109d1919061364d565b6109ee576040516312171d8360e31b815260040160405180910390fd5b50600101610832565b505b50600101610756565b505b60a08101515115610ccf5760005b8160a0015151811015610ccd5760005b8260a001518281518110610a3857610a38612e91565b60200260200101516020015151811015610cc4578261012001516001600160a01b03168360a001518381518110610a7157610a71612e91565b6020026020010151600001516001600160a01b0316636352211e8560a001518581518110610aa157610aa1612e91565b6020026020010151602001518481518110610abe57610abe612e91565b60200260200101516040518263ffffffff1660e01b8152600401610ae491815260200190565b602060405180830381865afa158015610b01573d6000803e3d6000fd5b505050506040513d601f19601f82011682018060405250810190610b259190613675565b6001600160a01b031603610cbc578261012001516001600160a01b031663468721a78460a001518481518110610b5d57610b5d612e91565b60200260200101516000015160008661012001518760a001518781518110610b8757610b87612e91565b6020026020010151604001518681518110610ba457610ba4612e91565b60200260200101518860a001518781518110610bc257610bc2612e91565b6020026020010151602001518781518110610bdf57610bdf612e91565b60209081029190910101516040516001600160a01b039384166024820152929091166044830152606482015260840160408051601f198184030181529181526020820180516001600160e01b0316632142170760e11b1790525160e085901b6001600160e01b0319168152610c5c93929190600090600401613603565b6020604051808303816000875af1158015610c7b573d6000803e3d6000fd5b505050506040513d601f19601f82011682018060405250810190610c9f919061364d565b610cbc576040516312171d8360e31b815260040160405180910390fd5b600101610a22565b50600101610a12565b505b60c08101515115610fe25760005b8160c0015151811015610fe05760008260c001518281518110610d0257610d02612e91565b6020026020010151600001516001600160a01b031662fdd58e8461012001518560c001518581518110610d3757610d37612e91565b6020026020010151602001516040518363ffffffff1660e01b8152600401610d749291906001600160a01b03929092168252602082015260400190565b602060405180830381865afa158015610d91573d6000803e3d6000fd5b505050506040513d601f19601f82011682018060405250810190610db591906125cc565b905060008360c001518381518110610dcf57610dcf612e91565b6020026020010151604001515182610de79190613579565b1115610fd75760005b8360c001518381518110610e0657610e06612e91565b60200260200101516040015151811015610fd55760006001831115610e6357610e5c838660c001518681518110610e3f57610e3f612e91565b602002602001015160600151848151811061089557610895612e91565b9050610e6f565b82600103610e6f575060015b8461012001516001600160a01b031663468721a78660c001518681518110610e9957610e99612e91565b60200260200101516000015160008861012001518960c001518981518110610ec357610ec3612e91565b6020026020010151604001518781518110610ee057610ee0612e91565b60200260200101518a60c001518a81518110610efe57610efe612e91565b60200260200101516020015187604051602401610f1e9493929190613692565b60408051601f198184030181529181526020820180516001600160e01b0316637921219560e11b1790525160e085901b6001600160e01b0319168152610f6c93929190600090600401613603565b6020604051808303816000875af1158015610f8b573d6000803e3d6000fd5b505050506040513d601f19601f82011682018060405250810190610faf919061364d565b610fcc576040516312171d8360e31b815260040160405180910390fd5b50600101610df0565b505b50600101610cdd565b505b6101208101516001600160a01b03163160005b826060015160008151811061100c5761100c612e91565b6020026020010151600001515181101561113657600061105a83856060015160008151811061103d5761103d612e91565b602002602001015160200151848151811061089557610895612e91565b90508361012001516001600160a01b031663468721a7856060015160008151811061108757611087612e91565b60200260200101516000015184815181106110a4576110a4612e91565b60200260200101518360006040518463ffffffff1660e01b81526004016110cd939291906136d5565b6020604051808303816000875af11580156110ec573d6000803e3d6000fd5b505050506040513d601f19601f82011682018060405250810190611110919061364d565b61112d576040516312171d8360e31b815260040160405180910390fd5b50600101610ff5565b5060018511156111f05760015b858110156111ee576111e587878381811061116057611160612e91565b90506020028101906111729190612ea7565b6111859061012081019061010001613708565b88888481811061119757611197612e91565b90506020028101906111a99190612ea7565b6111bc9061016081019061014001612472565b8989858181106111ce576111ce612e91565b90506020028101906111e09190612ea7565b6115c4565b50600101611143565b505b8161012001516001600160a01b03167f16346f65adf8d84422b57ad74cb5607bf6c9e55c3c1fea66344057e5bba8a7ee60405160405180910390a2505050505050565b8181600081811061124657611246612e91565b90506020028101906112589190612ea7565b6000805b61126960e0840184612ec8565b90508110156112c45761127f60e0840184612ec8565b8281811061128f5761128f612e91565b90506020020160208101906112a49190612472565b6001600160a01b031633036112bc57600191506112c4565b60010161125c565b506001811515146112e8576040516361968ebb60e11b815260040160405180910390fd5b600084846040516020016112fd929190612b51565b60408051601f19818403018152918152815160209283012033600090815260049093529082208190559150859085908161133957611339612e91565b905060200281019061134b9190612ea7565b61135e9061018081019061016001612472565b6001600160a01b03167f74d50b0289278fa7db21584bc3d033fec675e475368963bda7a976558e6307d960405160405180910390a25050505050565b6113a2611453565b6001600160a01b0381166114075760405162461bcd60e51b815260206004820152602660248201527f4f776e61626c653a206e6577206f776e657220697320746865207a65726f206160448201526564647265737360d01b6064820152608401610414565b610562816114ad565b611418611453565b6040516001600160a01b0383169082156108fc029083906000818181858888f1935050505015801561144e573d6000803e3d6000fd5b505050565b6000546001600160a01b031633146103e65760405162461bcd60e51b815260206004820181905260248201527f4f776e61626c653a2063616c6c6572206973206e6f7420746865206f776e65726044820152606401610414565b600080546001600160a01b038381166001600160a01b0319831681178455604051919092169283917f8be0079c531659141344cd1fd0a4f28419497f9722a3daafe3b4186f6b6457e09190a35050565b600081606001518060200190518101906115179190613c13565b8251602080850151604086015180519495509293909260009261153f92820181019101613675565b905061154a846119ac565b816001600160401b0316837f1fe6b06416e8cb4498cad30c844ac42ebc36c5d99eefb674ecd0adb69018faf4838760405161158692919061402e565b60405180910390a35050505050565b6000806115a3836064614161565b90506127106115b28286614161565b6115bc9190613579565b949350505050565b6040805160a081019091526001600160a01b03831660c082015260009081908060e0810160405160208183030381529060405281526020018460405160200161160d9190614178565b60408051601f198184030181529190528152602001600060405190808252806020026020018201604052801561166957816020015b60408051808201909152600080825260208201528152602001906001900390816116425790505b5081526003546001600160a01b031660208083019190915260408051808201825262030d4080825260009184019182528251602481019190915290511515604480830191909152825180830390910181526064909101825291820180516001600160e01b03166397a657c960e01b179052909101526002546040516320487ded60e01b81529192506000916001600160a01b03909116906320487ded90611716908990869060040161418b565b602060405180830381865afa158015611733573d6000803e3d6000fd5b505050506040513d601f19601f8201168201806040525081019061175791906125cc565b6003546040516370a0823160e01b81523060048201529192506001600160a01b0316906370a0823190602401602060405180830381865afa1580156117a0573d6000803e3d6000fd5b505050506040513d601f19601f820116820180604052508101906117c491906125cc565b81111561185b576003546040516370a0823160e01b81523060048201526001600160a01b03909116906370a0823190602401602060405180830381865afa158015611813573d6000803e3d6000fd5b505050506040513d601f19601f8201168201806040525081019061183791906125cc565b604051634787a10360e11b8152600481019190915260248101829052604401610414565b60035460025460405163095ea7b360e01b81526001600160a01b0391821660048201526024810184905291169063095ea7b3906044016020604051808303816000875af11580156118b0573d6000803e3d6000fd5b505050506040513d601f19601f820116820180604052508101906118d4919061364d565b506002546040516396f4e9f960e01b81526001600160a01b03909116906396f4e9f990611907908990869060040161418b565b6020604051808303816000875af1158015611926573d6000803e3d6000fd5b505050506040513d601f19601f8201168201806040525081019061194a91906125cc565b6003546040519194506001600160401b0388169185917f69125e43b7abfc1fa9365749da93c3fdb8210eee6453979d728f5988b4a5bfed9161199b918a918a916001600160a01b0316908890614267565b60405180910390a350509392505050565b60808101515115611c625760005b816080015151811015611c60576000826080015182815181106119df576119df612e91565b6020908102919091010151516101208401516040516370a0823160e01b81526001600160a01b0391821660048201529116906370a0823190602401602060405180830381865afa158015611a37573d6000803e3d6000fd5b505050506040513d601f19601f82011682018060405250810190611a5b91906125cc565b9050600083608001518381518110611a7557611a75612e91565b6020026020010151602001515182611a8d9190613579565b1115611c575760005b83608001518381518110611aac57611aac612e91565b60200260200101516020015151811015611c55576000611adc838660800151868151811061087857610878612e91565b90508461012001516001600160a01b031663468721a786608001518681518110611b0857611b08612e91565b602002602001015160000151600088608001518881518110611b2c57611b2c612e91565b6020026020010151602001518681518110611b4957611b49612e91565b602002602001015185604051602401611b779291906001600160a01b03929092168252602082015260400190565b60408051601f198184030181529181526020820180516001600160e01b031663a9059cbb60e01b1790525160e085901b6001600160e01b0319168152611bc593929190600090600401613603565b6020604051808303816000875af1158015611be4573d6000803e3d6000fd5b505050506040513d601f19601f82011682018060405250810190611c08919061364d565b611c4c5760405162461bcd60e51b8152602060048201526015602482015274151bdad95b881d1c985b9cd9995c8819985a5b1959605a1b6044820152606401610414565b50600101611a96565b505b506001016119ba565b505b60a08101515115611f585760005b8160a0015151811015611f565760008260a001518281518110611c9557611c95612e91565b602002602001015160000151905060005b8360a001518381518110611cbc57611cbc612e91565b60200260200101516020015151811015611f4c578361012001516001600160a01b0316826001600160a01b0316636352211e8660a001518681518110611d0457611d04612e91565b6020026020010151602001518481518110611d2157611d21612e91565b60200260200101516040518263ffffffff1660e01b8152600401611d4791815260200190565b602060405180830381865afa158015611d64573d6000803e3d6000fd5b505050506040513d601f19601f82011682018060405250810190611d889190613675565b6001600160a01b031603611f44578361012001516001600160a01b031663468721a78560a001518581518110611dc057611dc0612e91565b60200260200101516000015160008761012001518860a001518881518110611dea57611dea612e91565b6020026020010151604001518681518110611e0757611e07612e91565b60200260200101518960a001518781518110611e2557611e25612e91565b6020026020010151602001518781518110611e4257611e42612e91565b60209081029190910101516040516001600160a01b039384166024820152929091166044830152606482015260840160408051601f198184030181529181526020820180516001600160e01b0316632142170760e11b1790525160e085901b6001600160e01b0319168152611ebf93929190600090600401613603565b6020604051808303816000875af1158015611ede573d6000803e3d6000fd5b505050506040513d601f19601f82011682018060405250810190611f02919061364d565b611f445760405162461bcd60e51b8152602060048201526013602482015272139195081d1c985b9cd9995c8819985a5b1959606a1b6044820152606401610414565b600101611ca6565b5050600101611c70565b505b60c0810151511561227d5760005b8160c001515181101561227b5760008260c001518281518110611f8b57611f8b612e91565b6020026020010151600001516001600160a01b031662fdd58e8461012001518560c001518581518110611fc057611fc0612e91565b6020026020010151602001516040518363ffffffff1660e01b8152600401611ffd9291906001600160a01b03929092168252602082015260400190565b602060405180830381865afa15801561201a573d6000803e3d6000fd5b505050506040513d601f19601f8201168201806040525081019061203e91906125cc565b905060008360c00151838151811061205857612058612e91565b60200260200101516040015151826120709190613579565b11156122725760005b8360c00151838151811061208f5761208f612e91565b6020026020010151604001515181101561227057600060018311156120cf576120c8838660c001518681518110610e3f57610e3f612e91565b90506120db565b826001036120db575060015b8461012001516001600160a01b031663468721a78660c00151868151811061210557612105612e91565b60200260200101516000015160008861012001518960c00151898151811061212f5761212f612e91565b602002602001015160400151878151811061214c5761214c612e91565b60200260200101518a60c001518a8151811061216a5761216a612e91565b6020026020010151602001518760405160240161218a9493929190613692565b60408051601f198184030181529181526020820180516001600160e01b0316637921219560e11b1790525160e085901b6001600160e01b03191681526121d893929190600090600401613603565b6020604051808303816000875af11580156121f7573d6000803e3d6000fd5b505050506040513d601f19601f8201168201806040525081019061221b919061364d565b6122675760405162461bcd60e51b815260206004820152601760248201527f65726331313535207472616e73666572206661696c65640000000000000000006044820152606401610414565b50600101612079565b505b50600101611f66565b505b6101208101516001600160a01b03163160005b82606001516000815181106122a7576122a7612e91565b602002602001015160000151518110156123dc5760006122d883856060015160008151811061103d5761103d612e91565b90508361012001516001600160a01b031663468721a7856060015160008151811061230557612305612e91565b602002602001015160000151848151811061232257612322612e91565b60200260200101518360006040518463ffffffff1660e01b815260040161234b939291906136d5565b6020604051808303816000875af115801561236a573d6000803e3d6000fd5b505050506040513d601f19601f8201168201806040525081019061238e919061364d565b6123d35760405162461bcd60e51b815260206004820152601660248201527513985d1a5d99481d1c985b9cd9995c8819985a5b195960521b6044820152606401610414565b50600101612290565b508161012001516001600160a01b03167f16346f65adf8d84422b57ad74cb5607bf6c9e55c3c1fea66344057e5bba8a7ee60405160405180910390a25050565b60006020828403121561242e57600080fd5b81356001600160e01b03198116811461244657600080fd5b9392505050565b6001600160a01b038116811461056257600080fd5b803561246d8161244d565b919050565b60006020828403121561248457600080fd5b81356124468161244d565b60008083601f8401126124a157600080fd5b5081356001600160401b038111156124b857600080fd5b6020830191508360208260051b85010111156124d357600080fd5b9250929050565b6000806000604084860312156124ef57600080fd5b83356001600160401b0381111561250557600080fd5b6125118682870161248f565b909790965060209590950135949350505050565b60006020828403121561253757600080fd5b81356001600160401b0381111561254d57600080fd5b820160a0818503121561244657600080fd5b6000806020838503121561257257600080fd5b82356001600160401b0381111561258857600080fd5b6125948582860161248f565b90969095509350505050565b600080604083850312156125b357600080fd5b82356125be8161244d565b946020939093013593505050565b6000602082840312156125de57600080fd5b5051919050565b801515811461056257600080fd5b803561246d816125e5565b6000808335601e1984360301811261261557600080fd5b83016020810192503590506001600160401b0381111561263457600080fd5b8060051b36038213156124d357600080fd5b8183526000602080850194508260005b858110156126845781356126698161244d565b6001600160a01b031687529582019590820190600101612656565b509495945050505050565b60ff8116811461056257600080fd5b8183526000602080850194508260005b858110156126845781356126c18161268f565b60ff16875295820195908201906001016126ae565b60008383855260208086019550808560051b830101846000805b8881101561276c57858403601f19018a52823536899003603e19018112612715578283fd5b8801604061272382806125fe565b8288526127338389018284612646565b92505050612743878301836125fe565b92508682038888015261275782848361269e565b9c88019c9650505092850192506001016126f0565b509198975050505050505050565b60008235605e1983360301811261279057600080fd5b90910192915050565b60008383855260208086019550808560051b8301018460005b8781101561283f57848303601f190189526127cd828861277a565b606081356127da8161244d565b6001600160a01b031685526127f1828701836125fe565b82888801526128038388018284612646565b925050506040612815818401846125fe565b93508683038288015261282983858361269e565b9c88019c965050509285019250506001016127b2565b5090979650505050505050565b818352602080840193600091600585811b830182018585805b8981101561290f57868403601f19018b52612880838a61277a565b6060813561288d8161244d565b6001600160a01b031686526128a4828901836125fe565b878a018390529187018290526080916001600160fb1b038111156128c6578586fd5b881b8082898501378701905060406128e0848201856125fe565b94508389840301828a01526128f88484018683612646565b9f8b019f9850505094880194505050600101612865565b50919998505050505050505050565b60008383855260208086019550808560051b830101846000805b8881101561276c57858403601f19018a52823536899003607e1901811261295d578283fd5b88016080813561296c8161244d565b6001600160a01b031686528187013587870152604061298d818401846125fe565b83838a015261299f848a018284612646565b935050505060606129b2818401846125fe565b9350878303828901526129c683858361269e565b9d89019d97505050938601935050600101612938565b6001600160401b038116811461056257600080fd5b803561246d816129dc565b6000610180612a1484612a0e856125f3565b15159052565b6020830135602085015260408301356040850152612a3560608401846125fe565b826060870152612a4883870182846126d6565b92505050612a5960808401846125fe565b8583036080870152612a6c838284612799565b92505050612a7d60a08401846125fe565b85830360a0870152612a9083828461284c565b92505050612aa160c08401846125fe565b85830360c0870152612ab483828461291e565b92505050612ac560e08401846125fe565b85830360e0870152612ad8838284612646565b92505050610100612aea8185016129f1565b6001600160401b031690850152610120612b05848201612462565b6001600160a01b031690850152610140612b20848201612462565b6001600160a01b031690850152610160612b3b848201612462565b6001600160a01b03169401939093525090919050565b60208082528181018390526000906040600585901b840181019084018684805b88811015612bb657878503603f190184528235368b900361017e19018112612b97578283fd5b612ba3868c83016129fc565b9550509285019291850191600101612b71565b509298975050505050505050565b634e487b7160e01b600052604160045260246000fd5b604080519081016001600160401b0381118282101715612bfc57612bfc612bc4565b60405290565b60405160a081016001600160401b0381118282101715612bfc57612bfc612bc4565b604051606081016001600160401b0381118282101715612bfc57612bfc612bc4565b604051608081016001600160401b0381118282101715612bfc57612bfc612bc4565b60405161018081016001600160401b0381118282101715612bfc57612bfc612bc4565b604051601f8201601f191681016001600160401b0381118282101715612cb357612cb3612bc4565b604052919050565b600082601f830112612ccc57600080fd5b81356001600160401b03811115612ce557612ce5612bc4565b612cf8601f8201601f1916602001612c8b565b818152846020838601011115612d0d57600080fd5b816020850160208301376000918101602001919091529392505050565b60006001600160401b03821115612d4357612d43612bc4565b5060051b60200190565b600082601f830112612d5e57600080fd5b81356020612d73612d6e83612d2a565b612c8b565b82815260069290921b84018101918181019086841115612d9257600080fd5b8286015b84811015612dda5760408189031215612daf5760008081fd5b612db7612bda565b8135612dc28161244d565b81528185013585820152835291830191604001612d96565b509695505050505050565b600060a08236031215612df757600080fd5b612dff612c02565b82358152612e0f602084016129f1565b602082015260408301356001600160401b0380821115612e2e57600080fd5b612e3a36838701612cbb565b60408401526060850135915080821115612e5357600080fd5b612e5f36838701612cbb565b60608401526080850135915080821115612e7857600080fd5b50612e8536828601612d4d565b60808301525092915050565b634e487b7160e01b600052603260045260246000fd5b6000823561017e19833603018112612ebe57600080fd5b9190910192915050565b6000808335601e19843603018112612edf57600080fd5b8301803591506001600160401b03821115612ef957600080fd5b6020019150600581901b36038213156124d357600080fd5b600082601f830112612f2257600080fd5b81356020612f32612d6e83612d2a565b8083825260208201915060208460051b870101935086841115612f5457600080fd5b602086015b84811015612dda578035612f6c8161244d565b8352918301918301612f59565b600082601f830112612f8a57600080fd5b81356020612f9a612d6e83612d2a565b8083825260208201915060208460051b870101935086841115612fbc57600080fd5b602086015b84811015612dda578035612fd48161268f565b8352918301918301612fc1565b600082601f830112612ff257600080fd5b81356020613002612d6e83612d2a565b82815260059290921b8401810191818101908684111561302157600080fd5b8286015b84811015612dda5780356001600160401b03808211156130455760008081fd5b908801906040828b03601f190181131561305f5760008081fd5b613067612bda565b87840135838111156130795760008081fd5b6130878d8a83880101612f11565b82525090830135908282111561309d5760008081fd5b6130ab8c8984870101612f79565b818901528652505050918301918301613025565b600082601f8301126130d057600080fd5b813560206130e0612d6e83612d2a565b82815260059290921b840181019181810190868411156130ff57600080fd5b8286015b84811015612dda5780356001600160401b03808211156131235760008081fd5b908801906060828b03601f190181131561313d5760008081fd5b613145612c24565b878401356131528161244d565b8152604084810135848111156131685760008081fd5b6131768e8b83890101612f11565b838b01525091840135918383111561318e5760008081fd5b61319c8d8a85880101612f79565b908201528652505050918301918301613103565b600082601f8301126131c157600080fd5b813560206131d1612d6e83612d2a565b82815260059290921b840181019181810190868411156131f057600080fd5b8286015b84811015612dda5780356001600160401b038082111561321357600080fd5b908801906060828b03601f1901121561322c5760008081fd5b613234612c24565b868301356132418161244d565b8152604083810135838111156132575760008081fd5b8401603f81018d136132695760008081fd5b88810135613279612d6e82612d2a565b81815260059190911b82018301908a8101908f8311156132995760008081fd5b928401925b828410156132b75783358252928b0192908b019061329e565b858c01525050506060840135838111156132d15760008081fd5b6132df8d8a83880101612f11565b9183019190915250855250509183019183016131f4565b600082601f83011261330757600080fd5b81356020613317612d6e83612d2a565b82815260059290921b8401810191818101908684111561333657600080fd5b8286015b84811015612dda5780356001600160401b038082111561335a5760008081fd5b908801906080828b03601f19018113156133745760008081fd5b61337c612c46565b878401356133898161244d565b815260408481013589830152606080860135858111156133a95760008081fd5b6133b78f8c838a0101612f11565b84840152509285013592848411156133d157600091508182fd5b6133df8e8b86890101612f79565b9083015250865250505091830191830161333a565b6000610180823603121561340757600080fd5b61340f612c68565b613418836125f3565b8152602083013560208201526040830135604082015260608301356001600160401b038082111561344857600080fd5b61345436838701612fe1565b6060840152608085013591508082111561346d57600080fd5b613479368387016130bf565b608084015260a085013591508082111561349257600080fd5b61349e368387016131b0565b60a084015260c08501359150808211156134b757600080fd5b6134c3368387016132f6565b60c084015260e08501359150808211156134dc57600080fd5b506134e936828601612f11565b60e0830152506101006134fd8185016129f1565b9082015261012061350f848201612462565b90820152610140613521848201612462565b90820152610160613533848201612462565b9082015292915050565b634e487b7160e01b600052601160045260246000fd5b818103818111156103225761032261353d565b808201808211156103225761032261353d565b60008261359657634e487b7160e01b600052601260045260246000fd5b500490565b6000815180845260005b818110156135c1576020818501810151868301820152016135a5565b506000602082860101526020601f19601f83011685010191505092915050565b600281106135ff57634e487b7160e01b600052602160045260246000fd5b9052565b60018060a01b038516815283602082015260806040820152600061362a608083018561359b565b905061363960608301846135e1565b95945050505050565b805161246d816125e5565b60006020828403121561365f57600080fd5b8151612446816125e5565b805161246d8161244d565b60006020828403121561368757600080fd5b81516124468161244d565b6001600160a01b0394851681529290931660208301526040820152606081019190915260a06080820181905260029082015261060f60f31b60c082015260e00190565b6001600160a01b03841681526020810183905260806040820181905260009082015260a081016115bc60608301846135e1565b60006020828403121561371a57600080fd5b8135612446816129dc565b600082601f83011261373657600080fd5b81516020613746612d6e83612d2a565b8083825260208201915060208460051b87010193508684111561376857600080fd5b602086015b84811015612dda5780516137808161244d565b835291830191830161376d565b600082601f83011261379e57600080fd5b815160206137ae612d6e83612d2a565b8083825260208201915060208460051b8701019350868411156137d057600080fd5b602086015b84811015612dda5780516137e88161268f565b83529183019183016137d5565b600082601f83011261380657600080fd5b81516020613816612d6e83612d2a565b82815260059290921b8401810191818101908684111561383557600080fd5b8286015b84811015612dda5780516001600160401b03808211156138595760008081fd5b908801906040828b03601f19018113156138735760008081fd5b61387b612bda565b878401518381111561388d5760008081fd5b61389b8d8a83880101613725565b8252509083015190828211156138b15760008081fd5b6138bf8c898487010161378d565b818901528652505050918301918301613839565b600082601f8301126138e457600080fd5b815160206138f4612d6e83612d2a565b82815260059290921b8401810191818101908684111561391357600080fd5b8286015b84811015612dda5780516001600160401b03808211156139375760008081fd5b908801906060828b03601f19018113156139515760008081fd5b613959612c24565b878401516139668161244d565b81526040848101518481111561397c5760008081fd5b61398a8e8b83890101613725565b838b0152509184015191838311156139a25760008081fd5b6139b08d8a8588010161378d565b908201528652505050918301918301613917565b600082601f8301126139d557600080fd5b815160206139e5612d6e83612d2a565b82815260059290921b84018101918181019086841115613a0457600080fd5b8286015b84811015612dda5780516001600160401b0380821115613a2757600080fd5b908801906060828b03601f19011215613a405760008081fd5b613a48612c24565b86830151613a558161244d565b815260408381015183811115613a6b5760008081fd5b8401603f81018d13613a7d5760008081fd5b88810151613a8d612d6e82612d2a565b81815260059190911b82018301908a8101908f831115613aad5760008081fd5b928401925b82841015613acb5783518252928b0192908b0190613ab2565b858c0152505050606084015183811115613ae55760008081fd5b613af38d8a83880101613725565b918301919091525085525050918301918301613a08565b600082601f830112613b1b57600080fd5b81516020613b2b612d6e83612d2a565b82815260059290921b84018101918181019086841115613b4a57600080fd5b8286015b84811015612dda5780516001600160401b0380821115613b6e5760008081fd5b908801906080828b03601f1901811315613b885760008081fd5b613b90612c46565b87840151613b9d8161244d565b81526040848101518983015260608086015185811115613bbd5760008081fd5b613bcb8f8c838a0101613725565b8484015250928501519284841115613be557600091508182fd5b613bf38e8b8689010161378d565b90830152508652505050918301918301613b4e565b805161246d816129dc565b600060208284031215613c2557600080fd5b81516001600160401b0380821115613c3c57600080fd5b908301906101808286031215613c5157600080fd5b613c59612c68565b613c6283613642565b81526020830151602082015260408301516040820152606083015182811115613c8a57600080fd5b613c96878286016137f5565b606083015250608083015182811115613cae57600080fd5b613cba878286016138d3565b60808301525060a083015182811115613cd257600080fd5b613cde878286016139c4565b60a08301525060c083015182811115613cf657600080fd5b613d0287828601613b0a565b60c08301525060e083015182811115613d1a57600080fd5b613d2687828601613725565b60e0830152506101009150613d3c828401613c08565b828201526101209150613d5082840161366a565b828201526101409150613d6482840161366a565b828201526101609150613d7882840161366a565b91810191909152949350505050565b60008151808452602080850194506020840160005b838110156126845781516001600160a01b031687529582019590820190600101613d9c565b60008151808452602080850194506020840160005b8381101561268457815160ff1687529582019590820190600101613dd6565b600082825180855260208086019550808260051b84010181860160005b8481101561283f57601f19868403018952815160408151818652613e3882870182613d87565b91505085820151915084810386860152613e528183613dc1565b9a86019a9450505090830190600101613e12565b600082825180855260208086019550808260051b84010181860160005b8481101561283f57858303601f19018952815180516001600160a01b0316845284810151606086860181905290613ebc82870182613d87565b91505060408083015192508582038187015250613ed98183613dc1565b9a86019a9450505090830190600101613e83565b600082825180855260208086019550808260051b8401018186016000805b8581101561276c57868403601f19018a52825180516001600160a01b031685528581015160608787018190528151908701819052608087019188019085905b80821015613f6a5782518452928901929189019160019190910190613f4a565b50505060408083015192508682038188015250613f878183613d87565b9b87019b9550505091840191600101613f0b565b600082825180855260208086019550808260051b84010181860160005b8481101561283f57858303601f19018952815180516001600160a01b03168452848101518585015260408082015160808287018190529190613ffc83880182613d87565b925050506060808301519250858203818701525061401a8183613dc1565b9a86019a9450505090830190600101613fb8565b6001600160a01b038316815260406020820181905282511515908201526020820151606082015260408201516080820152600060608301516101808060a085015261407d6101c0850183613df5565b91506080850151603f19808685030160c087015261409b8483613e66565b935060a08701519150808685030160e08701526140b88483613eed565b935060c087015191506101008187860301818801526140d78584613f9b565b945060e088015192506101208288870301818901526140f68685613d87565b95508189015193506101409250614117838901856001600160401b03169052565b88015192506101609050614135878201846001600160a01b03169052565b908701516001600160a01b03908116938701939093528601519182166101a08601525050949350505050565b80820281158282048414176103225761032261353d565b60208152600061244660208301846129fc565b600060406001600160401b03851683526020604081850152845160a060408601526141b960e086018261359b565b905081860151603f19808784030160608801526141d6838361359b565b6040890151888203830160808a01528051808352908601945060009350908501905b8084101561422a57845180516001600160a01b03168352860151868301529385019360019390930192908601906141f8565b5060608901516001600160a01b031660a08901526080890151888203830160c08a01529550614259818761359b565b9a9950505050505050505050565b600060018060a01b0380871683526080602084015261428960808401876129fc565b9416604083015250606001529291505056fea2646970667358221220283dfd37c2621f01ce98fc6f7857fd49f2cd90363436f5847711a6eca8f5e00264736f6c63430008180033","linkReferences":{}},"methodIdentifiers":{"ccipReceive((bytes32,uint64,bytes,bytes,(address,uint256)[]))":"85572ffb","chainSelector()":"4e4bc847","deleteWill()":"210879f4","execute((bool,uint256,uint256,(address[],uint8[])[],(address,address[],uint8[])[],(address,uint256[],address[])[],(address,uint256,address[],uint8[])[],address[],uint64,address,address,address)[])":"876fabaf","fee()":"ddca3f43","getBalance()":"12065fe0","getRouter()":"b0f479a1","owner()":"8da5cb5b","renounceOwnership()":"715018a6","requestExecution((bool,uint256,uint256,(address[],uint8[])[],(address,address[],uint8[])[],(address,uint256[],address[])[],(address,uint256,address[],uint8[])[],address[],uint64,address,address,address)[])":"e2e4cc00","saveWillHash((bool,uint256,uint256,(address[],uint8[])[],(address,address[],uint8[])[],(address,uint256[],address[])[],(address,uint256,address[],uint8[])[],address[],uint64,address,address,address)[],uint256)":"7a87da8e","supportsInterface(bytes4)":"01ffc9a7","transferOwnership(address)":"f2fde38b","willHashes(address)":"6df5a5ab","withdraw(address,uint256)":"f3fef3a3"},"id":1}