{"abi":[{"type":"constructor","inputs":[{"name":"_fee","type":"uint256","internalType":"uint256"},{"name":"_router","type":"address","internalType":"address"},{"name":"_link","type":"address","internalType":"address"},{"name":"_chainSelector","type":"uint64","internalType":"uint64"}],"stateMutability":"nonpayable"},{"type":"function","name":"chainSelector","inputs":[],"outputs":[{"name":"","type":"uint64","internalType":"uint64"}],"stateMutability":"view"},{"type":"function","name":"deleteWill","inputs":[],"outputs":[],"stateMutability":"nonpayable"},{"type":"function","name":"execute","inputs":[{"name":"wills","type":"tuple[]","internalType":"struct MementoMori.Will[]","components":[{"name":"isActive","type":"bool","internalType":"bool"},{"name":"requestTime","type":"uint256","internalType":"uint256"},{"name":"cooldown","type":"uint256","internalType":"uint256"},{"name":"native","type":"tuple[]","internalType":"struct MementoMori.Native[]","components":[{"name":"beneficiaries","type":"address[]","internalType":"address[]"},{"name":"percentages","type":"uint8[]","internalType":"uint8[]"}]},{"name":"tokens","type":"tuple[]","internalType":"struct MementoMori.Token[]","components":[{"name":"contractAddress","type":"address","internalType":"address"},{"name":"beneficiaries","type":"address[]","internalType":"address[]"},{"name":"percentages","type":"uint8[]","internalType":"uint8[]"}]},{"name":"nfts","type":"tuple[]","internalType":"struct MementoMori.NFT[]","components":[{"name":"contractAddress","type":"address","internalType":"address"},{"name":"tokenIds","type":"uint256[]","internalType":"uint256[]"},{"name":"beneficiaries","type":"address[]","internalType":"address[]"}]},{"name":"erc1155s","type":"tuple[]","internalType":"struct MementoMori.ERC1155[]","components":[{"name":"contractAddress","type":"address","internalType":"address"},{"name":"tokenId","type":"uint256","internalType":"uint256"},{"name":"beneficiaries","type":"address[]","internalType":"address[]"},{"name":"percentages","type":"uint8[]","internalType":"uint8[]"}]},{"name":"executors","type":"address[]","internalType":"address[]"},{"name":"chainSelector","type":"uint64","internalType":"uint64"},{"name":"safe","type":"address","internalType":"address"},{"name":"xChainAddress","type":"address","internalType":"address"},{"name":"baseAddress","type":"address","internalType":"address"}]}],"outputs":[],"stateMutability":"nonpayable"},{"type":"function","name":"fee","inputs":[],"outputs":[{"name":"","type":"uint256","internalType":"uint256"}],"stateMutability":"view"},{"type":"function","name":"getBalance","inputs":[],"outputs":[{"name":"","type":"uint256","internalType":"uint256"}],"stateMutability":"view"},{"type":"function","name":"owner","inputs":[],"outputs":[{"name":"","type":"address","internalType":"address"}],"stateMutability":"view"},{"type":"function","name":"renounceOwnership","inputs":[],"outputs":[],"stateMutability":"nonpayable"},{"type":"function","name":"requestExecution","inputs":[{"name":"wills","type":"tuple[]","internalType":"struct MementoMori.Will[]","components":[{"name":"isActive","type":"bool","internalType":"bool"},{"name":"requestTime","type":"uint256","internalType":"uint256"},{"name":"cooldown","type":"uint256","internalType":"uint256"},{"name":"native","type":"tuple[]","internalType":"struct MementoMori.Native[]","components":[{"name":"beneficiaries","type":"address[]","internalType":"address[]"},{"name":"percentages","type":"uint8[]","internalType":"uint8[]"}]},{"name":"tokens","type":"tuple[]","internalType":"struct MementoMori.Token[]","components":[{"name":"contractAddress","type":"address","internalType":"address"},{"name":"beneficiaries","type":"address[]","internalType":"address[]"},{"name":"percentages","type":"uint8[]","internalType":"uint8[]"}]},{"name":"nfts","type":"tuple[]","internalType":"struct MementoMori.NFT[]","components":[{"name":"contractAddress","type":"address","internalType":"address"},{"name":"tokenIds","type":"uint256[]","internalType":"uint256[]"},{"name":"beneficiaries","type":"address[]","internalType":"address[]"}]},{"name":"erc1155s","type":"tuple[]","internalType":"struct MementoMori.ERC1155[]","components":[{"name":"contractAddress","type":"address","internalType":"address"},{"name":"tokenId","type":"uint256","internalType":"uint256"},{"name":"beneficiaries","type":"address[]","internalType":"address[]"},{"name":"percentages","type":"uint8[]","internalType":"uint8[]"}]},{"name":"executors","type":"address[]","internalType":"address[]"},{"name":"chainSelector","type":"uint64","internalType":"uint64"},{"name":"safe","type":"address","internalType":"address"},{"name":"xChainAddress","type":"address","internalType":"address"},{"name":"baseAddress","type":"address","internalType":"address"}]}],"outputs":[],"stateMutability":"payable"},{"type":"function","name":"saveWillHash","inputs":[{"name":"wills","type":"tuple[]","internalType":"struct MementoMori.Will[]","components":[{"name":"isActive","type":"bool","internalType":"bool"},{"name":"requestTime","type":"uint256","internalType":"uint256"},{"name":"cooldown","type":"uint256","internalType":"uint256"},{"name":"native","type":"tuple[]","internalType":"struct MementoMori.Native[]","components":[{"name":"beneficiaries","type":"address[]","internalType":"address[]"},{"name":"percentages","type":"uint8[]","internalType":"uint8[]"}]},{"name":"tokens","type":"tuple[]","internalType":"struct MementoMori.Token[]","components":[{"name":"contractAddress","type":"address","internalType":"address"},{"name":"beneficiaries","type":"address[]","internalType":"address[]"},{"name":"percentages","type":"uint8[]","internalType":"uint8[]"}]},{"name":"nfts","type":"tuple[]","internalType":"struct MementoMori.NFT[]","components":[{"name":"contractAddress","type":"address","internalType":"address"},{"name":"tokenIds","type":"uint256[]","internalType":"uint256[]"},{"name":"beneficiaries","type":"address[]","internalType":"address[]"}]},{"name":"erc1155s","type":"tuple[]","internalType":"struct MementoMori.ERC1155[]","components":[{"name":"contractAddress","type":"address","internalType":"address"},{"name":"tokenId","type":"uint256","internalType":"uint256"},{"name":"beneficiaries","type":"address[]","internalType":"address[]"},{"name":"percentages","type":"uint8[]","internalType":"uint8[]"}]},{"name":"executors","type":"address[]","internalType":"address[]"},{"name":"chainSelector","type":"uint64","internalType":"uint64"},{"name":"safe","type":"address","internalType":"address"},{"name":"xChainAddress","type":"address","internalType":"address"},{"name":"baseAddress","type":"address","internalType":"address"}]},{"name":"operationType","type":"uint256","internalType":"uint256"}],"outputs":[],"stateMutability":"payable"},{"type":"function","name":"transferOwnership","inputs":[{"name":"newOwner","type":"address","internalType":"address"}],"outputs":[],"stateMutability":"nonpayable"},{"type":"function","name":"willHashes","inputs":[{"name":"","type":"address","internalType":"address"}],"outputs":[{"name":"","type":"bytes32","internalType":"bytes32"}],"stateMutability":"view"},{"type":"function","name":"withdraw","inputs":[{"name":"recipient","type":"address","internalType":"address payable"},{"name":"amount","type":"uint256","internalType":"uint256"}],"outputs":[],"stateMutability":"payable"},{"type":"event","name":"ExecutionCancelled","inputs":[{"name":"owner","type":"address","indexed":true,"internalType":"address"}],"anonymous":false},{"type":"event","name":"ExecutionRequested","inputs":[{"name":"owner","type":"address","indexed":true,"internalType":"address"}],"anonymous":false},{"type":"event","name":"MessageSent","inputs":[{"name":"messageId","type":"bytes32","indexed":true,"internalType":"bytes32"},{"name":"destinationChainSelector","type":"uint64","indexed":true,"internalType":"uint64"},{"name":"receiver","type":"address","indexed":false,"internalType":"address"},{"name":"will","type":"tuple","indexed":false,"internalType":"struct MementoMori.Will","components":[{"name":"isActive","type":"bool","internalType":"bool"},{"name":"requestTime","type":"uint256","internalType":"uint256"},{"name":"cooldown","type":"uint256","internalType":"uint256"},{"name":"native","type":"tuple[]","internalType":"struct MementoMori.Native[]","components":[{"name":"beneficiaries","type":"address[]","internalType":"address[]"},{"name":"percentages","type":"uint8[]","internalType":"uint8[]"}]},{"name":"tokens","type":"tuple[]","internalType":"struct MementoMori.Token[]","components":[{"name":"contractAddress","type":"address","internalType":"address"},{"name":"beneficiaries","type":"address[]","internalType":"address[]"},{"name":"percentages","type":"uint8[]","internalType":"uint8[]"}]},{"name":"nfts","type":"tuple[]","internalType":"struct MementoMori.NFT[]","components":[{"name":"contractAddress","type":"address","internalType":"address"},{"name":"tokenIds","type":"uint256[]","internalType":"uint256[]"},{"name":"beneficiaries","type":"address[]","internalType":"address[]"}]},{"name":"erc1155s","type":"tuple[]","internalType":"struct MementoMori.ERC1155[]","components":[{"name":"contractAddress","type":"address","internalType":"address"},{"name":"tokenId","type":"uint256","internalType":"uint256"},{"name":"beneficiaries","type":"address[]","internalType":"address[]"},{"name":"percentages","type":"uint8[]","internalType":"uint8[]"}]},{"name":"executors","type":"address[]","internalType":"address[]"},{"name":"chainSelector","type":"uint64","internalType":"uint64"},{"name":"safe","type":"address","internalType":"address"},{"name":"xChainAddress","type":"address","internalType":"address"},{"name":"baseAddress","type":"address","internalType":"address"}]},{"name":"feeToken","type":"address","indexed":false,"internalType":"address"},{"name":"fees","type":"uint256","indexed":false,"internalType":"uint256"}],"anonymous":false},{"type":"event","name":"OwnershipTransferred","inputs":[{"name":"previousOwner","type":"address","indexed":true,"internalType":"address"},{"name":"newOwner","type":"address","indexed":true,"internalType":"address"}],"anonymous":false},{"type":"event","name":"WillCreated","inputs":[{"name":"owner","type":"address","indexed":true,"internalType":"address"}],"anonymous":false},{"type":"event","name":"WillDeleted","inputs":[{"name":"owner","type":"address","indexed":true,"internalType":"address"}],"anonymous":false},{"type":"event","name":"WillExecuted","inputs":[{"name":"owner","type":"address","indexed":true,"internalType":"address"}],"anonymous":false},{"type":"event","name":"WillUpdated","inputs":[{"name":"owner","type":"address","indexed":true,"internalType":"address"}],"anonymous":false},{"type":"error","name":"ChainSelectorsDontMatch","inputs":[]},{"type":"error","name":"HashesDontMatch","inputs":[]},{"type":"error","name":"NotEnoughBalance","inputs":[{"name":"currentBalance","type":"uint256","internalType":"uint256"},{"name":"calculatedFees","type":"uint256","internalType":"uint256"}]},{"type":"error","name":"NotExecutor","inputs":[]},{"type":"error","name":"StillInCooldown","inputs":[{"name":"current","type":"uint256","internalType":"uint256"},{"name":"cooldown","type":"uint256","internalType":"uint256"}]},{"type":"error","name":"TransferFailed","inputs":[]},{"type":"error","name":"ValueLessThanFee","inputs":[{"name":"fee","type":"uint256","internalType":"uint256"},{"name":"value","type":"uint256","internalType":"uint256"}]}],"bytecode":{"object":"0x60806040523480156200001157600080fd5b5060405162002b4d38038062002b4d833981016040819052620000349162000102565b6200003f3362000095565b600193909355600280546001600160a01b039384166001600160a01b0319909116179055600380546001600160401b03909416600160a01b026001600160e01b0319909416919092161791909117905562000164565b600080546001600160a01b038381166001600160a01b0319831681178455604051919092169283917f8be0079c531659141344cd1fd0a4f28419497f9722a3daafe3b4186f6b6457e09190a35050565b80516001600160a01b0381168114620000fd57600080fd5b919050565b600080600080608085870312156200011957600080fd5b845193506200012b60208601620000e5565b92506200013b60408601620000e5565b60608601519092506001600160401b03811681146200015957600080fd5b939692955090935050565b6129d980620001746000396000f3fe6080604052600436106100a75760003560e01c8063876fabaf11610064578063876fabaf1461017f5780638da5cb5b1461019f578063ddca3f43146101c7578063e2e4cc00146101dd578063f2fde38b146101f0578063f3fef3a31461021057600080fd5b806312065fe0146100ac578063210879f4146100d45780634e4bc847146100eb5780636df5a5ab1461012a578063715018a6146101575780637a87da8e1461016c575b600080fd5b3480156100b857600080fd5b506100c1610223565b6040519081526020015b60405180910390f35b3480156100e057600080fd5b506100e9610295565b005b3480156100f757600080fd5b5060035461011290600160a01b90046001600160401b031681565b6040516001600160401b0390911681526020016100cb565b34801561013657600080fd5b506100c161014536600461180c565b60046020526000908152604090205481565b34801561016357600080fd5b506100e96102cf565b6100e961017a36600461187b565b6102e3565b34801561018b57600080fd5b506100e961019a3660046118c6565b610400565b3480156101ab57600080fd5b506000546040516001600160a01b0390911681526020016100cb565b3480156101d357600080fd5b506100c160015481565b6100e96101eb3660046118c6565b611101565b3480156101fc57600080fd5b506100e961020b36600461180c565b611268565b6100e961021e366004611907565b6112e1565b6003546040516370a0823160e01b81523060048201526000916001600160a01b0316906370a0823190602401602060405180830381865afa15801561026c573d6000803e3d6000fd5b505050506040513d601f19601f820116820180604052508101906102909190611933565b905090565b33600081815260046020526040808220829055517ff9dd7d7eefe3dd64bbde615933315d92f38aac599b94f1ed0c0d28900e2c36b29190a2565b6102d7611324565b6102e1600061137e565b565b600154341061031757600154604051632973338960e01b815260048101919091523460248201526044015b60405180910390fd5b6000838360405160200161032c929190611eaf565b60408051601f1981840301815291815281516020928301203360009081526004909352908220819055915082900361038e5760405133907feeb70606d0471753bc0f18914e842c40fad1d77501bfb2c7c90df37f7cc1374f90600090a26103fa565b816001036103c65760405133907f9cb1134a02271a4012c75713868b85813f0d6462d1ed11b6db672c2ab192784e90600090a26103fa565b816002036103fa5760405133907f6f4cacb1de3e514e704e0223fb68607d87ce4f0e2c56ea71063e0cbe656d0e1790600090a25b50505050565b8181600081811061041357610413611f22565b90506020028101906104259190611f38565b6000805b61043660e0840184611f59565b90508110156104915761044c60e0840184611f59565b8281811061045c5761045c611f22565b9050602002016020810190610471919061180c565b6001600160a01b031633036104895760019150610491565b600101610429565b506001811515146104b5576040516361968ebb60e11b815260040160405180910390fd5b6000848460008181106104ca576104ca611f22565b90506020028101906104dc9190611f38565b6104e59061258b565b9050600460008261012001516001600160a01b03166001600160a01b03168152602001908152602001600020548585604051602001610525929190611eaf565b604051602081830303815290604052805190602001200361055957604051633af9e48760e11b815260040160405180910390fd5b6003546101008201516001600160401b03600160a01b909204821691160361059457604051632ae8538160e11b815260040160405180910390fd5b604081015160208201516105a890426126ea565b106105e35742816040015182602001516105c291906126fd565b604051622ffd1f60ea1b81526004810192909252602482015260440161030e565b6080810151511561089f5760005b81608001515181101561089d5760008260800151828151811061061657610616611f22565b6020908102919091010151516101208401516040516370a0823160e01b81526001600160a01b0391821660048201529116906370a0823190602401602060405180830381865afa15801561066e573d6000803e3d6000fd5b505050506040513d601f19601f820116820180604052508101906106929190611933565b90506000836080015183815181106106ac576106ac611f22565b60200260200101516020015151826106c49190612710565b11156108945760005b836080015183815181106106e3576106e3611f22565b60200260200101516020015151811015610892576000610740838660800151868151811061071357610713611f22565b602002602001015160400151848151811061073057610730611f22565b602002602001015160ff166113ce565b90508461012001516001600160a01b031663468721a78660800151868151811061076c5761076c611f22565b60200260200101516000015160008860800151888151811061079057610790611f22565b60200260200101516020015186815181106107ad576107ad611f22565b6020026020010151856040516024016107db9291906001600160a01b03929092168252602082015260400190565b60408051601f198184030181529181526020820180516001600160e01b031663a9059cbb60e01b1790525160e085901b6001600160e01b03191681526108299392919060009060040161279a565b6020604051808303816000875af1158015610848573d6000803e3d6000fd5b505050506040513d601f19601f8201168201806040525081019061086c91906127d9565b610889576040516312171d8360e31b815260040160405180910390fd5b506001016106cd565b505b506001016105f1565b505b60a08101515115610b6a5760005b8160a0015151811015610b685760005b8260a0015182815181106108d3576108d3611f22565b60200260200101516020015151811015610b5f578261012001516001600160a01b03168360a00151838151811061090c5761090c611f22565b6020026020010151600001516001600160a01b0316636352211e8560a00151858151811061093c5761093c611f22565b602002602001015160200151848151811061095957610959611f22565b60200260200101516040518263ffffffff1660e01b815260040161097f91815260200190565b602060405180830381865afa15801561099c573d6000803e3d6000fd5b505050506040513d601f19601f820116820180604052508101906109c091906127f6565b6001600160a01b031603610b57578261012001516001600160a01b031663468721a78460a0015184815181106109f8576109f8611f22565b60200260200101516000015160008661012001518760a001518781518110610a2257610a22611f22565b6020026020010151604001518681518110610a3f57610a3f611f22565b60200260200101518860a001518781518110610a5d57610a5d611f22565b6020026020010151602001518781518110610a7a57610a7a611f22565b60209081029190910101516040516001600160a01b039384166024820152929091166044830152606482015260840160408051601f198184030181529181526020820180516001600160e01b0316632142170760e11b1790525160e085901b6001600160e01b0319168152610af79392919060009060040161279a565b6020604051808303816000875af1158015610b16573d6000803e3d6000fd5b505050506040513d601f19601f82011682018060405250810190610b3a91906127d9565b610b57576040516312171d8360e31b815260040160405180910390fd5b6001016108bd565b506001016108ad565b505b60c08101515115610eb05760005b8160c0015151811015610eae5760008260c001518281518110610b9d57610b9d611f22565b6020026020010151600001516001600160a01b031662fdd58e8461012001518560c001518581518110610bd257610bd2611f22565b6020026020010151602001516040518363ffffffff1660e01b8152600401610c0f9291906001600160a01b03929092168252602082015260400190565b602060405180830381865afa158015610c2c573d6000803e3d6000fd5b505050506040513d601f19601f82011682018060405250810190610c509190611933565b905060008360c001518381518110610c6a57610c6a611f22565b6020026020010151604001515182610c829190612710565b1115610ea55760005b8360c001518381518110610ca157610ca1611f22565b60200260200101516040015151811015610ea35760006001831115610cfe57610cf7838660c001518681518110610cda57610cda611f22565b602002602001015160600151848151811061073057610730611f22565b9050610d0a565b82600103610d0a575060015b8461012001516001600160a01b031663468721a78660c001518681518110610d3457610d34611f22565b60200260200101516000015160008861012001518960c001518981518110610d5e57610d5e611f22565b6020026020010151604001518781518110610d7b57610d7b611f22565b60200260200101518a60c001518a81518110610d9957610d99611f22565b60209081029190910181015101516040516001600160a01b03938416602482015292909116604483015260648201526084810186905260a060a4820152600260c482015261060f60f31b60e48201526101040160408051601f198184030181529181526020820180516001600160e01b0316637921219560e11b1790525160e085901b6001600160e01b0319168152610e3a9392919060009060040161279a565b6020604051808303816000875af1158015610e59573d6000803e3d6000fd5b505050506040513d601f19601f82011682018060405250810190610e7d91906127d9565b610e9a576040516312171d8360e31b815260040160405180910390fd5b50600101610c8b565b505b50600101610b78565b505b6101208101516001600160a01b03163160005b8260600151600081518110610eda57610eda611f22565b60200260200101516000015151811015611004576000610f28838560600151600081518110610f0b57610f0b611f22565b602002602001015160200151848151811061073057610730611f22565b90508361012001516001600160a01b031663468721a78560600151600081518110610f5557610f55611f22565b6020026020010151600001518481518110610f7257610f72611f22565b60200260200101518360006040518463ffffffff1660e01b8152600401610f9b93929190612813565b6020604051808303816000875af1158015610fba573d6000803e3d6000fd5b505050506040513d601f19601f82011682018060405250810190610fde91906127d9565b610ffb576040516312171d8360e31b815260040160405180910390fd5b50600101610ec3565b5060018511156110be5760015b858110156110bc576110b387878381811061102e5761102e611f22565b90506020028101906110409190611f38565b611053906101208101906101000161284e565b88888481811061106557611065611f22565b90506020028101906110779190611f38565b61108a906101608101906101400161180c565b89898581811061109c5761109c611f22565b90506020028101906110ae9190611f38565b6113ff565b50600101611011565b505b8161012001516001600160a01b03167f16346f65adf8d84422b57ad74cb5607bf6c9e55c3c1fea66344057e5bba8a7ee60405160405180910390a2505050505050565b8181600081811061111457611114611f22565b90506020028101906111269190611f38565b6000805b61113760e0840184611f59565b90508110156111925761114d60e0840184611f59565b8281811061115d5761115d611f22565b9050602002016020810190611172919061180c565b6001600160a01b0316330361118a5760019150611192565b60010161112a565b506001811515146111b6576040516361968ebb60e11b815260040160405180910390fd5b600084846040516020016111cb929190611eaf565b60408051601f19818403018152918152815160209283012033600090815260049093529082208190559150859085908161120757611207611f22565b90506020028101906112199190611f38565b61122c906101808101906101600161180c565b6001600160a01b03167f74d50b0289278fa7db21584bc3d033fec675e475368963bda7a976558e6307d960405160405180910390a25050505050565b611270611324565b6001600160a01b0381166112d55760405162461bcd60e51b815260206004820152602660248201527f4f776e61626c653a206e6577206f776e657220697320746865207a65726f206160448201526564647265737360d01b606482015260840161030e565b6112de8161137e565b50565b6112e9611324565b6040516001600160a01b0383169082156108fc029083906000818181858888f1935050505015801561131f573d6000803e3d6000fd5b505050565b6000546001600160a01b031633146102e15760405162461bcd60e51b815260206004820181905260248201527f4f776e61626c653a2063616c6c6572206973206e6f7420746865206f776e6572604482015260640161030e565b600080546001600160a01b038381166001600160a01b0319831681178455604051919092169283917f8be0079c531659141344cd1fd0a4f28419497f9722a3daafe3b4186f6b6457e09190a35050565b6000806113dc836064612869565b90506127106113eb8286612869565b6113f59190612710565b9150505b92915050565b6040805160a081019091526001600160a01b03831660c082015260009081908060e081016040516020818303038152906040528152602001846040516020016114489190612880565b60408051601f19818403018152919052815260200160006040519080825280602002602001820160405280156114a457816020015b604080518082019091526000808252602082015281526020019060019003908161147d5790505b5081526003546001600160a01b031660208083019190915260408051808201825262030d4080825260009184019182528251602481019190915290511515604480830191909152825180830390910181526064909101825291820180516001600160e01b03166397a657c960e01b179052909101526002546040516320487ded60e01b81529192506000916001600160a01b03909116906320487ded906115519089908690600401612893565b602060405180830381865afa15801561156e573d6000803e3d6000fd5b505050506040513d601f19601f820116820180604052508101906115929190611933565b6003546040516370a0823160e01b81523060048201529192506001600160a01b0316906370a0823190602401602060405180830381865afa1580156115db573d6000803e3d6000fd5b505050506040513d601f19601f820116820180604052508101906115ff9190611933565b811115611696576003546040516370a0823160e01b81523060048201526001600160a01b03909116906370a0823190602401602060405180830381865afa15801561164e573d6000803e3d6000fd5b505050506040513d601f19601f820116820180604052508101906116729190611933565b604051634787a10360e11b815260048101919091526024810182905260440161030e565b60035460025460405163095ea7b360e01b81526001600160a01b0391821660048201526024810184905291169063095ea7b3906044016020604051808303816000875af11580156116eb573d6000803e3d6000fd5b505050506040513d601f19601f8201168201806040525081019061170f91906127d9565b506002546040516396f4e9f960e01b81526001600160a01b03909116906396f4e9f9906117429089908690600401612893565b6020604051808303816000875af1158015611761573d6000803e3d6000fd5b505050506040513d601f19601f820116820180604052508101906117859190611933565b6003546040519194506001600160401b0388169185917f69125e43b7abfc1fa9365749da93c3fdb8210eee6453979d728f5988b4a5bfed916117d6918a918a916001600160a01b031690889061296f565b60405180910390a350509392505050565b6001600160a01b03811681146112de57600080fd5b8035611807816117e7565b919050565b60006020828403121561181e57600080fd5b8135611829816117e7565b9392505050565b60008083601f84011261184257600080fd5b5081356001600160401b0381111561185957600080fd5b6020830191508360208260051b850101111561187457600080fd5b9250929050565b60008060006040848603121561189057600080fd5b83356001600160401b038111156118a657600080fd5b6118b286828701611830565b909790965060209590950135949350505050565b600080602083850312156118d957600080fd5b82356001600160401b038111156118ef57600080fd5b6118fb85828601611830565b90969095509350505050565b6000806040838503121561191a57600080fd5b8235611925816117e7565b946020939093013593505050565b60006020828403121561194557600080fd5b5051919050565b80151581146112de57600080fd5b80356118078161194c565b6000808335601e1984360301811261197c57600080fd5b83016020810192503590506001600160401b0381111561199b57600080fd5b8060051b360382131561187457600080fd5b8183526000602080850194508260005b858110156119eb5781356119d0816117e7565b6001600160a01b0316875295820195908201906001016119bd565b509495945050505050565b803560ff8116811461180757600080fd5b8183526000602080850194508260005b858110156119eb5760ff611a2a836119f6565b1687529582019590820190600101611a17565b60008383855260208086019550808560051b830101846000805b88811015611ad357858403601f19018a52823536899003603e19018112611a7c578283fd5b88016040611a8a8280611965565b828852611a9a83890182846119ad565b92505050611aaa87830183611965565b925086820388880152611abe828483611a07565b9c88019c965050509285019250600101611a57565b509198975050505050505050565b60008235605e19833603018112611af757600080fd5b90910192915050565b60008383855260208086019550808560051b8301018460005b87811015611ba657848303601f19018952611b348288611ae1565b60608135611b41816117e7565b6001600160a01b03168552611b5882870183611965565b8288880152611b6a83880182846119ad565b925050506040611b7c81840184611965565b935086830382880152611b90838583611a07565b9c88019c96505050928501925050600101611b19565b5090979650505050505050565b818352602080840193600091600585811b830182018585805b89811015611c7657868403601f19018b52611be7838a611ae1565b60608135611bf4816117e7565b6001600160a01b03168652611c0b82890183611965565b878a018390529187018290526080916001600160fb1b03811115611c2d578586fd5b881b808289850137870190506040611c4784820185611965565b94508389840301828a0152611c5f84840186836119ad565b9f8b019f9850505094880194505050600101611bcc565b50919998505050505050505050565b60008383855260208086019550808560051b830101846000805b88811015611ad357858403601f19018a52823536899003607e19018112611cc4578283fd5b880160808135611cd3816117e7565b6001600160a01b0316865281870135878701526040611cf481840184611965565b83838a0152611d06848a0182846119ad565b93505050506060611d1981840184611965565b935087830382890152611d2d838583611a07565b9d89019d97505050938601935050600101611c9f565b80356001600160401b038116811461180757600080fd5b6000610180611d7284611d6c8561195a565b15159052565b6020830135602085015260408301356040850152611d936060840184611965565b826060870152611da68387018284611a3d565b92505050611db76080840184611965565b8583036080870152611dca838284611b00565b92505050611ddb60a0840184611965565b85830360a0870152611dee838284611bb3565b92505050611dff60c0840184611965565b85830360c0870152611e12838284611c85565b92505050611e2360e0840184611965565b85830360e0870152611e368382846119ad565b92505050610100611e48818501611d43565b6001600160401b031690850152610120611e638482016117fc565b6001600160a01b031690850152610140611e7e8482016117fc565b6001600160a01b031690850152610160611e998482016117fc565b6001600160a01b03169401939093525090919050565b60208082528181018390526000906040600585901b840181019084018684805b88811015611f1457878503603f190184528235368b900361017e19018112611ef5578283fd5b611f01868c8301611d5a565b9550509285019291850191600101611ecf565b509298975050505050505050565b634e487b7160e01b600052603260045260246000fd5b6000823561017e19833603018112611f4f57600080fd5b9190910192915050565b6000808335601e19843603018112611f7057600080fd5b8301803591506001600160401b03821115611f8a57600080fd5b6020019150600581901b360382131561187457600080fd5b634e487b7160e01b600052604160045260246000fd5b604080519081016001600160401b0381118282101715611fda57611fda611fa2565b60405290565b604051606081016001600160401b0381118282101715611fda57611fda611fa2565b604051608081016001600160401b0381118282101715611fda57611fda611fa2565b60405161018081016001600160401b0381118282101715611fda57611fda611fa2565b604051601f8201601f191681016001600160401b038111828210171561206f5761206f611fa2565b604052919050565b60006001600160401b0382111561209057612090611fa2565b5060051b60200190565b600082601f8301126120ab57600080fd5b813560206120c06120bb83612077565b612047565b8083825260208201915060208460051b8701019350868411156120e257600080fd5b602086015b848110156121075780356120fa816117e7565b83529183019183016120e7565b509695505050505050565b600082601f83011261212357600080fd5b813560206121336120bb83612077565b8083825260208201915060208460051b87010193508684111561215557600080fd5b602086015b848110156121075761216b816119f6565b835291830191830161215a565b600082601f83011261218957600080fd5b813560206121996120bb83612077565b82815260059290921b840181019181810190868411156121b857600080fd5b8286015b848110156121075780356001600160401b03808211156121dc5760008081fd5b908801906040828b03601f19018113156121f65760008081fd5b6121fe611fb8565b87840135838111156122105760008081fd5b61221e8d8a8388010161209a565b8252509083013590828211156122345760008081fd5b6122428c8984870101612112565b8189015286525050509183019183016121bc565b600082601f83011261226757600080fd5b813560206122776120bb83612077565b82815260059290921b8401810191818101908684111561229657600080fd5b8286015b848110156121075780356001600160401b03808211156122ba5760008081fd5b908801906060828b03601f19018113156122d45760008081fd5b6122dc611fe0565b878401356122e9816117e7565b8152604084810135848111156122ff5760008081fd5b61230d8e8b8389010161209a565b838b0152509184013591838311156123255760008081fd5b6123338d8a85880101612112565b90820152865250505091830191830161229a565b600082601f83011261235857600080fd5b813560206123686120bb83612077565b82815260059290921b8401810191818101908684111561238757600080fd5b8286015b848110156121075780356001600160401b03808211156123aa57600080fd5b908801906060828b03601f190112156123c35760008081fd5b6123cb611fe0565b868301356123d8816117e7565b8152604083810135838111156123ee5760008081fd5b8401603f81018d136124005760008081fd5b888101356124106120bb82612077565b81815260059190911b82018301908a8101908f8311156124305760008081fd5b928401925b8284101561244e5783358252928b0192908b0190612435565b858c01525050506060840135838111156124685760008081fd5b6124768d8a8388010161209a565b91830191909152508552505091830191830161238b565b600082601f83011261249e57600080fd5b813560206124ae6120bb83612077565b82815260059290921b840181019181810190868411156124cd57600080fd5b8286015b848110156121075780356001600160401b03808211156124f15760008081fd5b908801906080828b03601f190181131561250b5760008081fd5b612513612002565b87840135612520816117e7565b815260408481013589830152606080860135858111156125405760008081fd5b61254e8f8c838a010161209a565b848401525092850135928484111561256857600091508182fd5b6125768e8b86890101612112565b908301525086525050509183019183016124d1565b6000610180823603121561259e57600080fd5b6125a6612024565b6125af8361195a565b8152602083013560208201526040830135604082015260608301356001600160401b03808211156125df57600080fd5b6125eb36838701612178565b6060840152608085013591508082111561260457600080fd5b61261036838701612256565b608084015260a085013591508082111561262957600080fd5b61263536838701612347565b60a084015260c085013591508082111561264e57600080fd5b61265a3683870161248d565b60c084015260e085013591508082111561267357600080fd5b506126803682860161209a565b60e083015250610100612694818501611d43565b908201526101206126a68482016117fc565b908201526101406126b88482016117fc565b908201526101606126ca8482016117fc565b9082015292915050565b634e487b7160e01b600052601160045260246000fd5b818103818111156113f9576113f96126d4565b808201808211156113f9576113f96126d4565b60008261272d57634e487b7160e01b600052601260045260246000fd5b500490565b6000815180845260005b818110156127585760208185018101518683018201520161273c565b506000602082860101526020601f19601f83011685010191505092915050565b6002811061279657634e487b7160e01b600052602160045260246000fd5b9052565b60018060a01b03851681528360208201526080604082015260006127c16080830185612732565b90506127d06060830184612778565b95945050505050565b6000602082840312156127eb57600080fd5b81516118298161194c565b60006020828403121561280857600080fd5b8151611829816117e7565b6001600160a01b03841681526020810183905260806040820181905260009082015260a081016128466060830184612778565b949350505050565b60006020828403121561286057600080fd5b61182982611d43565b80820281158282048414176113f9576113f96126d4565b6020815260006118296020830184611d5a565b600060406001600160401b03851683526020604081850152845160a060408601526128c160e0860182612732565b905081860151603f19808784030160608801526128de8383612732565b6040890151888203830160808a01528051808352908601945060009350908501905b8084101561293257845180516001600160a01b0316835286015186830152938501936001939093019290860190612900565b5060608901516001600160a01b031660a08901526080890151888203830160c08a015295506129618187612732565b9a9950505050505050505050565b600060018060a01b038087168352608060208401526129916080840187611d5a565b9416604083015250606001529291505056fea2646970667358221220455b5f79547adf837fa21f64c093bcd7a83cbed3c0ac74d67c234a017173fc5e64736f6c63430008180033","linkReferences":{}},"methodIdentifiers":{"chainSelector()":"4e4bc847","deleteWill()":"210879f4","execute((bool,uint256,uint256,(address[],uint8[])[],(address,address[],uint8[])[],(address,uint256[],address[])[],(address,uint256,address[],uint8[])[],address[],uint64,address,address,address)[])":"876fabaf","fee()":"ddca3f43","getBalance()":"12065fe0","owner()":"8da5cb5b","renounceOwnership()":"715018a6","requestExecution((bool,uint256,uint256,(address[],uint8[])[],(address,address[],uint8[])[],(address,uint256[],address[])[],(address,uint256,address[],uint8[])[],address[],uint64,address,address,address)[])":"e2e4cc00","saveWillHash((bool,uint256,uint256,(address[],uint8[])[],(address,address[],uint8[])[],(address,uint256[],address[])[],(address,uint256,address[],uint8[])[],address[],uint64,address,address,address)[],uint256)":"7a87da8e","transferOwnership(address)":"f2fde38b","willHashes(address)":"6df5a5ab","withdraw(address,uint256)":"f3fef3a3"},"id":0}