{"abi":[{"type":"constructor","inputs":[{"name":"_fee","type":"uint256","internalType":"uint256"},{"name":"_router","type":"address","internalType":"address"},{"name":"_link","type":"address","internalType":"address"},{"name":"_chainSelector","type":"uint64","internalType":"uint64"}],"stateMutability":"nonpayable"},{"type":"function","name":"chainSelector","inputs":[],"outputs":[{"name":"","type":"uint64","internalType":"uint64"}],"stateMutability":"view"},{"type":"function","name":"deleteWill","inputs":[],"outputs":[],"stateMutability":"nonpayable"},{"type":"function","name":"execute","inputs":[{"name":"wills","type":"tuple[]","internalType":"struct MementoMori.Will[]","components":[{"name":"isActive","type":"bool","internalType":"bool"},{"name":"requestTime","type":"uint256","internalType":"uint256"},{"name":"cooldown","type":"uint256","internalType":"uint256"},{"name":"native","type":"tuple[]","internalType":"struct MementoMori.Native[]","components":[{"name":"beneficiaries","type":"address[]","internalType":"address[]"},{"name":"percentages","type":"uint8[]","internalType":"uint8[]"}]},{"name":"tokens","type":"tuple[]","internalType":"struct MementoMori.Token[]","components":[{"name":"contractAddress","type":"address","internalType":"address"},{"name":"beneficiaries","type":"address[]","internalType":"address[]"},{"name":"percentages","type":"uint8[]","internalType":"uint8[]"}]},{"name":"nfts","type":"tuple[]","internalType":"struct MementoMori.NFT[]","components":[{"name":"contractAddress","type":"address","internalType":"address"},{"name":"tokenIds","type":"uint256[]","internalType":"uint256[]"},{"name":"beneficiaries","type":"address[]","internalType":"address[]"}]},{"name":"erc1155s","type":"tuple[]","internalType":"struct MementoMori.ERC1155[]","components":[{"name":"contractAddress","type":"address","internalType":"address"},{"name":"tokenId","type":"uint256","internalType":"uint256"},{"name":"beneficiaries","type":"address[]","internalType":"address[]"},{"name":"percentages","type":"uint8[]","internalType":"uint8[]"}]},{"name":"executors","type":"address[]","internalType":"address[]"},{"name":"chainSelector","type":"uint64","internalType":"uint64"},{"name":"safe","type":"address","internalType":"address"},{"name":"xChainAddress","type":"address","internalType":"address"},{"name":"baseAddress","type":"address","internalType":"address"}]}],"outputs":[],"stateMutability":"nonpayable"},{"type":"function","name":"fee","inputs":[],"outputs":[{"name":"","type":"uint256","internalType":"uint256"}],"stateMutability":"view"},{"type":"function","name":"getBalance","inputs":[],"outputs":[{"name":"","type":"uint256","internalType":"uint256"}],"stateMutability":"view"},{"type":"function","name":"owner","inputs":[],"outputs":[{"name":"","type":"address","internalType":"address"}],"stateMutability":"view"},{"type":"function","name":"renounceOwnership","inputs":[],"outputs":[],"stateMutability":"nonpayable"},{"type":"function","name":"requestExecution","inputs":[{"name":"wills","type":"tuple[]","internalType":"struct MementoMori.Will[]","components":[{"name":"isActive","type":"bool","internalType":"bool"},{"name":"requestTime","type":"uint256","internalType":"uint256"},{"name":"cooldown","type":"uint256","internalType":"uint256"},{"name":"native","type":"tuple[]","internalType":"struct MementoMori.Native[]","components":[{"name":"beneficiaries","type":"address[]","internalType":"address[]"},{"name":"percentages","type":"uint8[]","internalType":"uint8[]"}]},{"name":"tokens","type":"tuple[]","internalType":"struct MementoMori.Token[]","components":[{"name":"contractAddress","type":"address","internalType":"address"},{"name":"beneficiaries","type":"address[]","internalType":"address[]"},{"name":"percentages","type":"uint8[]","internalType":"uint8[]"}]},{"name":"nfts","type":"tuple[]","internalType":"struct MementoMori.NFT[]","components":[{"name":"contractAddress","type":"address","internalType":"address"},{"name":"tokenIds","type":"uint256[]","internalType":"uint256[]"},{"name":"beneficiaries","type":"address[]","internalType":"address[]"}]},{"name":"erc1155s","type":"tuple[]","internalType":"struct MementoMori.ERC1155[]","components":[{"name":"contractAddress","type":"address","internalType":"address"},{"name":"tokenId","type":"uint256","internalType":"uint256"},{"name":"beneficiaries","type":"address[]","internalType":"address[]"},{"name":"percentages","type":"uint8[]","internalType":"uint8[]"}]},{"name":"executors","type":"address[]","internalType":"address[]"},{"name":"chainSelector","type":"uint64","internalType":"uint64"},{"name":"safe","type":"address","internalType":"address"},{"name":"xChainAddress","type":"address","internalType":"address"},{"name":"baseAddress","type":"address","internalType":"address"}]}],"outputs":[],"stateMutability":"payable"},{"type":"function","name":"saveWillHash","inputs":[{"name":"wills","type":"tuple[]","internalType":"struct MementoMori.Will[]","components":[{"name":"isActive","type":"bool","internalType":"bool"},{"name":"requestTime","type":"uint256","internalType":"uint256"},{"name":"cooldown","type":"uint256","internalType":"uint256"},{"name":"native","type":"tuple[]","internalType":"struct MementoMori.Native[]","components":[{"name":"beneficiaries","type":"address[]","internalType":"address[]"},{"name":"percentages","type":"uint8[]","internalType":"uint8[]"}]},{"name":"tokens","type":"tuple[]","internalType":"struct MementoMori.Token[]","components":[{"name":"contractAddress","type":"address","internalType":"address"},{"name":"beneficiaries","type":"address[]","internalType":"address[]"},{"name":"percentages","type":"uint8[]","internalType":"uint8[]"}]},{"name":"nfts","type":"tuple[]","internalType":"struct MementoMori.NFT[]","components":[{"name":"contractAddress","type":"address","internalType":"address"},{"name":"tokenIds","type":"uint256[]","internalType":"uint256[]"},{"name":"beneficiaries","type":"address[]","internalType":"address[]"}]},{"name":"erc1155s","type":"tuple[]","internalType":"struct MementoMori.ERC1155[]","components":[{"name":"contractAddress","type":"address","internalType":"address"},{"name":"tokenId","type":"uint256","internalType":"uint256"},{"name":"beneficiaries","type":"address[]","internalType":"address[]"},{"name":"percentages","type":"uint8[]","internalType":"uint8[]"}]},{"name":"executors","type":"address[]","internalType":"address[]"},{"name":"chainSelector","type":"uint64","internalType":"uint64"},{"name":"safe","type":"address","internalType":"address"},{"name":"xChainAddress","type":"address","internalType":"address"},{"name":"baseAddress","type":"address","internalType":"address"}]},{"name":"operationType","type":"uint256","internalType":"uint256"}],"outputs":[],"stateMutability":"payable"},{"type":"function","name":"transferOwnership","inputs":[{"name":"newOwner","type":"address","internalType":"address"}],"outputs":[],"stateMutability":"nonpayable"},{"type":"function","name":"willHashes","inputs":[{"name":"","type":"address","internalType":"address"}],"outputs":[{"name":"","type":"bytes32","internalType":"bytes32"}],"stateMutability":"view"},{"type":"function","name":"withdraw","inputs":[{"name":"recipient","type":"address","internalType":"address payable"},{"name":"amount","type":"uint256","internalType":"uint256"}],"outputs":[],"stateMutability":"payable"},{"type":"event","name":"ExecutionCancelled","inputs":[{"name":"owner","type":"address","indexed":true,"internalType":"address"}],"anonymous":false},{"type":"event","name":"ExecutionRequested","inputs":[{"name":"owner","type":"address","indexed":true,"internalType":"address"}],"anonymous":false},{"type":"event","name":"MessageSent","inputs":[{"name":"messageId","type":"bytes32","indexed":true,"internalType":"bytes32"},{"name":"destinationChainSelector","type":"uint64","indexed":true,"internalType":"uint64"},{"name":"receiver","type":"address","indexed":false,"internalType":"address"},{"name":"will","type":"tuple","indexed":false,"internalType":"struct MementoMori.Will","components":[{"name":"isActive","type":"bool","internalType":"bool"},{"name":"requestTime","type":"uint256","internalType":"uint256"},{"name":"cooldown","type":"uint256","internalType":"uint256"},{"name":"native","type":"tuple[]","internalType":"struct MementoMori.Native[]","components":[{"name":"beneficiaries","type":"address[]","internalType":"address[]"},{"name":"percentages","type":"uint8[]","internalType":"uint8[]"}]},{"name":"tokens","type":"tuple[]","internalType":"struct MementoMori.Token[]","components":[{"name":"contractAddress","type":"address","internalType":"address"},{"name":"beneficiaries","type":"address[]","internalType":"address[]"},{"name":"percentages","type":"uint8[]","internalType":"uint8[]"}]},{"name":"nfts","type":"tuple[]","internalType":"struct MementoMori.NFT[]","components":[{"name":"contractAddress","type":"address","internalType":"address"},{"name":"tokenIds","type":"uint256[]","internalType":"uint256[]"},{"name":"beneficiaries","type":"address[]","internalType":"address[]"}]},{"name":"erc1155s","type":"tuple[]","internalType":"struct MementoMori.ERC1155[]","components":[{"name":"contractAddress","type":"address","internalType":"address"},{"name":"tokenId","type":"uint256","internalType":"uint256"},{"name":"beneficiaries","type":"address[]","internalType":"address[]"},{"name":"percentages","type":"uint8[]","internalType":"uint8[]"}]},{"name":"executors","type":"address[]","internalType":"address[]"},{"name":"chainSelector","type":"uint64","internalType":"uint64"},{"name":"safe","type":"address","internalType":"address"},{"name":"xChainAddress","type":"address","internalType":"address"},{"name":"baseAddress","type":"address","internalType":"address"}]},{"name":"feeToken","type":"address","indexed":false,"internalType":"address"},{"name":"fees","type":"uint256","indexed":false,"internalType":"uint256"}],"anonymous":false},{"type":"event","name":"OwnershipTransferred","inputs":[{"name":"previousOwner","type":"address","indexed":true,"internalType":"address"},{"name":"newOwner","type":"address","indexed":true,"internalType":"address"}],"anonymous":false},{"type":"event","name":"WillCreated","inputs":[{"name":"owner","type":"address","indexed":true,"internalType":"address"}],"anonymous":false},{"type":"event","name":"WillDeleted","inputs":[{"name":"owner","type":"address","indexed":true,"internalType":"address"}],"anonymous":false},{"type":"event","name":"WillExecuted","inputs":[{"name":"owner","type":"address","indexed":true,"internalType":"address"}],"anonymous":false},{"type":"event","name":"WillUpdated","inputs":[{"name":"owner","type":"address","indexed":true,"internalType":"address"}],"anonymous":false},{"type":"error","name":"ChainSelectorsDontMatch","inputs":[]},{"type":"error","name":"HashesDontMatch","inputs":[]},{"type":"error","name":"NotEnoughBalance","inputs":[{"name":"currentBalance","type":"uint256","internalType":"uint256"},{"name":"calculatedFees","type":"uint256","internalType":"uint256"}]},{"type":"error","name":"NotExecutor","inputs":[]},{"type":"error","name":"StillInCooldown","inputs":[{"name":"current","type":"uint256","internalType":"uint256"},{"name":"cooldown","type":"uint256","internalType":"uint256"}]},{"type":"error","name":"TransferFailed","inputs":[]},{"type":"error","name":"ValueLessThanFee","inputs":[{"name":"fee","type":"uint256","internalType":"uint256"},{"name":"value","type":"uint256","internalType":"uint256"}]}],"bytecode":{"object":"0x60806040523480156200001157600080fd5b5060405162002b4e38038062002b4e833981016040819052620000349162000102565b6200003f3362000095565b600193909355600280546001600160a01b039384166001600160a01b0319909116179055600380546001600160401b03909416600160a01b026001600160e01b0319909416919092161791909117905562000164565b600080546001600160a01b038381166001600160a01b0319831681178455604051919092169283917f8be0079c531659141344cd1fd0a4f28419497f9722a3daafe3b4186f6b6457e09190a35050565b80516001600160a01b0381168114620000fd57600080fd5b919050565b600080600080608085870312156200011957600080fd5b845193506200012b60208601620000e5565b92506200013b60408601620000e5565b60608601519092506001600160401b03811681146200015957600080fd5b939692955090935050565b6129da80620001746000396000f3fe6080604052600436106100a75760003560e01c8063876fabaf11610064578063876fabaf1461017f5780638da5cb5b1461019f578063ddca3f43146101c7578063e2e4cc00146101dd578063f2fde38b146101f0578063f3fef3a31461021057600080fd5b806312065fe0146100ac578063210879f4146100d45780634e4bc847146100eb5780636df5a5ab1461012a578063715018a6146101575780637a87da8e1461016c575b600080fd5b3480156100b857600080fd5b506100c1610223565b6040519081526020015b60405180910390f35b3480156100e057600080fd5b506100e9610295565b005b3480156100f757600080fd5b5060035461011290600160a01b90046001600160401b031681565b6040516001600160401b0390911681526020016100cb565b34801561013657600080fd5b506100c161014536600461180d565b60046020526000908152604090205481565b34801561016357600080fd5b506100e96102cf565b6100e961017a36600461187c565b6102e3565b34801561018b57600080fd5b506100e961019a3660046118c7565b610401565b3480156101ab57600080fd5b506000546040516001600160a01b0390911681526020016100cb565b3480156101d357600080fd5b506100c160015481565b6100e96101eb3660046118c7565b611102565b3480156101fc57600080fd5b506100e961020b36600461180d565b611269565b6100e961021e366004611908565b6112e2565b6003546040516370a0823160e01b81523060048201526000916001600160a01b0316906370a0823190602401602060405180830381865afa15801561026c573d6000803e3d6000fd5b505050506040513d601f19601f820116820180604052508101906102909190611934565b905090565b33600081815260046020526040808220829055517ff9dd7d7eefe3dd64bbde615933315d92f38aac599b94f1ed0c0d28900e2c36b29190a2565b6102d7611325565b6102e1600061137f565b565b60015434101561031857600154604051632973338960e01b815260048101919091523460248201526044015b60405180910390fd5b6000838360405160200161032d929190611eb0565b60408051601f1981840301815291815281516020928301203360009081526004909352908220819055915082900361038f5760405133907feeb70606d0471753bc0f18914e842c40fad1d77501bfb2c7c90df37f7cc1374f90600090a26103fb565b816001036103c75760405133907f9cb1134a02271a4012c75713868b85813f0d6462d1ed11b6db672c2ab192784e90600090a26103fb565b816002036103fb5760405133907f6f4cacb1de3e514e704e0223fb68607d87ce4f0e2c56ea71063e0cbe656d0e1790600090a25b50505050565b8181600081811061041457610414611f23565b90506020028101906104269190611f39565b6000805b61043760e0840184611f5a565b90508110156104925761044d60e0840184611f5a565b8281811061045d5761045d611f23565b9050602002016020810190610472919061180d565b6001600160a01b0316330361048a5760019150610492565b60010161042a565b506001811515146104b6576040516361968ebb60e11b815260040160405180910390fd5b6000848460008181106104cb576104cb611f23565b90506020028101906104dd9190611f39565b6104e69061258c565b9050600460008261012001516001600160a01b03166001600160a01b03168152602001908152602001600020548585604051602001610526929190611eb0565b604051602081830303815290604052805190602001200361055a57604051633af9e48760e11b815260040160405180910390fd5b6003546101008201516001600160401b03600160a01b909204821691160361059557604051632ae8538160e11b815260040160405180910390fd5b604081015160208201516105a990426126eb565b106105e45742816040015182602001516105c391906126fe565b604051622ffd1f60ea1b81526004810192909252602482015260440161030f565b608081015151156108a05760005b81608001515181101561089e5760008260800151828151811061061757610617611f23565b6020908102919091010151516101208401516040516370a0823160e01b81526001600160a01b0391821660048201529116906370a0823190602401602060405180830381865afa15801561066f573d6000803e3d6000fd5b505050506040513d601f19601f820116820180604052508101906106939190611934565b90506000836080015183815181106106ad576106ad611f23565b60200260200101516020015151826106c59190612711565b11156108955760005b836080015183815181106106e4576106e4611f23565b60200260200101516020015151811015610893576000610741838660800151868151811061071457610714611f23565b602002602001015160400151848151811061073157610731611f23565b602002602001015160ff166113cf565b90508461012001516001600160a01b031663468721a78660800151868151811061076d5761076d611f23565b60200260200101516000015160008860800151888151811061079157610791611f23565b60200260200101516020015186815181106107ae576107ae611f23565b6020026020010151856040516024016107dc9291906001600160a01b03929092168252602082015260400190565b60408051601f198184030181529181526020820180516001600160e01b031663a9059cbb60e01b1790525160e085901b6001600160e01b031916815261082a9392919060009060040161279b565b6020604051808303816000875af1158015610849573d6000803e3d6000fd5b505050506040513d601f19601f8201168201806040525081019061086d91906127da565b61088a576040516312171d8360e31b815260040160405180910390fd5b506001016106ce565b505b506001016105f2565b505b60a08101515115610b6b5760005b8160a0015151811015610b695760005b8260a0015182815181106108d4576108d4611f23565b60200260200101516020015151811015610b60578261012001516001600160a01b03168360a00151838151811061090d5761090d611f23565b6020026020010151600001516001600160a01b0316636352211e8560a00151858151811061093d5761093d611f23565b602002602001015160200151848151811061095a5761095a611f23565b60200260200101516040518263ffffffff1660e01b815260040161098091815260200190565b602060405180830381865afa15801561099d573d6000803e3d6000fd5b505050506040513d601f19601f820116820180604052508101906109c191906127f7565b6001600160a01b031603610b58578261012001516001600160a01b031663468721a78460a0015184815181106109f9576109f9611f23565b60200260200101516000015160008661012001518760a001518781518110610a2357610a23611f23565b6020026020010151604001518681518110610a4057610a40611f23565b60200260200101518860a001518781518110610a5e57610a5e611f23565b6020026020010151602001518781518110610a7b57610a7b611f23565b60209081029190910101516040516001600160a01b039384166024820152929091166044830152606482015260840160408051601f198184030181529181526020820180516001600160e01b0316632142170760e11b1790525160e085901b6001600160e01b0319168152610af89392919060009060040161279b565b6020604051808303816000875af1158015610b17573d6000803e3d6000fd5b505050506040513d601f19601f82011682018060405250810190610b3b91906127da565b610b58576040516312171d8360e31b815260040160405180910390fd5b6001016108be565b506001016108ae565b505b60c08101515115610eb15760005b8160c0015151811015610eaf5760008260c001518281518110610b9e57610b9e611f23565b6020026020010151600001516001600160a01b031662fdd58e8461012001518560c001518581518110610bd357610bd3611f23565b6020026020010151602001516040518363ffffffff1660e01b8152600401610c109291906001600160a01b03929092168252602082015260400190565b602060405180830381865afa158015610c2d573d6000803e3d6000fd5b505050506040513d601f19601f82011682018060405250810190610c519190611934565b905060008360c001518381518110610c6b57610c6b611f23565b6020026020010151604001515182610c839190612711565b1115610ea65760005b8360c001518381518110610ca257610ca2611f23565b60200260200101516040015151811015610ea45760006001831115610cff57610cf8838660c001518681518110610cdb57610cdb611f23565b602002602001015160600151848151811061073157610731611f23565b9050610d0b565b82600103610d0b575060015b8461012001516001600160a01b031663468721a78660c001518681518110610d3557610d35611f23565b60200260200101516000015160008861012001518960c001518981518110610d5f57610d5f611f23565b6020026020010151604001518781518110610d7c57610d7c611f23565b60200260200101518a60c001518a81518110610d9a57610d9a611f23565b60209081029190910181015101516040516001600160a01b03938416602482015292909116604483015260648201526084810186905260a060a4820152600260c482015261060f60f31b60e48201526101040160408051601f198184030181529181526020820180516001600160e01b0316637921219560e11b1790525160e085901b6001600160e01b0319168152610e3b9392919060009060040161279b565b6020604051808303816000875af1158015610e5a573d6000803e3d6000fd5b505050506040513d601f19601f82011682018060405250810190610e7e91906127da565b610e9b576040516312171d8360e31b815260040160405180910390fd5b50600101610c8c565b505b50600101610b79565b505b6101208101516001600160a01b03163160005b8260600151600081518110610edb57610edb611f23565b60200260200101516000015151811015611005576000610f29838560600151600081518110610f0c57610f0c611f23565b602002602001015160200151848151811061073157610731611f23565b90508361012001516001600160a01b031663468721a78560600151600081518110610f5657610f56611f23565b6020026020010151600001518481518110610f7357610f73611f23565b60200260200101518360006040518463ffffffff1660e01b8152600401610f9c93929190612814565b6020604051808303816000875af1158015610fbb573d6000803e3d6000fd5b505050506040513d601f19601f82011682018060405250810190610fdf91906127da565b610ffc576040516312171d8360e31b815260040160405180910390fd5b50600101610ec4565b5060018511156110bf5760015b858110156110bd576110b487878381811061102f5761102f611f23565b90506020028101906110419190611f39565b611054906101208101906101000161284f565b88888481811061106657611066611f23565b90506020028101906110789190611f39565b61108b906101608101906101400161180d565b89898581811061109d5761109d611f23565b90506020028101906110af9190611f39565b611400565b50600101611012565b505b8161012001516001600160a01b03167f16346f65adf8d84422b57ad74cb5607bf6c9e55c3c1fea66344057e5bba8a7ee60405160405180910390a2505050505050565b8181600081811061111557611115611f23565b90506020028101906111279190611f39565b6000805b61113860e0840184611f5a565b90508110156111935761114e60e0840184611f5a565b8281811061115e5761115e611f23565b9050602002016020810190611173919061180d565b6001600160a01b0316330361118b5760019150611193565b60010161112b565b506001811515146111b7576040516361968ebb60e11b815260040160405180910390fd5b600084846040516020016111cc929190611eb0565b60408051601f19818403018152918152815160209283012033600090815260049093529082208190559150859085908161120857611208611f23565b905060200281019061121a9190611f39565b61122d906101808101906101600161180d565b6001600160a01b03167f74d50b0289278fa7db21584bc3d033fec675e475368963bda7a976558e6307d960405160405180910390a25050505050565b611271611325565b6001600160a01b0381166112d65760405162461bcd60e51b815260206004820152602660248201527f4f776e61626c653a206e6577206f776e657220697320746865207a65726f206160448201526564647265737360d01b606482015260840161030f565b6112df8161137f565b50565b6112ea611325565b6040516001600160a01b0383169082156108fc029083906000818181858888f19350505050158015611320573d6000803e3d6000fd5b505050565b6000546001600160a01b031633146102e15760405162461bcd60e51b815260206004820181905260248201527f4f776e61626c653a2063616c6c6572206973206e6f7420746865206f776e6572604482015260640161030f565b600080546001600160a01b038381166001600160a01b0319831681178455604051919092169283917f8be0079c531659141344cd1fd0a4f28419497f9722a3daafe3b4186f6b6457e09190a35050565b6000806113dd83606461286a565b90506127106113ec828661286a565b6113f69190612711565b9150505b92915050565b6040805160a081019091526001600160a01b03831660c082015260009081908060e081016040516020818303038152906040528152602001846040516020016114499190612881565b60408051601f19818403018152919052815260200160006040519080825280602002602001820160405280156114a557816020015b604080518082019091526000808252602082015281526020019060019003908161147e5790505b5081526003546001600160a01b031660208083019190915260408051808201825262030d4080825260009184019182528251602481019190915290511515604480830191909152825180830390910181526064909101825291820180516001600160e01b03166397a657c960e01b179052909101526002546040516320487ded60e01b81529192506000916001600160a01b03909116906320487ded906115529089908690600401612894565b602060405180830381865afa15801561156f573d6000803e3d6000fd5b505050506040513d601f19601f820116820180604052508101906115939190611934565b6003546040516370a0823160e01b81523060048201529192506001600160a01b0316906370a0823190602401602060405180830381865afa1580156115dc573d6000803e3d6000fd5b505050506040513d601f19601f820116820180604052508101906116009190611934565b811115611697576003546040516370a0823160e01b81523060048201526001600160a01b03909116906370a0823190602401602060405180830381865afa15801561164f573d6000803e3d6000fd5b505050506040513d601f19601f820116820180604052508101906116739190611934565b604051634787a10360e11b815260048101919091526024810182905260440161030f565b60035460025460405163095ea7b360e01b81526001600160a01b0391821660048201526024810184905291169063095ea7b3906044016020604051808303816000875af11580156116ec573d6000803e3d6000fd5b505050506040513d601f19601f8201168201806040525081019061171091906127da565b506002546040516396f4e9f960e01b81526001600160a01b03909116906396f4e9f9906117439089908690600401612894565b6020604051808303816000875af1158015611762573d6000803e3d6000fd5b505050506040513d601f19601f820116820180604052508101906117869190611934565b6003546040519194506001600160401b0388169185917f69125e43b7abfc1fa9365749da93c3fdb8210eee6453979d728f5988b4a5bfed916117d7918a918a916001600160a01b0316908890612970565b60405180910390a350509392505050565b6001600160a01b03811681146112df57600080fd5b8035611808816117e8565b919050565b60006020828403121561181f57600080fd5b813561182a816117e8565b9392505050565b60008083601f84011261184357600080fd5b5081356001600160401b0381111561185a57600080fd5b6020830191508360208260051b850101111561187557600080fd5b9250929050565b60008060006040848603121561189157600080fd5b83356001600160401b038111156118a757600080fd5b6118b386828701611831565b909790965060209590950135949350505050565b600080602083850312156118da57600080fd5b82356001600160401b038111156118f057600080fd5b6118fc85828601611831565b90969095509350505050565b6000806040838503121561191b57600080fd5b8235611926816117e8565b946020939093013593505050565b60006020828403121561194657600080fd5b5051919050565b80151581146112df57600080fd5b80356118088161194d565b6000808335601e1984360301811261197d57600080fd5b83016020810192503590506001600160401b0381111561199c57600080fd5b8060051b360382131561187557600080fd5b8183526000602080850194508260005b858110156119ec5781356119d1816117e8565b6001600160a01b0316875295820195908201906001016119be565b509495945050505050565b803560ff8116811461180857600080fd5b8183526000602080850194508260005b858110156119ec5760ff611a2b836119f7565b1687529582019590820190600101611a18565b60008383855260208086019550808560051b830101846000805b88811015611ad457858403601f19018a52823536899003603e19018112611a7d578283fd5b88016040611a8b8280611966565b828852611a9b83890182846119ae565b92505050611aab87830183611966565b925086820388880152611abf828483611a08565b9c88019c965050509285019250600101611a58565b509198975050505050505050565b60008235605e19833603018112611af857600080fd5b90910192915050565b60008383855260208086019550808560051b8301018460005b87811015611ba757848303601f19018952611b358288611ae2565b60608135611b42816117e8565b6001600160a01b03168552611b5982870183611966565b8288880152611b6b83880182846119ae565b925050506040611b7d81840184611966565b935086830382880152611b91838583611a08565b9c88019c96505050928501925050600101611b1a565b5090979650505050505050565b818352602080840193600091600585811b830182018585805b89811015611c7757868403601f19018b52611be8838a611ae2565b60608135611bf5816117e8565b6001600160a01b03168652611c0c82890183611966565b878a018390529187018290526080916001600160fb1b03811115611c2e578586fd5b881b808289850137870190506040611c4884820185611966565b94508389840301828a0152611c6084840186836119ae565b9f8b019f9850505094880194505050600101611bcd565b50919998505050505050505050565b60008383855260208086019550808560051b830101846000805b88811015611ad457858403601f19018a52823536899003607e19018112611cc5578283fd5b880160808135611cd4816117e8565b6001600160a01b0316865281870135878701526040611cf581840184611966565b83838a0152611d07848a0182846119ae565b93505050506060611d1a81840184611966565b935087830382890152611d2e838583611a08565b9d89019d97505050938601935050600101611ca0565b80356001600160401b038116811461180857600080fd5b6000610180611d7384611d6d8561195b565b15159052565b6020830135602085015260408301356040850152611d946060840184611966565b826060870152611da78387018284611a3e565b92505050611db86080840184611966565b8583036080870152611dcb838284611b01565b92505050611ddc60a0840184611966565b85830360a0870152611def838284611bb4565b92505050611e0060c0840184611966565b85830360c0870152611e13838284611c86565b92505050611e2460e0840184611966565b85830360e0870152611e378382846119ae565b92505050610100611e49818501611d44565b6001600160401b031690850152610120611e648482016117fd565b6001600160a01b031690850152610140611e7f8482016117fd565b6001600160a01b031690850152610160611e9a8482016117fd565b6001600160a01b03169401939093525090919050565b60208082528181018390526000906040600585901b840181019084018684805b88811015611f1557878503603f190184528235368b900361017e19018112611ef6578283fd5b611f02868c8301611d5b565b9550509285019291850191600101611ed0565b509298975050505050505050565b634e487b7160e01b600052603260045260246000fd5b6000823561017e19833603018112611f5057600080fd5b9190910192915050565b6000808335601e19843603018112611f7157600080fd5b8301803591506001600160401b03821115611f8b57600080fd5b6020019150600581901b360382131561187557600080fd5b634e487b7160e01b600052604160045260246000fd5b604080519081016001600160401b0381118282101715611fdb57611fdb611fa3565b60405290565b604051606081016001600160401b0381118282101715611fdb57611fdb611fa3565b604051608081016001600160401b0381118282101715611fdb57611fdb611fa3565b60405161018081016001600160401b0381118282101715611fdb57611fdb611fa3565b604051601f8201601f191681016001600160401b038111828210171561207057612070611fa3565b604052919050565b60006001600160401b0382111561209157612091611fa3565b5060051b60200190565b600082601f8301126120ac57600080fd5b813560206120c16120bc83612078565b612048565b8083825260208201915060208460051b8701019350868411156120e357600080fd5b602086015b848110156121085780356120fb816117e8565b83529183019183016120e8565b509695505050505050565b600082601f83011261212457600080fd5b813560206121346120bc83612078565b8083825260208201915060208460051b87010193508684111561215657600080fd5b602086015b848110156121085761216c816119f7565b835291830191830161215b565b600082601f83011261218a57600080fd5b8135602061219a6120bc83612078565b82815260059290921b840181019181810190868411156121b957600080fd5b8286015b848110156121085780356001600160401b03808211156121dd5760008081fd5b908801906040828b03601f19018113156121f75760008081fd5b6121ff611fb9565b87840135838111156122115760008081fd5b61221f8d8a8388010161209b565b8252509083013590828211156122355760008081fd5b6122438c8984870101612113565b8189015286525050509183019183016121bd565b600082601f83011261226857600080fd5b813560206122786120bc83612078565b82815260059290921b8401810191818101908684111561229757600080fd5b8286015b848110156121085780356001600160401b03808211156122bb5760008081fd5b908801906060828b03601f19018113156122d55760008081fd5b6122dd611fe1565b878401356122ea816117e8565b8152604084810135848111156123005760008081fd5b61230e8e8b8389010161209b565b838b0152509184013591838311156123265760008081fd5b6123348d8a85880101612113565b90820152865250505091830191830161229b565b600082601f83011261235957600080fd5b813560206123696120bc83612078565b82815260059290921b8401810191818101908684111561238857600080fd5b8286015b848110156121085780356001600160401b03808211156123ab57600080fd5b908801906060828b03601f190112156123c45760008081fd5b6123cc611fe1565b868301356123d9816117e8565b8152604083810135838111156123ef5760008081fd5b8401603f81018d136124015760008081fd5b888101356124116120bc82612078565b81815260059190911b82018301908a8101908f8311156124315760008081fd5b928401925b8284101561244f5783358252928b0192908b0190612436565b858c01525050506060840135838111156124695760008081fd5b6124778d8a8388010161209b565b91830191909152508552505091830191830161238c565b600082601f83011261249f57600080fd5b813560206124af6120bc83612078565b82815260059290921b840181019181810190868411156124ce57600080fd5b8286015b848110156121085780356001600160401b03808211156124f25760008081fd5b908801906080828b03601f190181131561250c5760008081fd5b612514612003565b87840135612521816117e8565b815260408481013589830152606080860135858111156125415760008081fd5b61254f8f8c838a010161209b565b848401525092850135928484111561256957600091508182fd5b6125778e8b86890101612113565b908301525086525050509183019183016124d2565b6000610180823603121561259f57600080fd5b6125a7612025565b6125b08361195b565b8152602083013560208201526040830135604082015260608301356001600160401b03808211156125e057600080fd5b6125ec36838701612179565b6060840152608085013591508082111561260557600080fd5b61261136838701612257565b608084015260a085013591508082111561262a57600080fd5b61263636838701612348565b60a084015260c085013591508082111561264f57600080fd5b61265b3683870161248e565b60c084015260e085013591508082111561267457600080fd5b506126813682860161209b565b60e083015250610100612695818501611d44565b908201526101206126a78482016117fd565b908201526101406126b98482016117fd565b908201526101606126cb8482016117fd565b9082015292915050565b634e487b7160e01b600052601160045260246000fd5b818103818111156113fa576113fa6126d5565b808201808211156113fa576113fa6126d5565b60008261272e57634e487b7160e01b600052601260045260246000fd5b500490565b6000815180845260005b818110156127595760208185018101518683018201520161273d565b506000602082860101526020601f19601f83011685010191505092915050565b6002811061279757634e487b7160e01b600052602160045260246000fd5b9052565b60018060a01b03851681528360208201526080604082015260006127c26080830185612733565b90506127d16060830184612779565b95945050505050565b6000602082840312156127ec57600080fd5b815161182a8161194d565b60006020828403121561280957600080fd5b815161182a816117e8565b6001600160a01b03841681526020810183905260806040820181905260009082015260a081016128476060830184612779565b949350505050565b60006020828403121561286157600080fd5b61182a82611d44565b80820281158282048414176113fa576113fa6126d5565b60208152600061182a6020830184611d5b565b600060406001600160401b03851683526020604081850152845160a060408601526128c260e0860182612733565b905081860151603f19808784030160608801526128df8383612733565b6040890151888203830160808a01528051808352908601945060009350908501905b8084101561293357845180516001600160a01b0316835286015186830152938501936001939093019290860190612901565b5060608901516001600160a01b031660a08901526080890151888203830160c08a015295506129628187612733565b9a9950505050505050505050565b600060018060a01b038087168352608060208401526129926080840187611d5b565b9416604083015250606001529291505056fea264697066735822122038fc298656adbe3a373269e10f611319edbe16b85b7e543c0434c495e4e91ba964736f6c63430008180033","linkReferences":{}},"methodIdentifiers":{"chainSelector()":"4e4bc847","deleteWill()":"210879f4","execute((bool,uint256,uint256,(address[],uint8[])[],(address,address[],uint8[])[],(address,uint256[],address[])[],(address,uint256,address[],uint8[])[],address[],uint64,address,address,address)[])":"876fabaf","fee()":"ddca3f43","getBalance()":"12065fe0","owner()":"8da5cb5b","renounceOwnership()":"715018a6","requestExecution((bool,uint256,uint256,(address[],uint8[])[],(address,address[],uint8[])[],(address,uint256[],address[])[],(address,uint256,address[],uint8[])[],address[],uint64,address,address,address)[])":"e2e4cc00","saveWillHash((bool,uint256,uint256,(address[],uint8[])[],(address,address[],uint8[])[],(address,uint256[],address[])[],(address,uint256,address[],uint8[])[],address[],uint64,address,address,address)[],uint256)":"7a87da8e","transferOwnership(address)":"f2fde38b","willHashes(address)":"6df5a5ab","withdraw(address,uint256)":"f3fef3a3"},"id":0}