{"abi":[{"type":"constructor","inputs":[{"name":"_fee","type":"uint256","internalType":"uint256"},{"name":"_router","type":"address","internalType":"address"},{"name":"_link","type":"address","internalType":"address"},{"name":"_chainSelector","type":"uint64","internalType":"uint64"}],"stateMutability":"nonpayable"},{"type":"function","name":"calculateAmount","inputs":[{"name":"balance","type":"uint256","internalType":"uint256"},{"name":"percentage","type":"uint256","internalType":"uint256"}],"outputs":[{"name":"","type":"uint256","internalType":"uint256"}],"stateMutability":"pure"},{"type":"function","name":"chainSelector","inputs":[],"outputs":[{"name":"","type":"uint64","internalType":"uint64"}],"stateMutability":"view"},{"type":"function","name":"deleteWill","inputs":[],"outputs":[],"stateMutability":"nonpayable"},{"type":"function","name":"execute","inputs":[{"name":"wills","type":"tuple[]","internalType":"struct MementoMori.Will[]","components":[{"name":"isActive","type":"bool","internalType":"bool"},{"name":"requestTime","type":"uint256","internalType":"uint256"},{"name":"cooldown","type":"uint256","internalType":"uint256"},{"name":"native","type":"tuple[]","internalType":"struct MementoMori.Native[]","components":[{"name":"beneficiaries","type":"address[]","internalType":"address[]"},{"name":"percentages","type":"uint8[]","internalType":"uint8[]"}]},{"name":"tokens","type":"tuple[]","internalType":"struct MementoMori.Token[]","components":[{"name":"contractAddress","type":"address","internalType":"address"},{"name":"beneficiaries","type":"address[]","internalType":"address[]"},{"name":"percentages","type":"uint8[]","internalType":"uint8[]"}]},{"name":"nfts","type":"tuple[]","internalType":"struct MementoMori.NFT[]","components":[{"name":"contractAddress","type":"address","internalType":"address"},{"name":"tokenIds","type":"uint256[]","internalType":"uint256[]"},{"name":"beneficiaries","type":"address[]","internalType":"address[]"}]},{"name":"erc1155s","type":"tuple[]","internalType":"struct MementoMori.ERC1155[]","components":[{"name":"contractAddress","type":"address","internalType":"address"},{"name":"tokenId","type":"uint256","internalType":"uint256"},{"name":"beneficiaries","type":"address[]","internalType":"address[]"},{"name":"percentages","type":"uint8[]","internalType":"uint8[]"}]},{"name":"executors","type":"address[]","internalType":"address[]"},{"name":"chainSelector","type":"uint64","internalType":"uint64"},{"name":"safe","type":"address","internalType":"address"},{"name":"xChainAddress","type":"address","internalType":"address"},{"name":"baseAddress","type":"address","internalType":"address"}]}],"outputs":[],"stateMutability":"nonpayable"},{"type":"function","name":"fee","inputs":[],"outputs":[{"name":"","type":"uint256","internalType":"uint256"}],"stateMutability":"view"},{"type":"function","name":"getBalance","inputs":[],"outputs":[{"name":"","type":"uint256","internalType":"uint256"}],"stateMutability":"view"},{"type":"function","name":"owner","inputs":[],"outputs":[{"name":"","type":"address","internalType":"address"}],"stateMutability":"view"},{"type":"function","name":"renounceOwnership","inputs":[],"outputs":[],"stateMutability":"nonpayable"},{"type":"function","name":"requestExecution","inputs":[{"name":"wills","type":"tuple[]","internalType":"struct MementoMori.Will[]","components":[{"name":"isActive","type":"bool","internalType":"bool"},{"name":"requestTime","type":"uint256","internalType":"uint256"},{"name":"cooldown","type":"uint256","internalType":"uint256"},{"name":"native","type":"tuple[]","internalType":"struct MementoMori.Native[]","components":[{"name":"beneficiaries","type":"address[]","internalType":"address[]"},{"name":"percentages","type":"uint8[]","internalType":"uint8[]"}]},{"name":"tokens","type":"tuple[]","internalType":"struct MementoMori.Token[]","components":[{"name":"contractAddress","type":"address","internalType":"address"},{"name":"beneficiaries","type":"address[]","internalType":"address[]"},{"name":"percentages","type":"uint8[]","internalType":"uint8[]"}]},{"name":"nfts","type":"tuple[]","internalType":"struct MementoMori.NFT[]","components":[{"name":"contractAddress","type":"address","internalType":"address"},{"name":"tokenIds","type":"uint256[]","internalType":"uint256[]"},{"name":"beneficiaries","type":"address[]","internalType":"address[]"}]},{"name":"erc1155s","type":"tuple[]","internalType":"struct MementoMori.ERC1155[]","components":[{"name":"contractAddress","type":"address","internalType":"address"},{"name":"tokenId","type":"uint256","internalType":"uint256"},{"name":"beneficiaries","type":"address[]","internalType":"address[]"},{"name":"percentages","type":"uint8[]","internalType":"uint8[]"}]},{"name":"executors","type":"address[]","internalType":"address[]"},{"name":"chainSelector","type":"uint64","internalType":"uint64"},{"name":"safe","type":"address","internalType":"address"},{"name":"xChainAddress","type":"address","internalType":"address"},{"name":"baseAddress","type":"address","internalType":"address"}]}],"outputs":[],"stateMutability":"payable"},{"type":"function","name":"saveWillHash","inputs":[{"name":"wills","type":"tuple[]","internalType":"struct MementoMori.Will[]","components":[{"name":"isActive","type":"bool","internalType":"bool"},{"name":"requestTime","type":"uint256","internalType":"uint256"},{"name":"cooldown","type":"uint256","internalType":"uint256"},{"name":"native","type":"tuple[]","internalType":"struct MementoMori.Native[]","components":[{"name":"beneficiaries","type":"address[]","internalType":"address[]"},{"name":"percentages","type":"uint8[]","internalType":"uint8[]"}]},{"name":"tokens","type":"tuple[]","internalType":"struct MementoMori.Token[]","components":[{"name":"contractAddress","type":"address","internalType":"address"},{"name":"beneficiaries","type":"address[]","internalType":"address[]"},{"name":"percentages","type":"uint8[]","internalType":"uint8[]"}]},{"name":"nfts","type":"tuple[]","internalType":"struct MementoMori.NFT[]","components":[{"name":"contractAddress","type":"address","internalType":"address"},{"name":"tokenIds","type":"uint256[]","internalType":"uint256[]"},{"name":"beneficiaries","type":"address[]","internalType":"address[]"}]},{"name":"erc1155s","type":"tuple[]","internalType":"struct MementoMori.ERC1155[]","components":[{"name":"contractAddress","type":"address","internalType":"address"},{"name":"tokenId","type":"uint256","internalType":"uint256"},{"name":"beneficiaries","type":"address[]","internalType":"address[]"},{"name":"percentages","type":"uint8[]","internalType":"uint8[]"}]},{"name":"executors","type":"address[]","internalType":"address[]"},{"name":"chainSelector","type":"uint64","internalType":"uint64"},{"name":"safe","type":"address","internalType":"address"},{"name":"xChainAddress","type":"address","internalType":"address"},{"name":"baseAddress","type":"address","internalType":"address"}]},{"name":"operationType","type":"uint256","internalType":"uint256"}],"outputs":[],"stateMutability":"payable"},{"type":"function","name":"transferOwnership","inputs":[{"name":"newOwner","type":"address","internalType":"address"}],"outputs":[],"stateMutability":"nonpayable"},{"type":"function","name":"willHashes","inputs":[{"name":"","type":"address","internalType":"address"}],"outputs":[{"name":"","type":"bytes32","internalType":"bytes32"}],"stateMutability":"view"},{"type":"function","name":"withdraw","inputs":[{"name":"recipient","type":"address","internalType":"address payable"},{"name":"amount","type":"uint256","internalType":"uint256"}],"outputs":[],"stateMutability":"payable"},{"type":"event","name":"ExecutionCancelled","inputs":[{"name":"owner","type":"address","indexed":true,"internalType":"address"}],"anonymous":false},{"type":"event","name":"ExecutionRequested","inputs":[{"name":"owner","type":"address","indexed":true,"internalType":"address"}],"anonymous":false},{"type":"event","name":"MessageSent","inputs":[{"name":"messageId","type":"bytes32","indexed":true,"internalType":"bytes32"},{"name":"destinationChainSelector","type":"uint64","indexed":true,"internalType":"uint64"},{"name":"receiver","type":"address","indexed":false,"internalType":"address"},{"name":"will","type":"tuple","indexed":false,"internalType":"struct MementoMori.Will","components":[{"name":"isActive","type":"bool","internalType":"bool"},{"name":"requestTime","type":"uint256","internalType":"uint256"},{"name":"cooldown","type":"uint256","internalType":"uint256"},{"name":"native","type":"tuple[]","internalType":"struct MementoMori.Native[]","components":[{"name":"beneficiaries","type":"address[]","internalType":"address[]"},{"name":"percentages","type":"uint8[]","internalType":"uint8[]"}]},{"name":"tokens","type":"tuple[]","internalType":"struct MementoMori.Token[]","components":[{"name":"contractAddress","type":"address","internalType":"address"},{"name":"beneficiaries","type":"address[]","internalType":"address[]"},{"name":"percentages","type":"uint8[]","internalType":"uint8[]"}]},{"name":"nfts","type":"tuple[]","internalType":"struct MementoMori.NFT[]","components":[{"name":"contractAddress","type":"address","internalType":"address"},{"name":"tokenIds","type":"uint256[]","internalType":"uint256[]"},{"name":"beneficiaries","type":"address[]","internalType":"address[]"}]},{"name":"erc1155s","type":"tuple[]","internalType":"struct MementoMori.ERC1155[]","components":[{"name":"contractAddress","type":"address","internalType":"address"},{"name":"tokenId","type":"uint256","internalType":"uint256"},{"name":"beneficiaries","type":"address[]","internalType":"address[]"},{"name":"percentages","type":"uint8[]","internalType":"uint8[]"}]},{"name":"executors","type":"address[]","internalType":"address[]"},{"name":"chainSelector","type":"uint64","internalType":"uint64"},{"name":"safe","type":"address","internalType":"address"},{"name":"xChainAddress","type":"address","internalType":"address"},{"name":"baseAddress","type":"address","internalType":"address"}]},{"name":"feeToken","type":"address","indexed":false,"internalType":"address"},{"name":"fees","type":"uint256","indexed":false,"internalType":"uint256"}],"anonymous":false},{"type":"event","name":"OwnershipTransferred","inputs":[{"name":"previousOwner","type":"address","indexed":true,"internalType":"address"},{"name":"newOwner","type":"address","indexed":true,"internalType":"address"}],"anonymous":false},{"type":"event","name":"WillCreated","inputs":[{"name":"owner","type":"address","indexed":true,"internalType":"address"}],"anonymous":false},{"type":"event","name":"WillDeleted","inputs":[{"name":"owner","type":"address","indexed":true,"internalType":"address"}],"anonymous":false},{"type":"event","name":"WillExecuted","inputs":[{"name":"owner","type":"address","indexed":true,"internalType":"address"}],"anonymous":false},{"type":"event","name":"WillUpdated","inputs":[{"name":"owner","type":"address","indexed":true,"internalType":"address"}],"anonymous":false},{"type":"error","name":"NotEnoughBalance","inputs":[{"name":"currentBalance","type":"uint256","internalType":"uint256"},{"name":"calculatedFees","type":"uint256","internalType":"uint256"}]}],"bytecode":{"object":"0x60806040523480156200001157600080fd5b5060405162002cf438038062002cf4833981016040819052620000349162000102565b6200003f3362000095565b600193909355600280546001600160a01b039384166001600160a01b0319909116179055600380546001600160401b03909416600160a01b026001600160e01b0319909416919092161791909117905562000164565b600080546001600160a01b038381166001600160a01b0319831681178455604051919092169283917f8be0079c531659141344cd1fd0a4f28419497f9722a3daafe3b4186f6b6457e09190a35050565b80516001600160a01b0381168114620000fd57600080fd5b919050565b600080600080608085870312156200011957600080fd5b845193506200012b60208601620000e5565b92506200013b60408601620000e5565b60608601519092506001600160401b03811681146200015957600080fd5b939692955090935050565b612b8080620001746000396000f3fe6080604052600436106100c25760003560e01c8063876fabaf1161007f578063ddca3f4311610059578063ddca3f431461020f578063e2e4cc0014610225578063f2fde38b14610238578063f3fef3a31461025857600080fd5b8063876fabaf146101a75780638da5cb5b146101c7578063cbcd5582146101ef57600080fd5b806312065fe0146100c7578063210879f4146100ef5780634e4bc847146101135780636df5a5ab14610152578063715018a61461017f5780637a87da8e14610194575b600080fd5b3480156100d357600080fd5b506100dc61026b565b6040519081526020015b60405180910390f35b3480156100fb57600080fd5b5061011133600090815260046020526040812055565b005b34801561011f57600080fd5b5060035461013a90600160a01b90046001600160401b031681565b6040516001600160401b0390911681526020016100e6565b34801561015e57600080fd5b506100dc61016d3660046119a4565b60046020526000908152604090205481565b34801561018b57600080fd5b506101116102dd565b6101116101a2366004611a13565b6102f1565b3480156101b357600080fd5b506101116101c2366004611a5e565b610431565b3480156101d357600080fd5b506000546040516001600160a01b0390911681526020016100e6565b3480156101fb57600080fd5b506100dc61020a366004611a9f565b61126a565b34801561021b57600080fd5b506100dc60015481565b610111610233366004611a5e565b61129b565b34801561024457600080fd5b506101116102533660046119a4565b611431565b610111610266366004611ac1565b6114aa565b6003546040516370a0823160e01b81523060048201526000916001600160a01b0316906370a0823190602401602060405180830381865afa1580156102b4573d6000803e3d6000fd5b505050506040513d601f19601f820116820180604052508101906102d89190611aed565b905090565b6102e56114ed565b6102ef6000611547565b565b6001543410156103485760405162461bcd60e51b815260206004820152601e60248201527f76616c7565206d7573742062652067726561746572207468616e20666565000060448201526064015b60405180910390fd5b6000838360405160200161035d929190612069565b60408051601f198184030181529181528151602092830120336000908152600490935290822081905591508290036103bf5760405133907feeb70606d0471753bc0f18914e842c40fad1d77501bfb2c7c90df37f7cc1374f90600090a261042b565b816001036103f75760405133907f9cb1134a02271a4012c75713868b85813f0d6462d1ed11b6db672c2ab192784e90600090a261042b565b8160020361042b5760405133907f6f4cacb1de3e514e704e0223fb68607d87ce4f0e2c56ea71063e0cbe656d0e1790600090a25b50505050565b81816000818110610444576104446120dc565b905060200281019061045691906120f2565b6000805b61046760e0840184612113565b90508110156104c25761047d60e0840184612113565b8281811061048d5761048d6120dc565b90506020020160208101906104a291906119a4565b6001600160a01b031633036104ba57600191506104c2565b60010161045a565b506001811515146105155760405162461bcd60e51b815260206004820152601e60248201527f596f7520617265206e6f7420612077696c6c2062656e65666963696172790000604482015260640161033f565b60008484600081811061052a5761052a6120dc565b905060200281019061053c91906120f2565b61054590612745565b9050600460008261012001516001600160a01b03166001600160a01b03168152602001908152602001600020548585604051602001610585929190612069565b60405160208183030381529060405280519060200120146105dd5760405162461bcd60e51b81526020600482015260126024820152710d0c2e6d0cae640c8dedc4ee840dac2e8c6d60731b604482015260640161033f565b6003546101008201516001600160401b03908116600160a01b90920416146106475760405162461bcd60e51b815260206004820152601b60248201527f636861696e2073656c6563746f727320646f6e2774206d617463680000000000604482015260640161033f565b6040810151602082015161065b90426128a4565b10156106a95760405162461bcd60e51b815260206004820152601b60248201527f457865637574696f6e207374696c6c20696e20636f6f6c646f776e0000000000604482015260640161033f565b6080810151511561098c5760005b81608001515181101561098a576000826080015182815181106106dc576106dc6120dc565b6020908102919091010151516101208401516040516370a0823160e01b81526001600160a01b0391821660048201529116906370a0823190602401602060405180830381865afa158015610734573d6000803e3d6000fd5b505050506040513d601f19601f820116820180604052508101906107589190611aed565b9050600083608001518381518110610772576107726120dc565b602002602001015160200151518261078a91906128b7565b11156109815760005b836080015183815181106107a9576107a96120dc565b6020026020010151602001515181101561097f57600061080683866080015186815181106107d9576107d96120dc565b60200260200101516040015184815181106107f6576107f66120dc565b602002602001015160ff1661126a565b90508461012001516001600160a01b031663468721a786608001518681518110610832576108326120dc565b602002602001015160000151600088608001518881518110610856576108566120dc565b6020026020010151602001518681518110610873576108736120dc565b6020026020010151856040516024016108a19291906001600160a01b03929092168252602082015260400190565b60408051601f198184030181529181526020820180516001600160e01b031663a9059cbb60e01b1790525160e085901b6001600160e01b03191681526108ef93929190600090600401612941565b6020604051808303816000875af115801561090e573d6000803e3d6000fd5b505050506040513d601f19601f820116820180604052508101906109329190612980565b6109765760405162461bcd60e51b8152602060048201526015602482015274151bdad95b881d1c985b9cd9995c8819985a5b1959605a1b604482015260640161033f565b50600101610793565b505b506001016106b7565b505b60a08101515115610c7c5760005b8160a0015151811015610c7a5760005b8260a0015182815181106109c0576109c06120dc565b60200260200101516020015151811015610c71578261012001516001600160a01b03168360a0015183815181106109f9576109f96120dc565b6020026020010151600001516001600160a01b0316636352211e8560a001518581518110610a2957610a296120dc565b6020026020010151602001518481518110610a4657610a466120dc565b60200260200101516040518263ffffffff1660e01b8152600401610a6c91815260200190565b602060405180830381865afa158015610a89573d6000803e3d6000fd5b505050506040513d601f19601f82011682018060405250810190610aad919061299d565b6001600160a01b031603610c69578261012001516001600160a01b031663468721a78460a001518481518110610ae557610ae56120dc565b60200260200101516000015160008661012001518760a001518781518110610b0f57610b0f6120dc565b6020026020010151604001518681518110610b2c57610b2c6120dc565b60200260200101518860a001518781518110610b4a57610b4a6120dc565b6020026020010151602001518781518110610b6757610b676120dc565b60209081029190910101516040516001600160a01b039384166024820152929091166044830152606482015260840160408051601f198184030181529181526020820180516001600160e01b0316632142170760e11b1790525160e085901b6001600160e01b0319168152610be493929190600090600401612941565b6020604051808303816000875af1158015610c03573d6000803e3d6000fd5b505050506040513d601f19601f82011682018060405250810190610c279190612980565b610c695760405162461bcd60e51b8152602060048201526013602482015272139195081d1c985b9cd9995c8819985a5b1959606a1b604482015260640161033f565b6001016109aa565b5060010161099a565b505b60c08101515115610ff15760005b8160c0015151811015610fef5760008260c001518281518110610caf57610caf6120dc565b6020026020010151600001516001600160a01b031662fdd58e8461012001518560c001518581518110610ce457610ce46120dc565b6020026020010151602001516040518363ffffffff1660e01b8152600401610d219291906001600160a01b03929092168252602082015260400190565b602060405180830381865afa158015610d3e573d6000803e3d6000fd5b505050506040513d601f19601f82011682018060405250810190610d629190611aed565b905060008360c001518381518110610d7c57610d7c6120dc565b6020026020010151604001515182610d9491906128b7565b1115610fe65760005b8360c001518381518110610db357610db36120dc565b60200260200101516040015151811015610fe45760006001831115610e1057610e09838660c001518681518110610dec57610dec6120dc565b60200260200101516060015184815181106107f6576107f66120dc565b9050610e1c565b82600103610e1c575060015b8461012001516001600160a01b031663468721a78660c001518681518110610e4657610e466120dc565b60200260200101516000015160008861012001518960c001518981518110610e7057610e706120dc565b6020026020010151604001518781518110610e8d57610e8d6120dc565b60200260200101518a60c001518a81518110610eab57610eab6120dc565b60209081029190910181015101516040516001600160a01b03938416602482015292909116604483015260648201526084810186905260a060a4820152600260c482015261060f60f31b60e48201526101040160408051601f198184030181529181526020820180516001600160e01b0316637921219560e11b1790525160e085901b6001600160e01b0319168152610f4c93929190600090600401612941565b6020604051808303816000875af1158015610f6b573d6000803e3d6000fd5b505050506040513d601f19601f82011682018060405250810190610f8f9190612980565b610fdb5760405162461bcd60e51b815260206004820152601760248201527f65726331313535207472616e73666572206661696c6564000000000000000000604482015260640161033f565b50600101610d9d565b505b50600101610c8a565b505b6101208101516001600160a01b03163160005b826060015160008151811061101b5761101b6120dc565b6020026020010151600001515181101561116d57600061106983856060015160008151811061104c5761104c6120dc565b60200260200101516020015184815181106107f6576107f66120dc565b90508361012001516001600160a01b031663468721a78560600151600081518110611096576110966120dc565b60200260200101516000015184815181106110b3576110b36120dc565b60200260200101518360006040518463ffffffff1660e01b81526004016110dc939291906129ba565b6020604051808303816000875af11580156110fb573d6000803e3d6000fd5b505050506040513d601f19601f8201168201806040525081019061111f9190612980565b6111645760405162461bcd60e51b815260206004820152601660248201527513985d1a5d99481d1c985b9cd9995c8819985a5b195960521b604482015260640161033f565b50600101611004565b5060018511156112275760015b858110156112255761121c878783818110611197576111976120dc565b90506020028101906111a991906120f2565b6111bc90610120810190610100016129f5565b8888848181106111ce576111ce6120dc565b90506020028101906111e091906120f2565b6111f390610160810190610140016119a4565b898985818110611205576112056120dc565b905060200281019061121791906120f2565b611597565b5060010161117a565b505b8161012001516001600160a01b03167f16346f65adf8d84422b57ad74cb5607bf6c9e55c3c1fea66344057e5bba8a7ee60405160405180910390a2505050505050565b600080611278836064612a10565b90506127106112878286612a10565b61129191906128b7565b9150505b92915050565b818160008181106112ae576112ae6120dc565b90506020028101906112c091906120f2565b6000805b6112d160e0840184612113565b905081101561132c576112e760e0840184612113565b828181106112f7576112f76120dc565b905060200201602081019061130c91906119a4565b6001600160a01b03163303611324576001915061132c565b6001016112c4565b5060018115151461137f5760405162461bcd60e51b815260206004820152601e60248201527f596f7520617265206e6f7420612077696c6c2062656e65666963696172790000604482015260640161033f565b60008484604051602001611394929190612069565b60408051601f1981840301815291815281516020928301203360009081526004909352908220819055915085908590816113d0576113d06120dc565b90506020028101906113e291906120f2565b6113f590610180810190610160016119a4565b6001600160a01b03167f74d50b0289278fa7db21584bc3d033fec675e475368963bda7a976558e6307d960405160405180910390a25050505050565b6114396114ed565b6001600160a01b03811661149e5760405162461bcd60e51b815260206004820152602660248201527f4f776e61626c653a206e6577206f776e657220697320746865207a65726f206160448201526564647265737360d01b606482015260840161033f565b6114a781611547565b50565b6114b26114ed565b6040516001600160a01b0383169082156108fc029083906000818181858888f193505050501580156114e8573d6000803e3d6000fd5b505050565b6000546001600160a01b031633146102ef5760405162461bcd60e51b815260206004820181905260248201527f4f776e61626c653a2063616c6c6572206973206e6f7420746865206f776e6572604482015260640161033f565b600080546001600160a01b038381166001600160a01b0319831681178455604051919092169283917f8be0079c531659141344cd1fd0a4f28419497f9722a3daafe3b4186f6b6457e09190a35050565b6040805160a081019091526001600160a01b03831660c082015260009081908060e081016040516020818303038152906040528152602001846040516020016115e09190612a27565b60408051601f198184030181529190528152602001600060405190808252806020026020018201604052801561163c57816020015b60408051808201909152600080825260208201528152602001906001900390816116155790505b5081526003546001600160a01b031660208083019190915260408051808201825262030d4080825260009184019182528251602481019190915290511515604480830191909152825180830390910181526064909101825291820180516001600160e01b03166397a657c960e01b179052909101526002546040516320487ded60e01b81529192506000916001600160a01b03909116906320487ded906116e99089908690600401612a3a565b602060405180830381865afa158015611706573d6000803e3d6000fd5b505050506040513d601f19601f8201168201806040525081019061172a9190611aed565b6003546040516370a0823160e01b81523060048201529192506001600160a01b0316906370a0823190602401602060405180830381865afa158015611773573d6000803e3d6000fd5b505050506040513d601f19601f820116820180604052508101906117979190611aed565b81111561182e576003546040516370a0823160e01b81523060048201526001600160a01b03909116906370a0823190602401602060405180830381865afa1580156117e6573d6000803e3d6000fd5b505050506040513d601f19601f8201168201806040525081019061180a9190611aed565b604051634787a10360e11b815260048101919091526024810182905260440161033f565b60035460025460405163095ea7b360e01b81526001600160a01b0391821660048201526024810184905291169063095ea7b3906044016020604051808303816000875af1158015611883573d6000803e3d6000fd5b505050506040513d601f19601f820116820180604052508101906118a79190612980565b506002546040516396f4e9f960e01b81526001600160a01b03909116906396f4e9f9906118da9089908690600401612a3a565b6020604051808303816000875af11580156118f9573d6000803e3d6000fd5b505050506040513d601f19601f8201168201806040525081019061191d9190611aed565b6003546040519194506001600160401b0388169185917f69125e43b7abfc1fa9365749da93c3fdb8210eee6453979d728f5988b4a5bfed9161196e918a918a916001600160a01b0316908890612b16565b60405180910390a350509392505050565b6001600160a01b03811681146114a757600080fd5b803561199f8161197f565b919050565b6000602082840312156119b657600080fd5b81356119c18161197f565b9392505050565b60008083601f8401126119da57600080fd5b5081356001600160401b038111156119f157600080fd5b6020830191508360208260051b8501011115611a0c57600080fd5b9250929050565b600080600060408486031215611a2857600080fd5b83356001600160401b03811115611a3e57600080fd5b611a4a868287016119c8565b909790965060209590950135949350505050565b60008060208385031215611a7157600080fd5b82356001600160401b03811115611a8757600080fd5b611a93858286016119c8565b90969095509350505050565b60008060408385031215611ab257600080fd5b50508035926020909101359150565b60008060408385031215611ad457600080fd5b8235611adf8161197f565b946020939093013593505050565b600060208284031215611aff57600080fd5b5051919050565b80151581146114a757600080fd5b803561199f81611b06565b6000808335601e19843603018112611b3657600080fd5b83016020810192503590506001600160401b03811115611b5557600080fd5b8060051b3603821315611a0c57600080fd5b8183526000602080850194508260005b85811015611ba5578135611b8a8161197f565b6001600160a01b031687529582019590820190600101611b77565b509495945050505050565b803560ff8116811461199f57600080fd5b8183526000602080850194508260005b85811015611ba55760ff611be483611bb0565b1687529582019590820190600101611bd1565b60008383855260208086019550808560051b830101846000805b88811015611c8d57858403601f19018a52823536899003603e19018112611c36578283fd5b88016040611c448280611b1f565b828852611c548389018284611b67565b92505050611c6487830183611b1f565b925086820388880152611c78828483611bc1565b9c88019c965050509285019250600101611c11565b509198975050505050505050565b60008235605e19833603018112611cb157600080fd5b90910192915050565b60008383855260208086019550808560051b8301018460005b87811015611d6057848303601f19018952611cee8288611c9b565b60608135611cfb8161197f565b6001600160a01b03168552611d1282870183611b1f565b8288880152611d248388018284611b67565b925050506040611d3681840184611b1f565b935086830382880152611d4a838583611bc1565b9c88019c96505050928501925050600101611cd3565b5090979650505050505050565b818352602080840193600091600585811b830182018585805b89811015611e3057868403601f19018b52611da1838a611c9b565b60608135611dae8161197f565b6001600160a01b03168652611dc582890183611b1f565b878a018390529187018290526080916001600160fb1b03811115611de7578586fd5b881b808289850137870190506040611e0184820185611b1f565b94508389840301828a0152611e198484018683611b67565b9f8b019f9850505094880194505050600101611d86565b50919998505050505050505050565b60008383855260208086019550808560051b830101846000805b88811015611c8d57858403601f19018a52823536899003607e19018112611e7e578283fd5b880160808135611e8d8161197f565b6001600160a01b0316865281870135878701526040611eae81840184611b1f565b83838a0152611ec0848a018284611b67565b93505050506060611ed381840184611b1f565b935087830382890152611ee7838583611bc1565b9d89019d97505050938601935050600101611e59565b80356001600160401b038116811461199f57600080fd5b6000610180611f2c84611f2685611b14565b15159052565b6020830135602085015260408301356040850152611f4d6060840184611b1f565b826060870152611f608387018284611bf7565b92505050611f716080840184611b1f565b8583036080870152611f84838284611cba565b92505050611f9560a0840184611b1f565b85830360a0870152611fa8838284611d6d565b92505050611fb960c0840184611b1f565b85830360c0870152611fcc838284611e3f565b92505050611fdd60e0840184611b1f565b85830360e0870152611ff0838284611b67565b92505050610100612002818501611efd565b6001600160401b03169085015261012061201d848201611994565b6001600160a01b031690850152610140612038848201611994565b6001600160a01b031690850152610160612053848201611994565b6001600160a01b03169401939093525090919050565b60208082528181018390526000906040600585901b840181019084018684805b888110156120ce57878503603f190184528235368b900361017e190181126120af578283fd5b6120bb868c8301611f14565b9550509285019291850191600101612089565b509298975050505050505050565b634e487b7160e01b600052603260045260246000fd5b6000823561017e1983360301811261210957600080fd5b9190910192915050565b6000808335601e1984360301811261212a57600080fd5b8301803591506001600160401b0382111561214457600080fd5b6020019150600581901b3603821315611a0c57600080fd5b634e487b7160e01b600052604160045260246000fd5b604080519081016001600160401b03811182821017156121945761219461215c565b60405290565b604051606081016001600160401b03811182821017156121945761219461215c565b604051608081016001600160401b03811182821017156121945761219461215c565b60405161018081016001600160401b03811182821017156121945761219461215c565b604051601f8201601f191681016001600160401b03811182821017156122295761222961215c565b604052919050565b60006001600160401b0382111561224a5761224a61215c565b5060051b60200190565b600082601f83011261226557600080fd5b8135602061227a61227583612231565b612201565b8083825260208201915060208460051b87010193508684111561229c57600080fd5b602086015b848110156122c15780356122b48161197f565b83529183019183016122a1565b509695505050505050565b600082601f8301126122dd57600080fd5b813560206122ed61227583612231565b8083825260208201915060208460051b87010193508684111561230f57600080fd5b602086015b848110156122c15761232581611bb0565b8352918301918301612314565b600082601f83011261234357600080fd5b8135602061235361227583612231565b82815260059290921b8401810191818101908684111561237257600080fd5b8286015b848110156122c15780356001600160401b03808211156123965760008081fd5b908801906040828b03601f19018113156123b05760008081fd5b6123b8612172565b87840135838111156123ca5760008081fd5b6123d88d8a83880101612254565b8252509083013590828211156123ee5760008081fd5b6123fc8c89848701016122cc565b818901528652505050918301918301612376565b600082601f83011261242157600080fd5b8135602061243161227583612231565b82815260059290921b8401810191818101908684111561245057600080fd5b8286015b848110156122c15780356001600160401b03808211156124745760008081fd5b908801906060828b03601f190181131561248e5760008081fd5b61249661219a565b878401356124a38161197f565b8152604084810135848111156124b95760008081fd5b6124c78e8b83890101612254565b838b0152509184013591838311156124df5760008081fd5b6124ed8d8a858801016122cc565b908201528652505050918301918301612454565b600082601f83011261251257600080fd5b8135602061252261227583612231565b82815260059290921b8401810191818101908684111561254157600080fd5b8286015b848110156122c15780356001600160401b038082111561256457600080fd5b908801906060828b03601f1901121561257d5760008081fd5b61258561219a565b868301356125928161197f565b8152604083810135838111156125a85760008081fd5b8401603f81018d136125ba5760008081fd5b888101356125ca61227582612231565b81815260059190911b82018301908a8101908f8311156125ea5760008081fd5b928401925b828410156126085783358252928b0192908b01906125ef565b858c01525050506060840135838111156126225760008081fd5b6126308d8a83880101612254565b918301919091525085525050918301918301612545565b600082601f83011261265857600080fd5b8135602061266861227583612231565b82815260059290921b8401810191818101908684111561268757600080fd5b8286015b848110156122c15780356001600160401b03808211156126ab5760008081fd5b908801906080828b03601f19018113156126c55760008081fd5b6126cd6121bc565b878401356126da8161197f565b815260408481013589830152606080860135858111156126fa5760008081fd5b6127088f8c838a0101612254565b848401525092850135928484111561272257600091508182fd5b6127308e8b868901016122cc565b9083015250865250505091830191830161268b565b6000610180823603121561275857600080fd5b6127606121de565b61276983611b14565b8152602083013560208201526040830135604082015260608301356001600160401b038082111561279957600080fd5b6127a536838701612332565b606084015260808501359150808211156127be57600080fd5b6127ca36838701612410565b608084015260a08501359150808211156127e357600080fd5b6127ef36838701612501565b60a084015260c085013591508082111561280857600080fd5b61281436838701612647565b60c084015260e085013591508082111561282d57600080fd5b5061283a36828601612254565b60e08301525061010061284e818501611efd565b90820152610120612860848201611994565b90820152610140612872848201611994565b90820152610160612884848201611994565b9082015292915050565b634e487b7160e01b600052601160045260246000fd5b818103818111156112955761129561288e565b6000826128d457634e487b7160e01b600052601260045260246000fd5b500490565b6000815180845260005b818110156128ff576020818501810151868301820152016128e3565b506000602082860101526020601f19601f83011685010191505092915050565b6002811061293d57634e487b7160e01b600052602160045260246000fd5b9052565b60018060a01b038516815283602082015260806040820152600061296860808301856128d9565b9050612977606083018461291f565b95945050505050565b60006020828403121561299257600080fd5b81516119c181611b06565b6000602082840312156129af57600080fd5b81516119c18161197f565b6001600160a01b03841681526020810183905260806040820181905260009082015260a081016129ed606083018461291f565b949350505050565b600060208284031215612a0757600080fd5b6119c182611efd565b80820281158282048414176112955761129561288e565b6020815260006119c16020830184611f14565b600060406001600160401b03851683526020604081850152845160a06040860152612a6860e08601826128d9565b905081860151603f1980878403016060880152612a8583836128d9565b6040890151888203830160808a01528051808352908601945060009350908501905b80841015612ad957845180516001600160a01b0316835286015186830152938501936001939093019290860190612aa7565b5060608901516001600160a01b031660a08901526080890151888203830160c08a01529550612b0881876128d9565b9a9950505050505050505050565b600060018060a01b03808716835260806020840152612b386080840187611f14565b9416604083015250606001529291505056fea26469706673582212204bbe6b0b7db500092e355044cae98fcad50248a6951145250c97b21a712f88cf64736f6c63430008180033","linkReferences":{}},"methodIdentifiers":{"calculateAmount(uint256,uint256)":"cbcd5582","chainSelector()":"4e4bc847","deleteWill()":"210879f4","execute((bool,uint256,uint256,(address[],uint8[])[],(address,address[],uint8[])[],(address,uint256[],address[])[],(address,uint256,address[],uint8[])[],address[],uint64,address,address,address)[])":"876fabaf","fee()":"ddca3f43","getBalance()":"12065fe0","owner()":"8da5cb5b","renounceOwnership()":"715018a6","requestExecution((bool,uint256,uint256,(address[],uint8[])[],(address,address[],uint8[])[],(address,uint256[],address[])[],(address,uint256,address[],uint8[])[],address[],uint64,address,address,address)[])":"e2e4cc00","saveWillHash((bool,uint256,uint256,(address[],uint8[])[],(address,address[],uint8[])[],(address,uint256[],address[])[],(address,uint256,address[],uint8[])[],address[],uint64,address,address,address)[],uint256)":"7a87da8e","transferOwnership(address)":"f2fde38b","willHashes(address)":"6df5a5ab","withdraw(address,uint256)":"f3fef3a3"},"id":0}